{
  "contractName": "LoanDapp",
  "abi": [
    {
      "constant": true,
      "inputs": [],
      "name": "JOIN_SPLIT_PROOF",
      "outputs": [
        {
          "name": "",
          "type": "uint24"
        }
      ],
      "payable": false,
      "stateMutability": "view",
      "type": "function"
    },
    {
      "constant": true,
      "inputs": [],
      "name": "ZERO_VALUE_NOTE_HASH",
      "outputs": [
        {
          "name": "",
          "type": "bytes32"
        }
      ],
      "payable": false,
      "stateMutability": "view",
      "type": "function"
    },
    {
      "constant": true,
      "inputs": [],
      "name": "PRIVATE_RANGE_PROOF",
      "outputs": [
        {
          "name": "",
          "type": "uint24"
        }
      ],
      "payable": false,
      "stateMutability": "view",
      "type": "function"
    },
    {
      "constant": true,
      "inputs": [
        {
          "name": "",
          "type": "uint256"
        }
      ],
      "name": "settlementCurrencies",
      "outputs": [
        {
          "name": "",
          "type": "address"
        }
      ],
      "payable": false,
      "stateMutability": "view",
      "type": "function"
    },
    {
      "constant": true,
      "inputs": [],
      "name": "DIVIDEND_PROOF",
      "outputs": [
        {
          "name": "",
          "type": "uint24"
        }
      ],
      "payable": false,
      "stateMutability": "view",
      "type": "function"
    },
    {
      "constant": true,
      "inputs": [],
      "name": "MINT_PROOF",
      "outputs": [
        {
          "name": "",
          "type": "uint24"
        }
      ],
      "payable": false,
      "stateMutability": "view",
      "type": "function"
    },
    {
      "constant": true,
      "inputs": [
        {
          "name": "",
          "type": "uint256"
        },
        {
          "name": "",
          "type": "uint256"
        }
      ],
      "name": "loanPayments",
      "outputs": [
        {
          "name": "from",
          "type": "address"
        },
        {
          "name": "to",
          "type": "address"
        },
        {
          "name": "notional",
          "type": "bytes"
        }
      ],
      "payable": false,
      "stateMutability": "view",
      "type": "function"
    },
    {
      "constant": true,
      "inputs": [],
      "name": "BURN_PROOF",
      "outputs": [
        {
          "name": "",
          "type": "uint24"
        }
      ],
      "payable": false,
      "stateMutability": "view",
      "type": "function"
    },
    {
      "constant": true,
      "inputs": [
        {
          "name": "",
          "type": "uint256"
        }
      ],
      "name": "loans",
      "outputs": [
        {
          "name": "",
          "type": "address"
        }
      ],
      "payable": false,
      "stateMutability": "view",
      "type": "function"
    },
    {
      "inputs": [
        {
          "name": "_aceAddress",
          "type": "address"
        }
      ],
      "payable": false,
      "stateMutability": "nonpayable",
      "type": "constructor"
    },
    {
      "anonymous": false,
      "inputs": [
        {
          "indexed": false,
          "name": "id",
          "type": "uint256"
        },
        {
          "indexed": false,
          "name": "settlementAddress",
          "type": "address"
        }
      ],
      "name": "SettlementCurrencyAdded",
      "type": "event"
    },
    {
      "anonymous": false,
      "inputs": [
        {
          "indexed": false,
          "name": "loanId",
          "type": "address"
        }
      ],
      "name": "LoanApprovedForSettlement",
      "type": "event"
    },
    {
      "anonymous": false,
      "inputs": [
        {
          "indexed": false,
          "name": "id",
          "type": "address"
        },
        {
          "indexed": false,
          "name": "borrower",
          "type": "address"
        },
        {
          "indexed": false,
          "name": "notional",
          "type": "bytes32"
        },
        {
          "indexed": false,
          "name": "borrowerPublicKey",
          "type": "string"
        },
        {
          "indexed": false,
          "name": "loanVariables",
          "type": "uint256[]"
        },
        {
          "indexed": false,
          "name": "createdAt",
          "type": "uint256"
        }
      ],
      "name": "LoanCreated",
      "type": "event"
    },
    {
      "anonymous": false,
      "inputs": [
        {
          "indexed": false,
          "name": "loanId",
          "type": "address"
        },
        {
          "indexed": false,
          "name": "lender",
          "type": "address"
        },
        {
          "indexed": false,
          "name": "lenderPublicKey",
          "type": "string"
        }
      ],
      "name": "ViewRequestCreated",
      "type": "event"
    },
    {
      "anonymous": false,
      "inputs": [
        {
          "indexed": false,
          "name": "accessId",
          "type": "uint256"
        },
        {
          "indexed": false,
          "name": "loanId",
          "type": "address"
        },
        {
          "indexed": false,
          "name": "user",
          "type": "address"
        },
        {
          "indexed": false,
          "name": "sharedSecret",
          "type": "string"
        }
      ],
      "name": "ViewRequestApproved",
      "type": "event"
    },
    {
      "anonymous": false,
      "inputs": [
        {
          "indexed": false,
          "name": "accessId",
          "type": "uint256"
        },
        {
          "indexed": false,
          "name": "note",
          "type": "bytes32"
        },
        {
          "indexed": false,
          "name": "user",
          "type": "address"
        },
        {
          "indexed": false,
          "name": "sharedSecret",
          "type": "string"
        }
      ],
      "name": "NoteAccessApproved",
      "type": "event"
    },
    {
      "anonymous": false,
      "inputs": [
        {
          "indexed": true,
          "name": "from",
          "type": "address"
        },
        {
          "indexed": true,
          "name": "to",
          "type": "address"
        },
        {
          "indexed": false,
          "name": "loanId",
          "type": "address"
        },
        {
          "indexed": false,
          "name": "timestamp",
          "type": "uint256"
        }
      ],
      "name": "SettlementSuccesfull",
      "type": "event"
    },
    {
      "constant": false,
      "inputs": [
        {
          "name": "_id",
          "type": "uint256"
        },
        {
          "name": "_address",
          "type": "address"
        }
      ],
      "name": "addSettlementCurrency",
      "outputs": [],
      "payable": false,
      "stateMutability": "nonpayable",
      "type": "function"
    },
    {
      "constant": false,
      "inputs": [
        {
          "name": "_notional",
          "type": "bytes32"
        },
        {
          "name": "_viewingKey",
          "type": "string"
        },
        {
          "name": "_borrowerPublicKey",
          "type": "string"
        },
        {
          "name": "_loanVariables",
          "type": "uint256[]"
        },
        {
          "name": "_proofData",
          "type": "bytes"
        }
      ],
      "name": "createLoan",
      "outputs": [],
      "payable": false,
      "stateMutability": "nonpayable",
      "type": "function"
    },
    {
      "constant": false,
      "inputs": [
        {
          "name": "_noteHash",
          "type": "bytes32"
        },
        {
          "name": "_signature",
          "type": "bytes"
        },
        {
          "name": "_loanId",
          "type": "address"
        }
      ],
      "name": "approveLoanNotional",
      "outputs": [],
      "payable": false,
      "stateMutability": "nonpayable",
      "type": "function"
    },
    {
      "constant": false,
      "inputs": [
        {
          "name": "_loanId",
          "type": "address"
        },
        {
          "name": "_lenderPublicKey",
          "type": "string"
        }
      ],
      "name": "submitViewRequest",
      "outputs": [],
      "payable": false,
      "stateMutability": "nonpayable",
      "type": "function"
    },
    {
      "constant": false,
      "inputs": [
        {
          "name": "_loanId",
          "type": "address"
        },
        {
          "name": "_lender",
          "type": "address"
        },
        {
          "name": "_notionalNote",
          "type": "bytes32"
        },
        {
          "name": "_sharedSecret",
          "type": "string"
        }
      ],
      "name": "approveViewRequest",
      "outputs": [],
      "payable": false,
      "stateMutability": "nonpayable",
      "type": "function"
    },
    {
      "constant": false,
      "inputs": [
        {
          "name": "_loanId",
          "type": "address"
        },
        {
          "name": "_proofData",
          "type": "bytes"
        },
        {
          "name": "_currentInterestBalance",
          "type": "bytes32"
        }
      ],
      "name": "settleInitialBalance",
      "outputs": [],
      "payable": false,
      "stateMutability": "nonpayable",
      "type": "function"
    },
    {
      "constant": false,
      "inputs": [
        {
          "name": "_note",
          "type": "bytes32"
        },
        {
          "name": "_viewingKey",
          "type": "string"
        },
        {
          "name": "_sharedSecret",
          "type": "string"
        },
        {
          "name": "_sharedWith",
          "type": "address"
        }
      ],
      "name": "approveNoteAccess",
      "outputs": [],
      "payable": false,
      "stateMutability": "nonpayable",
      "type": "function"
    }
  ],
  "bytecode": "0x60806040526000805433600160a060020a0319909116179055600480546201020162ffffff199091161765ffffff00000019166501010200000017905534801561004857600080fd5b506040516020806151f28339810180604052602081101561006857600080fd5b505160018054600160a060020a031916600160a060020a0390921691909117905561515a806100986000396000f3fe60806040523480156200001157600080fd5b5060043610620001175760003560e01c80637fe1590711620000a5578063af3d3e98116200006f578063af3d3e981462000616578063bc452d9c14620006e9578063df924625146200076f578063e1ec3c6814620007795762000117565b80637fe1590714620005305780638500e1f8146200056c578063884763b814620005765780638e526d9b146200060c5762000117565b806349518b2811620000e757806349518b2814620002f55780636b0a81bd14620002ff578063721b24cb146200032e5780637b62b22314620004aa5762000117565b80625bf732146200011c57806307616051146200013e57806316c657b5146200015a57806336ab358d146200021a575b600080fd5b6200012662000799565b6040805162ffffff9092168252519081900360200190f35b62000148620007a0565b60408051918252519081900360200190f35b62000218600480360360608110156200017257600080fd5b813591908101906040810160208201356401000000008111156200019557600080fd5b820183602082011115620001a857600080fd5b80359060200191846001830284011164010000000083111715620001cb57600080fd5b91908080601f01602080910402602001604051908101604052809392919081815260200183838082843760009201919091525092955050509035600160a060020a03169150620007c49050565b005b62000218600480360360808110156200023257600080fd5b813591908101906040810160208201356401000000008111156200025557600080fd5b8201836020820111156200026857600080fd5b803590602001918460018302840111640100000000831117156200028b57600080fd5b919390929091602081019035640100000000811115620002aa57600080fd5b820183602082011115620002bd57600080fd5b80359060200191846001830284011164010000000083111715620002e057600080fd5b919350915035600160a060020a031662000906565b62000126620009a2565b62000218600480360360408110156200031757600080fd5b5080359060200135600160a060020a0316620009a9565b62000218600480360360a08110156200034657600080fd5b813591908101906040810160208201356401000000008111156200036957600080fd5b8201836020820111156200037c57600080fd5b803590602001918460018302840111640100000000831117156200039f57600080fd5b919390929091602081019035640100000000811115620003be57600080fd5b820183602082011115620003d157600080fd5b80359060200191846001830284011164010000000083111715620003f457600080fd5b9193909290916020810190356401000000008111156200041357600080fd5b8201836020820111156200042657600080fd5b803590602001918460208302840111640100000000831117156200044957600080fd5b9193909290916020810190356401000000008111156200046857600080fd5b8201836020820111156200047b57600080fd5b803590602001918460018302840111640100000000831117156200049e57600080fd5b50909250905062000a36565b6200021860048036036040811015620004c257600080fd5b600160a060020a038235169190810190604081016020820135640100000000811115620004ee57600080fd5b8201836020820111156200050157600080fd5b803590602001918460018302840111640100000000831117156200052457600080fd5b50909250905062000bd0565b62000550600480360360208110156200054857600080fd5b503562000c51565b60408051600160a060020a039092168252519081900360200190f35b6200012662000c6c565b62000218600480360360808110156200058e57600080fd5b600160a060020a03823581169260208101359091169160408201359190810190608081016060820135640100000000811115620005ca57600080fd5b820183602082011115620005dd57600080fd5b803590602001918460018302840111640100000000831117156200060057600080fd5b50909250905062000c73565b6200012662000dac565b6200063c600480360360408110156200062e57600080fd5b508035906020013562000db3565b6040518084600160a060020a0316600160a060020a0316815260200183600160a060020a0316600160a060020a0316815260200180602001828103825283818151815260200191508051906020019080838360005b83811015620006ab57818101518382015260200162000691565b50505050905090810190601f168015620006d95780820380516001836020036101000a031916815260200191505b5094505050505060405180910390f35b62000218600480360360608110156200070157600080fd5b600160a060020a0382351691908101906040810160208201356401000000008111156200072d57600080fd5b8201836020820111156200074057600080fd5b803590602001918460018302840111640100000000831117156200076357600080fd5b91935091503562000e7a565b6200012662000fec565b62000550600480360360208110156200079157600080fd5b503562000ff3565b6201010181565b7fcbc417524e52b95c42a4c42d357938497e3d199eb9b4a0139c92551d4000bc3c81565b6040517f1f2ac16a00000000000000000000000000000000000000000000000000000000815260048101848152600160a060020a0383166024830181905260016044840181905260806064850190815286516084860152865186959394631f2ac16a948a94889490938b939260a40190602085019080838360005b83811015620008595781810151838201526020016200083f565b50505050905090810190601f168015620008875780820380516001836020036101000a031916815260200191505b5095505050505050600060405180830381600087803b158015620008aa57600080fd5b505af1158015620008bf573d6000803e3d6000fd5b505060408051600160a060020a038616815290517ff4b09cd82e0cd90665cbeb579749a3e1eb6eb6e5b958f061159d0ecee657634f9350908190036020019150a150505050565b8315620009505762000950863387878080601f0160208091040260200160405190810160405280939291908181526020018383808284376000920191909152506200101c92505050565b81156200099a576200099a868285858080601f0160208091040260200160405190810160405280939291908181526020018383808284376000920191909152506200101c92505050565b505050505050565b6201040281565b600054600160a060020a03163314620009c157600080fd5b600082815260036020908152604091829020805473ffffffffffffffffffffffffffffffffffffffff1916600160a060020a03851690811790915582518581529182015281517ff75dfe1f50fa42916f700d8c79fb1fcff4c19665c1eff22a1873f0a6ccdc0e42929181900390910190a15050565b600062000aab8a86868080602002602001604051908101604052809392919081815260200183836020028082843760009201919091525050604080516020601f8a018190048102820181019092528881529250889150879081908401838280828437600092019190915250620010f892505050565b90507f3cdaa498346c5f86552a27b29772c0365e6d4d0e583234a1cf7b0f9387d1148281338c8a8a8a8a426040518089600160a060020a0316600160a060020a0316815260200188600160a060020a0316600160a060020a0316815260200187815260200180602001806020018481526020018381038352888882818152602001925080828437600083820152601f01601f19169091018481038352868152602090810191508790870280828437600083820152604051601f909101601f19169092018290039c50909a5050505050505050505050a162000bc48a338b8b8080601f0160208091040260200160405190810160405280939291908181526020018383808284376000920191909152506200101c92505050565b50505050505050505050565b60408051600160a060020a0385168152336020820181905260609282018381529282018490527f8285ff47b46a115eb8540956cb05268b66a83e772a5644255940e6370996c2c1928692869186919060808201848480828437600083820152604051601f909101601f191690920182900397509095505050505050a1505050565b600360205260009081526040902054600160a060020a031681565b6201040181565b84600081905080600160a060020a0316637df1f1b96040518163ffffffff1660e01b815260040160206040518083038186803b15801562000cb357600080fd5b505afa15801562000cc8573d6000803e3d6000fd5b505050506040513d602081101562000cdf57600080fd5b5051600160a060020a0316331462000cf657600080fd5b600062000d048688620013a8565b90507f061ada21567a220dbd05531f4d14231a8a6a5d858409c2f778eaa419ede6be4881898988886040518086815260200185600160a060020a0316600160a060020a0316815260200184600160a060020a0316600160a060020a03168152602001806020018281038252848482818152602001925080828437600083820152604051601f909101601f19169092018290039850909650505050505050a15050505050505050565b6201020181565b60056020908152600092835260408084208252918352918190208054600180830154600280850180548751601f60001996831615610100029690960190911692909204938401889004880282018801909652828152600160a060020a03938416969190931694919083018282801562000e705780601f1062000e445761010080835404028352916020019162000e70565b820191906000526020600020905b81548152906001019060200180831162000e5257829003601f168201915b5050505050905083565b6040517fafb06df9000000000000000000000000000000000000000000000000000000008152602481018290523360448201819052606060048301908152606483018590528692600160a060020a0384169263afb06df99288928892889290918190608401868680828437600081840152601f19601f82011690508083019250505095505050505050600060405180830381600087803b15801562000f1e57600080fd5b505af115801562000f33573d6000803e3d6000fd5b5050505080600160a060020a0316637df1f1b96040518163ffffffff1660e01b815260040160206040518083038186803b15801562000f7157600080fd5b505afa15801562000f86573d6000803e3d6000fd5b505050506040513d602081101562000f9d57600080fd5b505160408051600160a060020a038881168252426020830152825193169233927fcc4e883d274a9634809d0d7ac5ddb39de9f532062483e301805f6bab0c88a4dc928290030190a35050505050565b6201030181565b60028054829081106200100257fe5b600091825260209091200154600160a060020a0316905081565b60006200102a8484620013a8565b90507fb84a1e73254faadc9dcb4791f50e97ef785d48bc844a334c11eeb849a904179c818585856040518085815260200184815260200183600160a060020a0316600160a060020a0316815260200180602001828103825283818151815260200191508051906020019080838360005b83811015620010b45781810151838201526020016200109a565b50505050905090810190601f168015620010e25780820380516001836020036101000a031916815260200191505b509550505050505060405180910390a150505050565b6000806200111f8460038151811015156200110f57fe5b90602001906020020151620013e4565b90506000858533600160009054906101000a9004600160a060020a0316856040516200114b9062001471565b858152600160a060020a03808516604083015283811660608301528216608082015260a06020808301828152875192840192909252865160c0840191888101910280838360005b83811015620011ac57818101518382015260200162001192565b505050509050019650505050505050604051809103906000f080158015620011d8573d6000803e3d6000fd5b50600280546001808201835560009283527f405787fa12a823e0f2b7631cc41b3ba8828b3321ca811111fa75cd3aa3bb5ace909101805473ffffffffffffffffffffffffffffffffffffffff1916600160a060020a038516908117909155604080517f76ae6bee0000000000000000000000000000000000000000000000000000000081526004810193909352600019602484015251939450849390926376ae6bee926044808201939182900301818387803b1580156200129857600080fd5b505af1158015620012ad573d6000803e3d6000fd5b5050604080517f1b50a0740000000000000000000000000000000000000000000000000000000081526201020160048201818152602483019384528a5160448401528a51600160a060020a0388169650631b50a074955091938b939192909160640190602085019080838360005b83811015620013355781810151838201526020016200131b565b50505050905090810190601f168015620013635780820380516001836020036101000a031916815260200191505b509350505050600060405180830381600087803b1580156200138457600080fd5b505af115801562001399573d6000803e3d6000fd5b50939998505050505050505050565b60408051602080820194909452600160a060020a039290921660601b828201528051808303603401815260549092019052805191012060001c90565b600081815260036020526040812054600160a060020a0316151562001455576040517f08c379a00000000000000000000000000000000000000000000000000000000081526004018080602001828103825260228152602001806200510d6022913960400191505060405180910390fd5b50600090815260036020526040902054600160a060020a031690565b613c8d80620014808339019056fe60806040523480156200001157600080fd5b5060405162003c8d38038062003c8d833981018060405260a08110156200003757600080fd5b8151602083018051919392830192916401000000008111156200005957600080fd5b820160208101848111156200006d57600080fd5b81518560208202830111640100000000821117156200008b57600080fd5b505092919060200180519060200190929190805190602001909291908051906020019092919050505081600060018060008484848484848484848460405160200180807f454950373132446f6d61696e2800000000000000000000000000000000000000815250600d01807f737472696e67206e616d652c0000000000000000000000000000000000000000815250600c01807f737472696e672076657273696f6e2c0000000000000000000000000000000000815250600f01807f6164647265737320766572696679696e67436f6e747261637400000000000000815250601901807f29000000000000000000000000000000000000000000000000000000000000008152506001019050604051602081830303815290604052805190602001206040805190810160405280601981526020017f415a5445435f43525950544f4752415048595f454e47494e4500000000000000815250805190602001206040805190810160405280600181526020017f310000000000000000000000000000000000000000000000000000000000000081525080519060200120306040516020018085815260200184815260200183815260200182600160a060020a0316600160a060020a031681526020019450505050506040516020818303038152906040528051906020012060008190555060405160200180807f454950373132446f6d61696e2800000000000000000000000000000000000000815250600d01807f737472696e67206e616d652c0000000000000000000000000000000000000000815250600c01807f737472696e672076657273696f6e2c0000000000000000000000000000000000815250600f01807f6164647265737320766572696679696e67436f6e747261637400000000000000815250601901807f29000000000000000000000000000000000000000000000000000000000000008152506001019050604051602081830303815290604052805190602001206040805190810160405280600881526020017f5a4b5f4153534554000000000000000000000000000000000000000000000000815250805190602001206040805190810160405280600181526020017f31000000000000000000000000000000000000000000000000000000000000008152508051906020012030600160a060020a031660001b604051602001808581526020018481526020018381526020018281526020019450505050506040516020818303038152906040528051906020012060008190555060606040519081016040528060011515815260200160001515815260200160011515815250600360008201518160000160006101000a81548160ff02191690831515021790555060208201518160000160016101000a81548160ff02191690831515021790555060408201518160000160026101000a81548160ff02191690831515021790555090505084600160006101000a815481600160a060020a030219169083600160a060020a0316021790555083600260006101000a815481600160a060020a030219169083600160a060020a0316021790555082600481905550600160009054906101000a9004600160a060020a0316600160a060020a031663a5468ca2858585856040518563ffffffff1660e01b81526004018085600160a060020a0316600160a060020a031681526020018481526020018315151515815260200182151515158152602001945050505050600060405180830381600087803b1580156200059757600080fd5b505af1158015620005ac573d6000803e3d6000fd5b505060408051868152841515602082015281518615159450600160a060020a03808a1694508a16927fca576e79bcb5c4a0045d9d596a80c733c3997559f688f69e5c03bd737d885b86928290030190a4505050505033600660006101000a815481600160a060020a030219169083600160a060020a03160217905550505050505033600860006101000a815481600160a060020a030219169083600160a060020a031602179055505050505050336009800160006101000a815481600160a060020a030219169083600160a060020a0316021790555084600960050181905550306009600c0160006101000a815481600160a060020a030219169083600160a060020a03160217905550836000815181101515620006c657fe5b60209081029091010151600955835184906001908110620006e357fe5b60209081029091010151600a558351849060029081106200070057fe5b60209081029091010151600b5560108054600160a060020a03948516600160a060020a03199182168117909255601880548216909217909155601480549285169282169290921790915560138054929093169116179055505061352480620007696000396000f3fe608060405234801561001057600080fd5b50600436106101e45760003560e01c80638da5cb5b1161010f578063d288fd40116100a2578063e306f77911610071578063e306f77914610c65578063ea12489f14610c6d578063eb2f481714610c75578063ed3437f814610c7d576101e4565b8063d288fd4014610949578063df04c87e14610a78578063df92462514610ba7578063e1651fd314610baf576101e4565b8063afb06df9116100de578063afb06df9146106e3578063bcead63e14610762578063cb876d6d1461076a578063cdfea90e14610897576101e4565b80638da5cb5b1461059e5780638e526d9b146105a657806396988498146105ae578063a5c8fa84146106db576101e4565b806364cc4aa5116101875780637df1f1b9116101565780637df1f1b9146104e75780637f08dede146104ef5780638500e1f8146105115780638bf1e83614610519576101e4565b806364cc4aa514610453578063764481181461047d57806376ae6bee1461049d5780637b9e618d146104c3576101e4565b80631b50a074116101c35780631b50a074146102635780631beaa84c146102e15780631f2ac16a1461038757806349518b281461044b576101e4565b80625bf732146101e957806307616051146102095780630f4a80fe14610223575b600080fd5b6101f1610c85565b6040805162ffffff9092168252519081900360200190f35b610211610c8c565b60408051918252519081900360200190f35b61024f6004803603604081101561023957600080fd5b5080359060200135600160a060020a0316610cb0565b604080519115158252519081900360200190f35b6102df6004803603604081101561027957600080fd5b62ffffff82351691908101906040810160208201356401000000008111156102a057600080fd5b8201836020820111156102b257600080fd5b803590602001918460018302840111640100000000831117156102d457600080fd5b509092509050610cd0565b005b6102df600480360360208110156102f757600080fd5b81019060208101813564010000000081111561031257600080fd5b82018360208201111561032457600080fd5b8035906020019184600183028401116401000000008311171561034657600080fd5b91908080601f016020809104026020016040519081016040528093929190818152602001838380828437600092019190915250929550611045945050505050565b6102df6004803603608081101561039d57600080fd5b813591600160a060020a03602082013516916040820135151591908101906080810160608201356401000000008111156103d657600080fd5b8201836020820111156103e857600080fd5b8035906020019184600183028401116401000000008311171561040a57600080fd5b91908080601f0160208091040260200160405190810160405280939291908181526020018383808284376000920191909152509295506111c8945050505050565b6101f1611404565b61045b61140b565b6040805193151584529115156020840152151582820152519081900360600190f35b6102116004803603602081101561049357600080fd5b503560ff16611427565b6102df600480360360408110156104b357600080fd5b5060ff8135169060200135611439565b6104cb61149b565b60408051600160a060020a039092168252519081900360200190f35b6104cb6114aa565b61024f6004803603602081101561050557600080fd5b503562ffffff166114b9565b6101f1611558565b61052161155f565b604080519d8e5260208e019c909c528c8c019a909a5260608c019890985260808b019690965260a08a019490945260c0890192909252600160a060020a0390811660e08901529081166101008801529081166101208701529081166101408601529081166101608501521661018083015251908190036101a00190f35b6104cb6115a6565b6101f16115b5565b6102df600480360360408110156105c457600080fd5b8101906020810181356401000000008111156105df57600080fd5b8201836020820111156105f157600080fd5b8035906020019184600183028401116401000000008311171561061357600080fd5b91908080601f016020809104026020016040519081016040528093929190818152602001838380828437600092019190915250929594936020810193503591505064010000000081111561066657600080fd5b82018360208201111561067857600080fd5b8035906020019184600183028401116401000000008311171561069a57600080fd5b91908080601f0160208091040260200160405190810160405280939291908181526020018383808284376000920191909152509295506115bc945050505050565b6104cb611a3f565b6102df600480360360608110156106f957600080fd5b81019060208101813564010000000081111561071457600080fd5b82018360208201111561072657600080fd5b8035906020019184600183028401116401000000008311171561074857600080fd5b919350915080359060200135600160a060020a0316611a4e565b6104cb611be2565b6102df6004803603604081101561078057600080fd5b81019060208101813564010000000081111561079b57600080fd5b8201836020820111156107ad57600080fd5b803590602001918460018302840111640100000000831117156107cf57600080fd5b91908080601f016020809104026020016040519081016040528093929190818152602001838380828437600092019190915250929594936020810193503591505064010000000081111561082257600080fd5b82018360208201111561083457600080fd5b8035906020019184600183028401116401000000008311171561085657600080fd5b91908080601f016020809104026020016040519081016040528093929190818152602001838380828437600092019190915250929550611bf1945050505050565b6102df600480360360408110156108ad57600080fd5b62ffffff82351691908101906040810160208201356401000000008111156108d457600080fd5b8201836020820111156108e657600080fd5b8035906020019184600183028401116401000000008311171561090857600080fd5b91908080601f016020809104026020016040519081016040528093929190818152602001838380828437600092019190915250929550611e99945050505050565b6102df6004803603606081101561095f57600080fd5b81019060208101813564010000000081111561097a57600080fd5b82018360208201111561098c57600080fd5b803590602001918460018302840111640100000000831117156109ae57600080fd5b91908080601f0160208091040260200160405190810160405280939291908181526020018383808284376000920191909152509295949360208101935035915050640100000000811115610a0157600080fd5b820183602082011115610a1357600080fd5b80359060200191846001830284011164010000000083111715610a3557600080fd5b91908080601f0160208091040260200160405190810160405280939291908181526020018383808284376000920191909152509295505091359250611f0f915050565b6102df60048036036060811015610a8e57600080fd5b810190602081018135640100000000811115610aa957600080fd5b820183602082011115610abb57600080fd5b80359060200191846001830284011164010000000083111715610add57600080fd5b91908080601f0160208091040260200160405190810160405280939291908181526020018383808284376000920191909152509295949360208101935035915050640100000000811115610b3057600080fd5b820183602082011115610b4257600080fd5b80359060200191846001830284011164010000000083111715610b6457600080fd5b91908080601f0160208091040260200160405190810160405280939291908181526020018383808284376000920191909152509295505091359250612152915050565b6101f1612316565b6102df60048036036040811015610bc557600080fd5b600160a060020a038235169190810190604081016020820135640100000000811115610bf057600080fd5b820183602082011115610c0257600080fd5b80359060200191846001830284011164010000000083111715610c2457600080fd5b91908080601f01602080910402602001604051908101604052809392919081815260200183838082843760009201919091525092955061231d945050505050565b610211612346565b6104cb61234c565b6102df61235b565b6102116123af565b6201010181565b7fcbc417524e52b95c42a4c42d357938497e3d199eb9b4a0139c92551d4000bc3c81565b600560209081526000928352604080842090915290825290205460ff1681565b601254604080517f28b84016000000000000000000000000000000000000000000000000000000008152336004820152600160a060020a0390921660248301525173__LoanUtilities_________________________916328b84016916044808301926000929190829003018186803b158015610d4c57600080fd5b505af4158015610d60573d6000803e3d6000fd5b5050600854600160a060020a031633149150610db290505760405160e560020a62461bcd0281526004018080602001828103825260318152602001806133b46031913960400191505060405180910390fd5b801515610e09576040805160e560020a62461bcd02815260206004820152600d60248201527f70726f6f6620696e76616c696400000000000000000000000000000000000000604482015290519081900360640190fd5b6001546040517f80037eeb00000000000000000000000000000000000000000000000000000000815262ffffff8516600482019081523360448301819052606060248401818152606485018790529094600160a060020a0316936380037eeb93899389938993919291608401858580828437600081840152601f19601f82011690508083019250505095505050505050600060405180830381600087803b158015610eb357600080fd5b505af1158015610ec7573d6000803e3d6000fd5b505050506040513d6000823e601f3d908101601f191682016040526020811015610ef057600080fd5b810190808051640100000000811115610f0857600080fd5b82016020810184811115610f1b57600080fd5b8151640100000000811182820187101715610f3557600080fd5b5090945060609350610f5c9250610f579150849050600063ffffffff6123b516565b61240f565b50509150506060610f7a610f576001856123b590919063ffffffff16565b505091505060006060610f8c84612439565b9250925050610f9a83612457565b7f6bc2dccbfc40ed5201f2896c7bc80fa4529202979a6c4195e7c95548b7bdedcb82826040518083815260200180602001828103825283818151815260200191508051906020019080838360005b83811015611000578181015183820152602001610fe8565b50505050905090810190601f16801561102d5780820380516001836020036101000a031916815260200191505b50935050505060405180910390a15050505050505050565b601854604080517fbf9a8ae2000000000000000000000000000000000000000000000000000000008152336004820152600160a060020a0390921660248301525173__LoanUtilities_________________________9163bf9a8ae2916044808301926000929190829003018186803b1580156110c157600080fd5b505af41580156110d5573d6000803e3d6000fd5b50505050600073__LoanUtilities_________________________63c01076078360096040518363ffffffff1660e01b81526004018080602001838152602001828103825284818151815260200191508051906020019080838360005b8381101561114a578181015183820152602001611132565b50505050905090810190601f1680156111775780820380516001836020036101000a031916815260200191505b50935050505060206040518083038186803b15801561119557600080fd5b505af41580156111a9573d6000803e3d6000fd5b505050506040513d60208110156111bf57600080fd5b5051600f555050565b600154604080517ffedee266000000000000000000000000000000000000000000000000000000008152306004820152602481018790529051600092600160a060020a03169163fedee266916044808301926080929190829003018186803b15801561123357600080fd5b505afa158015611247573d6000803e3d6000fd5b505050506040513d608081101561125d57600080fd5b50519050600160ff8216146112a65760405160e560020a62461bcd02815260040180806020018281038252602281526020018061336a6022913960400191505060405180910390fd5b604080517f4e6f74655369676e6174757265280000000000000000000000000000000000006020808301919091527f62797465733332206e6f7465486173682c000000000000000000000000000000602e8301527f61646472657373207370656e6465722c00000000000000000000000000000000603f8301527f626f6f6c20737461747573000000000000000000000000000000000000000000604f8301527f2900000000000000000000000000000000000000000000000000000000000000605a8301528251603b818403018152605b83018452805190820120607b830152609b8201889052600160a060020a03871660bb83015260ff841660db808401919091528351808403909101815260fb90920190925280519101206113cc818785612540565b5050506000928352600560209081526040808520600160a060020a039490941685529290529120805460ff1916911515919091179055565b6201040281565b60035460ff808216916101008104821691620100009091041683565b60076020526000908152604090205481565b600654600160a060020a031633146114855760405160e560020a62461bcd0281526004018080602001828103825260278152602001806133e56027913960400191505060405180910390fd5b60ff909116600090815260076020526040902055565b601654600160a060020a031681565b601854600160a060020a031681565b6000806000806114cd8562ffffff1661265d565b9194509250905060ff82166001146115195760405160e560020a62461bcd0281526004018080602001828103825260288152602001806133426028913960400191505060405180910390fd5b600061152f60ff8316600163ffffffff61267716565b60ff94851660009081526007602052604090205494169390931c60019081161495945050505050565b6201040181565b600954600a54600b54600c54600d54600e54600f54601054601154601254601354601454601554600160a060020a039586169594851694938416939283169291821691168d565b600854600160a060020a031681565b6201020181565b6001546040517fa2866ea3000000000000000000000000000000000000000000000000000000008152620101016004820181815233602484018190526060604485018181528851606487015288519196600160a060020a03169563a2866ea395948a9390929160840190602085019080838360005b83811015611649578181015183820152602001611631565b50505050905090810190601f1680156116765780820380516001836020036101000a031916815260200191505b50945050505050600060405180830381600087803b15801561169757600080fd5b505af11580156116ab573d6000803e3d6000fd5b505050506040513d6000823e601f3d908101601f1916820160405260208110156116d457600080fd5b8101908080516401000000008111156116ec57600080fd5b820160208101848111156116ff57600080fd5b815164010000000081118282018710171561171957600080fd5b505080519094501515925061177b915050576040805160e560020a62461bcd02815260206004820152600d60248201527f70726f6f6620696e76616c696400000000000000000000000000000000000000604482015290519081900360640190fd5b606061178e82600063ffffffff6123b516565b9050600061179b8261240f565b600154604080517ff971d77c000000000000000000000000000000000000000000000000000000008152306004820152905192965060009550859450600160a060020a03909116925063f971d77c9160248083019260e0929190829003018186803b15801561180957600080fd5b505afa15801561181d573d6000803e3d6000fd5b505050506040513d60e081101561183357600080fd5b50602081015160409091015190925090506000831315611a2b5782811015611a2b576000611867848363ffffffff6126cc16565b600254909150600160a060020a03166340c10f193061188c848763ffffffff6126db16565b6040518363ffffffff1660e01b81526004018083600160a060020a0316600160a060020a0316815260200182815260200192505050602060405180830381600087803b1580156118db57600080fd5b505af11580156118ef573d6000803e3d6000fd5b505050506040513d602081101561190557600080fd5b5050600254600154600160a060020a039182169163095ea7b39116611930848763ffffffff6126db16565b6040518363ffffffff1660e01b81526004018083600160a060020a0316600160a060020a0316815260200182815260200192505050602060405180830381600087803b15801561197f57600080fd5b505af1158015611993573d6000803e3d6000fd5b505050506040513d60208110156119a957600080fd5b5050600154604080517f43b54208000000000000000000000000000000000000000000000000000000008152600481018490529051600160a060020a03909216916343b542089160248082019260009290919082900301818387803b158015611a1157600080fd5b505af1158015611a25573d6000803e3d6000fd5b50505050505b611a3685878961270d565b50505050505050565b600154600160a060020a031681565b601254604080517f28b84016000000000000000000000000000000000000000000000000000000008152336004820152600160a060020a0390921660248301525173__LoanUtilities_________________________916328b84016916044808301926000929190829003018186803b158015611aca57600080fd5b505af4158015611ade573d6000803e3d6000fd5b5050604080517fb4180f3f000000000000000000000000000000000000000000000000000000008152600960248201819052600482019283526044820188905273__LoanUtilities_________________________945063b4180f3f9350889288928190606401858580828437600081840152601f19601f82011690508083019250505094505050505060006040518083038186803b158015611b8057600080fd5b505af4158015611b94573d6000803e3d6000fd5b505042600c819055600d555050600f9190915560118054600160a060020a0390921673ffffffffffffffffffffffffffffffffffffffff199283168117909155601780549092161790555050565b601754600160a060020a031681565b601854604080517fbf9a8ae2000000000000000000000000000000000000000000000000000000008152336004820152600160a060020a0390921660248301525173__LoanUtilities_________________________9163bf9a8ae2916044808301926000929190829003018186803b158015611c6d57600080fd5b505af4158015611c81573d6000803e3d6000fd5b5050600d54600b54600c5460009450611cb09350611ca49163ffffffff612aa616565b9063ffffffff6126cc16565b90506060611cc084836009612ab8565b600b54600c54919350429250611cdc919063ffffffff612aa616565b10611d31576040805160e560020a62461bcd02815260206004820152601460248201527f6c6f616e20686173206e6f74206d617475726564000000000000000000000000604482015290519081900360640190fd5b73__LoanUtilities_________________________636a4234be848360096040518463ffffffff1660e01b8152600401808060200180602001848152602001838103835286818151815260200191508051906020019080838360005b83811015611da5578181015183820152602001611d8d565b50505050905090810190601f168015611dd25780820380516001836020036101000a031916815260200191505b50838103825285518152855160209182019187019080838360005b83811015611e05578181015183820152602001611ded565b50505050905090810190601f168015611e325780820380516001836020036101000a031916815260200191505b509550505050505060006040518083038186803b158015611e5257600080fd5b505af4158015611e66573d6000803e3d6000fd5b50506040517f1062e18f9d21decf38f145fc9b437cd2c70e09252a729f9830b75ffdaaf37894925060009150a150505050565b6000611ea4836114b9565b9050600181151514611f00576040805160e560020a62461bcd02815260206004820152601e60248201527f65787065637465642070726f6f6620746f20626520737570706f727465640000604482015290519081900360640190fd5b611f0a8383612d4c565b505050565b6060611f1d84836009612ab8565b600d54909250429150611f3790849063ffffffff612aa616565b10611f765760405160e560020a62461bcd02815260040180806020018281038252602a81526020018061340c602a913960400191505060405180910390fd5b600073__LoanUtilities_________________________63e6fe3efb858460096040518463ffffffff1660e01b8152600401808060200180602001848152602001838103835286818151815260200191508051906020019080838360005b83811015611fec578181015183820152602001611fd4565b50505050905090810190601f1680156120195780820380516001836020036101000a031916815260200191505b50838103825285518152855160209182019187019080838360005b8381101561204c578181015183820152602001612034565b50505050905090810190601f1680156120795780820380516001836020036101000a031916815260200191505b509550505050505060206040518083038186803b15801561209957600080fd5b505af41580156120ad573d6000803e3d6000fd5b505050506040513d60208110156120c357600080fd5b5051600f819055600d549091506120e0908463ffffffff612aa616565b600d8190556040805160208101929092528082526008828201527f494e5445524553540000000000000000000000000000000000000000000000006060830152517f523916cd7de3426d571b525f627e1be26e90e0b665714ac6068df9791bfc33499181900360800190a15050505050565b600d54429061216890839063ffffffff612aa616565b106121a75760405160e560020a62461bcd0281526004018080602001828103825260298152602001806134ae6029913960400191505060405180910390fd5b73__LoanUtilities_________________________63b127ad7784848460096040518563ffffffff1660e01b8152600401808060200180602001858152602001848152602001838103835287818151815260200191508051906020019080838360005b8381101561222257818101518382015260200161220a565b50505050905090810190601f16801561224f5780820380516001836020036101000a031916815260200191505b50838103825286518152865160209182019188019080838360005b8381101561228257818101518382015260200161226a565b50505050905090810190601f1680156122af5780820380516001836020036101000a031916815260200191505b50965050505050505060006040518083038186803b1580156122d057600080fd5b505af41580156122e4573d6000803e3d6000fd5b50506040517fc5a26992e0addb303d125bbc430c95e94432eb25eb2215972ad9f3cd034d13c1925060009150a1505050565b6201030181565b600160a060020a03821660009081526019602090815260409091208251611f0a9284019061328f565b60005481565b600254600160a060020a031681565b604080518082018252600281527f3078000000000000000000000000000000000000000000000000000000000000602080830191825233600090815260199091529290922090516123ac929061328f565b50565b60045481565b6020828101519082028301604001518301908210806124085760405160e560020a62461bcd0281526004018080602001828103825260228152602001806134d76022913960400191505060405180910390fd5b5092915050565b6020810151604082015160608301516080840151928401949190930192600160a060020a03169190565b60408101516060820151600160a060020a0390911692909160800190565b60005b61246382612fa9565b81101561253c576000806060612487612482868663ffffffff6123b516565b612439565b9250925092508183600160a060020a03167f5ffb3072e4515cf3bfae8b16be9dff6313cf7c313a0c26faafe6971d8c7585f1836040518080602001828103825283818151815260200191508051906020019080838360005b838110156124f75781810151838201526020016124df565b50505050905090810190601f1680156125245780820380516001836020036101000a031916815260200191505b509250505060405180910390a350505060010161245a565b5050565b600154604080517ffedee266000000000000000000000000000000000000000000000000000000008152306004820152602481018590529051600092600160a060020a03169163fedee266916044808301926080929190829003018186803b1580156125ab57600080fd5b505afa1580156125bf573d6000803e3d6000fd5b505050506040513d60808110156125d557600080fd5b50606001518251909150600090156126065760006125f286612fb0565b90506125fe8185612fd1565b915050612609565b50335b600160a060020a03818116908316146126565760405160e560020a62461bcd02815260040180806020018281038252602881526020018061338c6028913960400191505060405180910390fd5b5050505050565b60ff62010000820481169261010083048216929190911690565b600060ff80841690831611156126c15760405160e560020a62461bcd0281526004018080602001828103825260258152602001806134896025913960400191505060405180910390fd5b508082035b92915050565b6000828211156126c157600080fd5b60008215156126ec575060006126c6565b8282028284828115156126fb57fe5b041461270657600080fd5b9392505050565b604081015160005b61271e85612fa9565b811015612656576060612737868363ffffffff6123b516565b6001546040517f977796d200000000000000000000000000000000000000000000000000000000815262010101600482018181523060448401819052606060248501908152865160648601528651969750600160a060020a039095169563977796d2959394889492939291608490910190602086019080838360005b838110156127cb5781810151838201526020016127b3565b50505050905090810190601f1680156127f85780820380516001836020036101000a031916815260200191505b50945050505050600060405180830381600087803b15801561281957600080fd5b505af115801561282d573d6000803e3d6000fd5b505050506060806000806128408561240f565b9350935093509350600061285385612fa9565b11156129ed5760005b61286585612fa9565b8110156129eb5760606128788b836130e4565b9050600061288f612482888563ffffffff6123b516565b50604080517f4a6f696e53706c69745369676e617475726528000000000000000000000000006020808301919091527f75696e7432342070726f6f662c0000000000000000000000000000000000000060338301527f62797465733332206e6f7465486173682c000000000000000000000000000000828401527f75696e74323536206368616c6c656e67652c000000000000000000000000000060518301527f616464726573732073656e64657200000000000000000000000000000000000060638301527f290000000000000000000000000000000000000000000000000000000000000060718301528251605281840301815260728301845280519082012060928301526201010160b283015260d2820184905260f282018f9052336101128084019190915283518084039091018152610132909201909252805191012090925090506129e0818385612540565b50505060010161285c565b505b6129f684613123565b6129ff83612457565b6000811215612a4d5781600160a060020a03167ffed3b27b73d78d9d1f344bbbf25f7af35e0ac4d6cf8193604ce18082168e461a826000036040518082815260200191505060405180910390a25b6000811315612a9657604080518281529051600160a060020a038416917f60213c45c34d8b94e495fd5871fdea7a7511f659e884ea25a0c8843b7f98bfad919081900360200190a25b5050505050600181019050612715565b60008282018381101561270657600080fd5b80546060908190612af890612ad3908663ffffffff6126db16565b6001850154612aec90633b9aca0063ffffffff6126db16565b9063ffffffff61320316565b612b07612710612aec88613227565b14612b5c576040805160e560020a62461bcd02815260206004820152601360248201527f726174696f7320646f206e6f74206d6174636800000000000000000000000000604482015290519081900360640190fd5b600a8301546040517fa2866ea3000000000000000000000000000000000000000000000000000000008152620104016004820181815230602484018190526060604485018181528b5160648701528b519196600160a060020a03169563a2866ea395948d9390929160840190602085019080838360005b83811015612beb578181015183820152602001612bd3565b50505050905090810190601f168015612c185780820380516001836020036101000a031916815260200191505b50945050505050600060405180830381600087803b158015612c3957600080fd5b505af1158015612c4d573d6000803e3d6000fd5b505050506040513d6000823e601f3d908101601f191682016040526020811015612c7657600080fd5b810190808051640100000000811115612c8e57600080fd5b82016020810184811115612ca157600080fd5b8151640100000000811182820187101715612cbb57600080fd5b50909450612cdb9350610f5792508491506000905063ffffffff6123b516565b505060058601549194509250612d00612cfb85600063ffffffff6123b516565b613255565b6020015114612d435760405160e560020a62461bcd0281526004018080602001828103825260228152602001806134366022913960400191505060405180910390fd5b50935093915050565b606080600080612d5b8561240f565b93509350935093506000612d6e85612fa9565b905060005b81811015612dff576000612d90612482888463ffffffff6123b516565b50600081815260056020908152604080832033845290915290205490925060ff1615156001149050612df65760405160e560020a62461bcd0281526004018080602001828103825260318152602001806134586031913960400191505060405180910390fd5b50600101612d73565b506001546040517f977796d200000000000000000000000000000000000000000000000000000000815262ffffff89166004820190815233604483018190526060602484019081528a5160648501528a51600160a060020a039095169463977796d2948d948d94939092909160840190602086019080838360005b83811015612e92578181015183820152602001612e7a565b50505050905090810190601f168015612ebf5780820380516001836020036101000a031916815260200191505b50945050505050600060405180830381600087803b158015612ee057600080fd5b505af1158015612ef4573d6000803e3d6000fd5b50505050612f0185613123565b612f0a84612457565b6000821215612f585782600160a060020a03167ffed3b27b73d78d9d1f344bbbf25f7af35e0ac4d6cf8193604ce18082168e461a836000036040518082815260200191505060405180910390a25b6000821315611a3657604080518381529051600160a060020a038516917f60213c45c34d8b94e495fd5871fdea7a7511f659e884ea25a0c8843b7f98bfad919081900360200190a250505050505050565b6020015190565b60008054604080516119019093526020919091529182526042601e20915290565b6000808251848452602084015160208560808760015afa601c8214601b8314176060841416169250845186146000811461300a5761300f565b855194505b505083528080156130275750600160a060020a038216155b151561240857600160a060020a038216151561308d576040805160e560020a62461bcd02815260206004820152601a60248201527f7369676e657220616464726573732063616e6e6f742062652030000000000000604482015290519081900360640190fd5b801515612408576040805160e560020a62461bcd02815260206004820152601960248201527f7369676e6174757265207265636f76657279206661696c656400000000000000604482015290519081900360640190fd5b60609081029190910160208181015160408084015193850151815193840192909252828101939093528184015281518082039093018352608001905290565b60005b61312f82612fa9565b81101561253c57600080606061314e612482868663ffffffff6123b516565b9250925092508183600160a060020a03167febd4bb7b61198df63305dd538f077db9df9b14339d8a6221e301487770d79227836040518080602001828103825283818151815260200191508051906020019080838360005b838110156131be5781810151838201526020016131a6565b50505050905090810190601f1680156131eb5780820380516001836020036101000a031916815260200191505b509250505060405180910390a3505050600101613126565b600080821161321157600080fd5b6000828481151561321e57fe5b04949350505050565b604081015160608201516000919061324d81612aec84633b9aca0063ffffffff6126db16565b949350505050565b61325d61330d565b60008061326984612439565b5060408051808201909152600160a060020a039092168252602082015292505050919050565b828054600181600116156101000203166002900490600052602060002090601f016020900481019282601f106132d057805160ff19168380011785556132fd565b828001600101855582156132fd579182015b828111156132fd5782518255916020019190600101906132e2565b50613309929150613324565b5090565b604080518082019091526000808252602082015290565b61333e91905b80821115613309576000815560010161332a565b9056fe74686973206173736574206f6e6c7920737570706f7274732062616c616e6365642070726f6f66736f6e6c7920756e7370656e74206e6f7465732063616e20626520617070726f766564746865206e6f7465206f776e657220646964206e6f74207369676e2074686973206d6573736167656f6e6c79206f776e65722063616e2063616c6c2074686520636f6e666964656e7469616c4d696e742829206d6574686f646f6e6c7920746865206f776e65722063616e20736574207468652065706f63682070726f6f66732077697468647261772069732067726561746572207468616e206163637275656420696e746572657374696e636f7272656374206e6f74696f6e616c206e6f746520696e2070726f6f66203173656e64657220646f6573206e6f74206861766520617070726f76616c20746f207370656e6420696e707574206e6f746575696e7438207375622074726967676572656420696e746567657220756e646572666c6f7777697468647261772069732067726561746572207468616e206163637275656420696e746572657374415a54454320617272617920696e646578206973206f7574206f6620626f756e6473a165627a7a7230582093f2a8edcf47234826161a7b9796991aa7770111b1d082da1dc38018ff4b81930029536574746c656d656e742043757272656e6379206973206e6f7420646566696e6564a165627a7a72305820f49a8804bede98c892e8792351e092b8c77e9ac1327d6531b99c17e3b8cbcc0a0029",
  "source": "pragma solidity >= 0.5.0 <0.7.0;\n\nimport \"@aztec/protocol/contracts/interfaces/IAZTEC.sol\";\nimport \"@aztec/protocol/contracts/libs/NoteUtils.sol\";\nimport \"@aztec/protocol/contracts/ERC1724/ZkAsset.sol\";\nimport \"./ZKERC20/ZKERC20.sol\";\nimport \"./Loan.sol\";\n\ncontract LoanDapp is IAZTEC {\n  using NoteUtils for bytes;\n\n  event SettlementCurrencyAdded(\n    uint id,\n    address settlementAddress\n  );\n\n  event LoanApprovedForSettlement(\n    address loanId\n  );\n\n  event LoanCreated(\n    address id,\n    address borrower,\n    bytes32 notional,\n    string borrowerPublicKey,\n    uint256[] loanVariables,\n    uint createdAt\n  );\n\n  event ViewRequestCreated(\n    address loanId,\n    address lender,\n    string lenderPublicKey\n  );\n\n  event ViewRequestApproved(\n    uint accessId,\n    address loanId,\n    address user,\n    string sharedSecret\n  );\n\n  event NoteAccessApproved(\n    uint accessId,\n    bytes32 note,\n    address user,\n    string sharedSecret\n  );\n\n  address owner = msg.sender;\n  address aceAddress;\n  address[] public loans;\n  mapping(uint => address) public settlementCurrencies;\n\n  uint24 MINT_PRO0F = 66049;\n  uint24 BILATERAL_SWAP_PROOF = 65794;\n\n  modifier onlyOwner() {\n    require(msg.sender == owner);\n    _;\n  }\n\n  modifier onlyBorrower(address _loanAddress) {\n    Loan loanContract = Loan(_loanAddress);\n    require(msg.sender == loanContract.borrower());\n    _;\n  }\n\n  constructor(address _aceAddress) public {\n    aceAddress = _aceAddress;\n  }\n\n  function _getCurrencyContract(uint _settlementCurrencyId) internal view returns (address) {\n    require(settlementCurrencies[_settlementCurrencyId] != address(0), 'Settlement Currency is not defined');\n    return settlementCurrencies[_settlementCurrencyId];\n  }\n\n  function _generateAccessId(bytes32 _note, address _user) internal pure returns (uint) {\n    return uint(keccak256(abi.encodePacked(_note, _user)));\n  }\n\n  function _approveNoteAccess(\n    bytes32 _note,\n    address _userAddress,\n    string memory _sharedSecret\n  ) internal {\n    uint accessId = _generateAccessId(_note, _userAddress);\n    emit NoteAccessApproved(\n      accessId,\n      _note,\n      _userAddress,\n      _sharedSecret\n    );\n  }\n\n  function _createLoan(\n    bytes32 _notional,\n    uint256[] memory _loanVariables,\n    bytes memory _proofData\n  ) private returns (address) {\n    address loanCurrency = _getCurrencyContract(_loanVariables[3]);\n\n    Loan newLoan = new Loan(\n      _notional,\n      _loanVariables,\n      msg.sender,\n      aceAddress,\n      loanCurrency\n    );\n\n    loans.push(address(newLoan));\n    Loan loanContract = Loan(address(newLoan));\n\n    loanContract.setProofs(1, uint256(-1));\n    loanContract.confidentialMint(MINT_PROOF, bytes(_proofData));\n\n    return address(newLoan);\n  }\n\n  function addSettlementCurrency(uint _id, address _address) external onlyOwner {\n    settlementCurrencies[_id] = _address;\n    emit SettlementCurrencyAdded(_id, _address);\n  }\n\n  function createLoan(\n    bytes32 _notional,\n    string calldata _viewingKey,\n    string calldata _borrowerPublicKey,\n    uint256[] calldata _loanVariables,\n    // [0] interestRate\n    // [1] interestPeriod\n    // [2] loanDuration\n    // [3] settlementCurrencyId\n    bytes calldata _proofData\n  ) external {\n    address loanId = _createLoan(\n      _notional,\n      _loanVariables,\n      _proofData\n    );\n\n    emit LoanCreated(\n      loanId,\n      msg.sender,\n      _notional,\n      _borrowerPublicKey,\n      _loanVariables,\n      block.timestamp\n    );\n\n    _approveNoteAccess(\n      _notional,\n      msg.sender,\n      _viewingKey\n    );\n  }\n\n  function approveLoanNotional(\n    bytes32 _noteHash,\n    bytes memory _signature,\n    address _loanId\n  ) public {\n    Loan loanContract = Loan(_loanId);\n    loanContract.confidentialApprove(_noteHash, _loanId, true, _signature);\n    emit LoanApprovedForSettlement(_loanId);\n  }\n\n  function submitViewRequest(address _loanId, string calldata _lenderPublicKey) external {\n    emit ViewRequestCreated(\n      _loanId,\n      msg.sender,\n      _lenderPublicKey\n    );\n  }\n\n  function approveViewRequest(\n    address _loanId,\n    address _lender,\n    bytes32 _notionalNote,\n    string calldata _sharedSecret\n  ) external onlyBorrower(_loanId) {\n    uint accessId = _generateAccessId(_notionalNote, _lender);\n\n    emit ViewRequestApproved(\n      accessId,\n      _loanId,\n      _lender,\n      _sharedSecret\n    );\n  }\n\n  event SettlementSuccesfull(\n    address indexed from,\n    address indexed to,\n    address loanId,\n    uint256 timestamp\n  );\n\n  struct LoanPayment {\n    address from;\n    address to;\n    bytes notional;\n  }\n\n  mapping(uint => mapping(uint => LoanPayment)) public loanPayments;\n\n  function settleInitialBalance(\n    address _loanId,\n    bytes calldata _proofData,\n    bytes32 _currentInterestBalance\n  ) external {\n    Loan loanContract = Loan(_loanId);\n    loanContract.settleLoan(_proofData, _currentInterestBalance, msg.sender);\n    emit SettlementSuccesfull(\n      msg.sender,\n      loanContract.borrower(),\n      _loanId,\n      block.timestamp\n    );\n  }\n\n  function approveNoteAccess(\n    bytes32 _note,\n    string calldata _viewingKey,\n    string calldata _sharedSecret,\n    address _sharedWith\n  ) external {\n    if (bytes(_viewingKey).length != 0) {\n      _approveNoteAccess(\n        _note,\n        msg.sender,\n        _viewingKey\n      );\n    }\n\n    if (bytes(_sharedSecret).length != 0) {\n      _approveNoteAccess(\n        _note,\n        _sharedWith,\n        _sharedSecret\n      );\n    }\n  }\n}\n",
  "sourcePath": "/Users/patricio/workspace/research/privacy/aztec/loan-dapp/contracts/LoanDapp.sol",
  "compiler": {
    "name": "solc",
    "version": "0.5.4+commit.9549d8ff.Emscripten.clang"
  },
  "schemaVersion": "3.0.9",
  "updatedAt": "2021-09-17T18:03:48.310Z",
  "devdoc": {
    "methods": {}
  },
  "userdoc": {
    "methods": {}
  }
}