{
  "contractName": "LoanUtilities",
  "abi": [
    {
      "constant": true,
      "inputs": [
        {
          "name": "sender",
          "type": "address"
        },
        {
          "name": "loanFactory",
          "type": "address"
        }
      ],
      "name": "onlyLoanDapp",
      "outputs": [],
      "payable": false,
      "stateMutability": "pure",
      "type": "function"
    },
    {
      "constant": true,
      "inputs": [
        {
          "name": "sender",
          "type": "address"
        },
        {
          "name": "borrower",
          "type": "address"
        }
      ],
      "name": "onlyBorrower",
      "outputs": [],
      "payable": false,
      "stateMutability": "pure",
      "type": "function"
    },
    {
      "constant": false,
      "inputs": [
        {
          "name": "_proof1",
          "type": "bytes"
        },
        {
          "name": "_proof2",
          "type": "bytes"
        },
        {
          "name": "_interestDuration",
          "type": "uint256"
        },
        {
          "name": "_loanVariables",
          "type": "LoanUtilities.LoanVariables storage"
        }
      ],
      "name": "_validateDefaultProofs",
      "outputs": [],
      "payable": false,
      "stateMutability": "nonpayable",
      "type": "function"
    },
    {
      "constant": false,
      "inputs": [
        {
          "name": "_proof2",
          "type": "bytes"
        },
        {
          "name": "_proof1OutputNotes",
          "type": "bytes"
        },
        {
          "name": "_loanVariables",
          "type": "LoanUtilities.LoanVariables storage"
        }
      ],
      "name": "_processInterestWithdrawal",
      "outputs": [
        {
          "name": "newCurrentInterestBalance",
          "type": "bytes32"
        }
      ],
      "payable": false,
      "stateMutability": "nonpayable",
      "type": "function"
    },
    {
      "constant": false,
      "inputs": [
        {
          "name": "_proofData",
          "type": "bytes"
        },
        {
          "name": "_loanVariables",
          "type": "LoanUtilities.LoanVariables storage"
        }
      ],
      "name": "_processAdjustInterest",
      "outputs": [
        {
          "name": "newCurrentInterestBalance",
          "type": "bytes32"
        }
      ],
      "payable": false,
      "stateMutability": "nonpayable",
      "type": "function"
    },
    {
      "constant": false,
      "inputs": [
        {
          "name": "_proofData",
          "type": "bytes"
        },
        {
          "name": "_loanVariables",
          "type": "LoanUtilities.LoanVariables storage"
        }
      ],
      "name": "_processLoanSettlement",
      "outputs": [],
      "payable": false,
      "stateMutability": "nonpayable",
      "type": "function"
    },
    {
      "constant": false,
      "inputs": [
        {
          "name": "_proof2",
          "type": "bytes"
        },
        {
          "name": "_proof1OutputNotes",
          "type": "bytes"
        },
        {
          "name": "_loanVariables",
          "type": "LoanUtilities.LoanVariables storage"
        }
      ],
      "name": "_processLoanRepayment",
      "outputs": [],
      "payable": false,
      "stateMutability": "nonpayable",
      "type": "function"
    }
  ],
  "bytecode": "0x611bc1610030600b82828239805160001a6073146000811461002057610022565bfe5b5030600052607381538281f3fe73000000000000000000000000000000000000000030146080604052600436106100875760003560e01c8063b4180f3f11610065578063b4180f3f14610260578063bf9a8ae2146102dd578063c01076071461030b578063e6fe3efb1461039a57610087565b806328b840161461008c5780636a4234be146100bc578063b127ad771461018b575b600080fd5b6100ba600480360360408110156100a257600080fd5b50600160a060020a0381358116916020013516610469565b005b8180156100c857600080fd5b506100ba600480360360608110156100df57600080fd5b8101906020810181356401000000008111156100fa57600080fd5b82018360208201111561010c57600080fd5b8035906020019184600183028401116401000000008311171561012e57600080fd5b91939092909160208101903564010000000081111561014c57600080fd5b82018360208201111561015e57600080fd5b8035906020019184600183028401116401000000008311171561018057600080fd5b9193509150356104d5565b81801561019757600080fd5b506100ba600480360360808110156101ae57600080fd5b8101906020810181356401000000008111156101c957600080fd5b8201836020820111156101db57600080fd5b803590602001918460018302840111640100000000831117156101fd57600080fd5b91939092909160208101903564010000000081111561021b57600080fd5b82018360208201111561022d57600080fd5b8035906020019184600183028401116401000000008311171561024f57600080fd5b91935091508035906020013561088e565b81801561026c57600080fd5b506100ba6004803603604081101561028357600080fd5b81019060208101813564010000000081111561029e57600080fd5b8201836020820111156102b057600080fd5b803590602001918460018302840111640100000000831117156102d257600080fd5b919350915035610b0f565b6100ba600480360360408110156102f357600080fd5b50600160a060020a0381358116916020013516610e43565b81801561031757600080fd5b506103886004803603604081101561032e57600080fd5b81019060208101813564010000000081111561034957600080fd5b82018360208201111561035b57600080fd5b8035906020019184600183028401116401000000008311171561037d57600080fd5b919350915035610eab565b60408051918252519081900360200190f35b8180156103a657600080fd5b50610388600480360360608110156103bd57600080fd5b8101906020810181356401000000008111156103d857600080fd5b8201836020820111156103ea57600080fd5b8035906020019184600183028401116401000000008311171561040c57600080fd5b91939092909160208101903564010000000081111561042a57600080fd5b82018360208201111561043c57600080fd5b8035906020019184600183028401116401000000008311171561045e57600080fd5b919350915035611262565b600160a060020a03828116908216146104d15760408051600080516020611ac4833981519152815260206004820152601b60248201527f73656e646572206973206e6f7420746865206c6f616e20646170700000000000604482015290519081900360640190fd5b5050565b600a8101546040517fa2866ea300000000000000000000000000000000000000000000000000000000815262010101600482018181523060248401819052606060448501818152606486018b90529095600160a060020a03169463a2866ea394938c928c92608401848480828437600081840152601f19601f82011690508083019250505095505050505050600060405180830381600087803b15801561057b57600080fd5b505af115801561058f573d6000803e3d6000fd5b505050506040513d6000823e601f3d908101601f1916820160405260208110156105b857600080fd5b8101908080516401000000008111156105d057600080fd5b820160208101848111156105e357600080fd5b81516401000000008111828201871017156105fd57600080fd5b50909450606093508392506106259150610620905084600063ffffffff61166416565b6116c3565b505060088601549193509150600160a060020a031661065361064e83600063ffffffff61166416565b6116ed565b51600160a060020a0316146106a157604051600080516020611ac48339815191528152600401808060200182810382526026815260200180611ae46026913960400191505060405180910390fd5b6008840154600160a060020a03166106c361064e83600163ffffffff61166416565b51600160a060020a03161461071157604051600080516020611ac48339815191528152600401808060200182810382526026815260200180611ae46026913960400191505060405180910390fd5b600b840154600160a060020a0316631f2ac16a61073861064e85600063ffffffff61166416565b602001516040805163ffffffff841660e01b815260048101929092523060248301526001604483015260806064830152600060848301819052905160c48084019382900301818387803b15801561078e57600080fd5b505af11580156107a2573d6000803e3d6000fd5b50505050600b840154600160a060020a031663cdfea90e620101016107c8866000611664565b6040805163ffffffff851660e01b815262ffffff8416600482019081526024820192835283516044830152835190929160640190602085019080838360005b8381101561081f578181015183820152602001610807565b50505050905090810190601f16801561084c5780820380516001836020036101000a031916815260200191505b509350505050600060405180830381600087803b15801561086c57600080fd5b505af1158015610880573d6000803e3d6000fd5b505050505050505050505050565b60606108d387878080601f0160208091040260200160405190810160405280939291908181526020018383808284376000920191909152508792508691506117279050565b600a8401546040517fa2866ea300000000000000000000000000000000000000000000000000000000815262010402600482018181523060248401819052606060448501818152606486018d90529698509650600160a060020a039094169463a2866ea39492938c928c929091608401848480828437600081840152601f19601f82011690508083019250505095505050505050600060405180830381600087803b15801561098157600080fd5b505af1158015610995573d6000803e3d6000fd5b505050506040513d6000823e601f3d908101601f1916820160405260208110156109be57600080fd5b8101908080516401000000008111156109d657600080fd5b820160208101848111156109e957600080fd5b8151640100000000811182820187101715610a0357600080fd5b5090945060609350839250610a269150610620905084600063ffffffff61166416565b509193509150610a42905061064e85600063ffffffff61166416565b60200151610a5a61064e84600063ffffffff61166416565b6020015114610aa257604051600080516020611ac48339815191528152600401808060200182810382526027815260200180611b4d6027913960400191505060405180910390fd5b6006850154610abb61064e84600163ffffffff61166416565b6020015114610b0357604051600080516020611ac48339815191528152600401808060200182810382526021815260200180611b2c6021913960400191505060405180910390fd5b50505050505050505050565b600a8101546040517fa2866ea300000000000000000000000000000000000000000000000000000000815262010102600482018181523060248401819052606060448501818152606486018990529095600160a060020a03169463a2866ea394938a928a92608401848480828437600081840152601f19601f82011690508083019250505095505050505050600060405180830381600087803b158015610bb557600080fd5b505af1158015610bc9573d6000803e3d6000fd5b505050506040513d6000823e601f3d908101601f191682016040526020811015610bf257600080fd5b810190808051640100000000811115610c0a57600080fd5b82016020810184811115610c1d57600080fd5b8151640100000000811182820187101715610c3757600080fd5b5090945060609350610c5692508491506000905063ffffffff61166416565b90506060610c6b83600163ffffffff61166416565b600b850154604080517fcdfea90e000000000000000000000000000000000000000000000000000000008152620101026004820181815260248301938452855160448401528551959650600160a060020a039094169463cdfea90e94919387939091606490910190602085019080838360005b83811015610cf6578181015183820152602001610cde565b50505050905090810190601f168015610d235780820380516001836020036101000a031916815260200191505b509350505050600060405180830381600087803b158015610d4357600080fd5b505af1158015610d57573d6000803e3d6000fd5b50505050600c840154604080517fcdfea90e000000000000000000000000000000000000000000000000000000008152620101026004820181815260248301938452865160448401528651600160a060020a039095169463cdfea90e949293889391606490910190602085019080838360005b83811015610de2578181015183820152602001610dca565b50505050905090810190601f168015610e0f5780820380516001836020036101000a031916815260200191505b509350505050600060405180830381600087803b158015610e2f57600080fd5b505af1158015610b03573d6000803e3d6000fd5b600160a060020a03828116908216146104d15760408051600080516020611ac4833981519152815260206004820152601a60248201527f73656e646572206973206e6f742074686520626f72726f776572000000000000604482015290519081900360640190fd5b600a8101546040517fa2866ea300000000000000000000000000000000000000000000000000000000815262010101600482018181523060248401819052606060448501818152606486018990526000969195600160a060020a039092169463a2866ea3949093928b928b9291608401848480828437600081840152601f19601f82011690508083019250505095505050505050600060405180830381600087803b158015610f5957600080fd5b505af1158015610f6d573d6000803e3d6000fd5b505050506040513d6000823e601f3d908101601f191682016040526020811015610f9657600080fd5b810190808051640100000000811115610fae57600080fd5b82016020810184811115610fc157600080fd5b8151640100000000811182820187101715610fdb57600080fd5b5090945060609350839250610ffe9150610620905084600063ffffffff61166416565b50506006870154919350915061101e61064e84600063ffffffff61166416565b602001511461106657604051600080516020611ac48339815191528152600401808060200182810382526027815260200180611a7c6027913960400191505060405180910390fd5b3061107b61064e83600163ffffffff61166416565b51600160a060020a0316146110c957604051600080516020611ac48339815191528152600401808060200182810382526021815260200180611aa36021913960400191505060405180910390fd5b600b850154600160a060020a0316631f2ac16a6110f061064e85600063ffffffff61166416565b602001516040805163ffffffff841660e01b815260048101929092523060248301526001604483015260806064830152600060848301819052905160c48084019382900301818387803b15801561114657600080fd5b505af115801561115a573d6000803e3d6000fd5b50505050600b850154600160a060020a031663cdfea90e62010101611180866000611664565b6040805163ffffffff851660e01b815262ffffff8416600482019081526024820192835283516044830152835190929160640190602085019080838360005b838110156111d75781810151838201526020016111bf565b50505050905090810190601f1680156112045780820380516001836020036101000a031916815260200191505b509350505050600060405180830381600087803b15801561122457600080fd5b505af1158015611238573d6000803e3d6000fd5b5050505061125361064e60018361166490919063ffffffff16565b60200151979650505050505050565b600a8101546040517fa2866ea300000000000000000000000000000000000000000000000000000000815262010101600482018181523060248401819052606060448501818152606486018b90526000969195600160a060020a039092169463a2866ea3949093928d928d9291608401848480828437600081840152601f19601f82011690508083019250505095505050505050600060405180830381600087803b15801561131057600080fd5b505af1158015611324573d6000803e3d6000fd5b505050506040513d6000823e601f3d908101601f19168201604052602081101561134d57600080fd5b81019080805164010000000081111561136557600080fd5b8201602081018481111561137857600080fd5b815164010000000081118282018710171561139257600080fd5b50909450606093508392506113b59150610620905084600063ffffffff61166416565b50509150915061140861064e600089898080601f016020809104026020016040519081016040528093929190818152602001838380828437600092019190915250929392505063ffffffff611664169050565b6020015161142061064e83600063ffffffff61166416565b602001511461146857604051600080516020611ac48339815191528152600401808060200182810382526027815260200180611b4d6027913960400191505060405180910390fd5b600685015461148161064e84600063ffffffff61166416565b60200151146114c957604051600080516020611ac48339815191528152600401808060200182810382526021815260200180611b2c6021913960400191505060405180910390fd5b600b850154600160a060020a0316631f2ac16a6114f061064e85600063ffffffff61166416565b602001516040805163ffffffff841660e01b815260048101929092523060248301526001604483015260806064830152600060848301819052905160c48084019382900301818387803b15801561154657600080fd5b505af115801561155a573d6000803e3d6000fd5b50505050600b850154600160a060020a031663cdfea90e62010101611580866000611664565b6040805163ffffffff851660e01b815262ffffff8416600482019081526024820192835283516044830152835190929160640190602085019080838360005b838110156115d75781810151838201526020016115bf565b50505050905090810190601f1680156116045780820380516001836020036101000a031916815260200191505b509350505050600060405180830381600087803b15801561162457600080fd5b505af1158015611638573d6000803e3d6000fd5b5050505061165361064e60018361166490919063ffffffff16565b602001519998505050505050505050565b6020828101519082028301604001518301908210806116bc57604051600080516020611ac48339815191528152600401808060200182810382526022815260200180611b746022913960400191505060405180910390fd5b5092915050565b6020810151604082015160608301516080840151928401949190930192600160a060020a03169190565b6116f5611a64565b600080611701846119c0565b5060408051808201909152600160a060020a039092168252602082015292505050919050565b8054606090819061176790611742908663ffffffff6119de16565b600185015461175b90633b9aca0063ffffffff6119de16565b9063ffffffff611a1216565b61177661271061175b88611a36565b146117d05760408051600080516020611ac4833981519152815260206004820152601360248201527f726174696f7320646f206e6f74206d6174636800000000000000000000000000604482015290519081900360640190fd5b600a8301546040517fa2866ea3000000000000000000000000000000000000000000000000000000008152620104016004820181815230602484018190526060604485018181528b5160648701528b519196600160a060020a03169563a2866ea395948d9390929160840190602085019080838360005b8381101561185f578181015183820152602001611847565b50505050905090810190601f16801561188c5780820380516001836020036101000a031916815260200191505b50945050505050600060405180830381600087803b1580156118ad57600080fd5b505af11580156118c1573d6000803e3d6000fd5b505050506040513d6000823e601f3d908101601f1916820160405260208110156118ea57600080fd5b81019080805164010000000081111561190257600080fd5b8201602081018481111561191557600080fd5b815164010000000081118282018710171561192f57600080fd5b5090945061194f935061062092508491506000905063ffffffff61166416565b50506005860154919450925061196f61064e85600063ffffffff61166416565b60200151146119b757604051600080516020611ac48339815191528152600401808060200182810382526022815260200180611b0a6022913960400191505060405180910390fd5b50935093915050565b60408101516060820151600160a060020a0390911692909160800190565b60008215156119ef57506000611a0c565b8282028284828115156119fe57fe5b0414611a0957600080fd5b90505b92915050565b6000808211611a2057600080fd5b60008284811515611a2d57fe5b04949350505050565b6040810151606082015160009190611a5c8161175b84633b9aca0063ffffffff6119de16565b949350505050565b60408051808201909152600080825260208201529056fe696e746572657374206e6f746520646f6573206e6f74206d6174636820696e707574206e6f74656f7574707574206e6f7465206e6f74206f776e656420627920636f6e747261637408c379a0000000000000000000000000000000000000000000000000000000006f7574707574206e6f7465206973206e6f74206f776e656420627920746865206c656e646572696e636f7272656374206e6f74696f6e616c206e6f746520696e2070726f6f662031696e746572657374206e6f746520696e2032206973206e6f7420636f72726563747769746864726177206e6f746520696e2032206973206e6f74207468652073616d652061732031415a54454320617272617920696e646578206973206f7574206f6620626f756e6473a165627a7a7230582015f1169149c2e61b0169064b69f5ad33e47fbd12596b9d5be4a3e3ceb3f508e80029",
  "source": "pragma solidity >= 0.5.0 <0.7.0;\nimport \"@aztec/protocol/contracts/libs/NoteUtils.sol\";\nimport \"@aztec/protocol/contracts/ERC1724/ZkAssetMintable.sol\";\nimport \"@aztec/protocol/contracts/interfaces/IZkAsset.sol\";\nimport \"./ZKERC20/ZKERC20.sol\";\n\n\nlibrary LoanUtilities {\n\n  using SafeMath for uint256;\n  using SafeMath for uint32;\n  using NoteUtils for bytes;\n  \n  uint256 constant scalingFactor = 1000000000;\n  uint24 constant DIVIDEND_PROOF= 66561;\n  uint24 constant JOIN_SPLIT_PROOF = 65793;\n  uint24 constant MINT_PRO0F = 66049;\n  uint24 constant BILATERAL_SWAP_PROOF = 65794;\n  uint24 constant PRIVATE_RANGE_PROOF = 66562;\n \n  struct Note {\n    address owner;\n    bytes32 noteHash;\n  }\n  \n  struct LoanVariables {\n    uint256 interestRate;\n    uint256 interestPeriod;\n    uint256 duration;\n    uint256 loanSettlementDate;\n    uint256 lastInterestPaymentDate;\n    bytes32 notional;\n    bytes32 currentInterestBalance;\n    address borrower;\n    address lender;\n    address loanFactory;\n    address aceAddress;\n    IZkAsset settlementToken;\n    address id;\n  }\n  \n  function _noteCoderToStruct(bytes memory note) internal pure returns (Note memory codedNote) {\n      (address owner, bytes32 noteHash,) = note.extractNote();\n      return Note(owner, noteHash );\n  }\n\n  function getRatio(bytes memory _proofData) internal pure returns (uint256 ratio) {\n    uint256 za;\n    uint256 zb;\n    assembly {\n      za := mload(add(_proofData, 0x40))\n      zb := mload(add(_proofData, 0x60))\n    }\n    return za.mul(scalingFactor).div(zb);\n  }\n  \n\n  function onlyLoanDapp(address sender, address loanFactory) external pure {\n    require(sender == loanFactory, 'sender is not the loan dapp');\n  }\n  \n  function onlyBorrower(address sender, address borrower) external pure {\n    require(sender == borrower, 'sender is not the borrower');\n  }\n  \n  function onlyLender(address sender, address lender) internal pure {\n    // require(sender, 'sender is not the lender');\n  }\n\n  function _validateDefaultProofs(\n    bytes calldata _proof1,\n    bytes calldata _proof2,\n    uint256 _interestDuration,\n    LoanVariables storage _loanVariables\n    ) external {\n\n\n    (,bytes memory _proof1OutputNotes) = _validateInterestProof(_proof1, _interestDuration, _loanVariables);\n    (bytes memory _proof2Outputs) = ACE(_loanVariables.aceAddress).validateProof(PRIVATE_RANGE_PROOF, address(this),_proof2);\n    (bytes memory _proof2InputNotes, bytes memory _proof2OutputNotes, ,) = _proof2Outputs.get(0).extractProofOutput();\n\n    require(_noteCoderToStruct(_proof2InputNotes.get(0)).noteHash == _noteCoderToStruct(_proof1OutputNotes.get(0)).noteHash, 'withdraw note in 2 is not the same as 1');\n\n    require(_noteCoderToStruct(_proof2InputNotes.get(1)).noteHash == _loanVariables.currentInterestBalance, 'interest note in 2 is not correct');\n\n  }\n\n\n  function _validateInterestProof(\n    bytes memory _proof1,\n    uint256 _interestDuration,\n    LoanVariables storage _loanVariables\n  ) internal returns (\n    bytes memory _proof1InputNotes, \n    bytes memory _proof1OutputNotes\n  ) {\n    //PROOF 1\n\n    //NotionalNote * a = WithdrawableInterestNote * b\n\n    require(getRatio(_proof1).div(10000) ==\n            _loanVariables.interestPeriod.mul(scalingFactor)\n              .div(\n                _loanVariables.interestRate\n                .mul(_interestDuration)\n                  )\n           , 'ratios do not match');\n\n\n    (bytes memory _proof1Outputs) = ACE(_loanVariables.aceAddress).validateProof(DIVIDEND_PROOF, address(this), _proof1);\n    (_proof1InputNotes, _proof1OutputNotes, ,) = _proof1Outputs.get(0).extractProofOutput();\n    require(_noteCoderToStruct(_proof1InputNotes.get(0)).noteHash == _loanVariables.notional, 'incorrect notional note in proof 1');\n\n  }\n\n  function _processInterestWithdrawal(\n    bytes calldata _proof2,\n    bytes calldata _proof1OutputNotes,\n    LoanVariables storage _loanVariables\n  ) external returns (bytes32 newCurrentInterestBalance) {\n\n\n    (bytes memory _proof2Outputs) = ACE(_loanVariables.aceAddress).validateProof(JOIN_SPLIT_PROOF, address(this),\n                                                                                 _proof2);\n    (bytes memory _proof2InputNotes, bytes memory _proof2OutputNotes, ,) = _proof2Outputs.get(0).extractProofOutput();\n\n    require(_noteCoderToStruct(_proof2OutputNotes.get(0)).noteHash ==\n            _noteCoderToStruct(_proof1OutputNotes.get(0)).noteHash, 'withdraw note in 2 is not the same as 1');\n\n    require(_noteCoderToStruct(_proof2InputNotes.get(0)).noteHash == _loanVariables.currentInterestBalance, 'interest note in 2 is not correct');\n\n    _loanVariables.settlementToken.confidentialApprove(_noteCoderToStruct(_proof2InputNotes.get(0)).noteHash, address(this), true, '');\n\n    _loanVariables.settlementToken.confidentialTransferFrom(JOIN_SPLIT_PROOF, _proof2Outputs.get(0));\n\n    newCurrentInterestBalance = _noteCoderToStruct(_proof2OutputNotes.get(1)).noteHash;\n\n  }\n\n  function _processAdjustInterest(\n    bytes calldata _proofData,\n    LoanVariables storage _loanVariables\n  ) external returns (bytes32 newCurrentInterestBalance) {\n\n    (bytes memory _proofOutputs) = ACE(_loanVariables.aceAddress).validateProof(JOIN_SPLIT_PROOF, address(this), _proofData);\n    (bytes memory _proofInputNotes, bytes memory _proofOutputNotes, ,) = _proofOutputs.get(0).extractProofOutput();\n    require(_noteCoderToStruct(_proofInputNotes.get(0)).noteHash == _loanVariables.currentInterestBalance, 'interest note does not match input note');\n\n    require(_noteCoderToStruct(_proofOutputNotes.get(1)).owner == address(this), 'output note not owned by contract');\n\n    _loanVariables.settlementToken.confidentialApprove(_noteCoderToStruct(_proofInputNotes.get(0)).noteHash, address(this), true, '');\n\n    _loanVariables.settlementToken.confidentialTransferFrom(JOIN_SPLIT_PROOF, _proofOutputs.get(0));\n    newCurrentInterestBalance = _noteCoderToStruct(_proofOutputNotes.get(1)).noteHash;\n\n  }\n\n  function _processLoanSettlement(\n    bytes calldata _proofData,\n    LoanVariables storage _loanVariables\n  ) external {\n    (bytes memory _proofOutputs) = ACE(_loanVariables.aceAddress).validateProof(65794, address(this), _proofData);\n    (bytes memory _loanProofOutputs) = _proofOutputs.get(0);\n    (bytes memory _settlementProofOutputs) = _proofOutputs.get(1);\n\n    _loanVariables.settlementToken.confidentialTransferFrom(BILATERAL_SWAP_PROOF, _settlementProofOutputs);\n\n    IZkAsset(_loanVariables.id).confidentialTransferFrom(BILATERAL_SWAP_PROOF, _loanProofOutputs);\n  }\n\n  function _processLoanRepayment(\n    bytes calldata _proof2,\n    bytes calldata _proof1OutputNotes,\n    LoanVariables storage _loanVariables\n  ) external {\n      \n    (bytes memory _proof2Outputs) = ACE(_loanVariables.aceAddress).validateProof(JOIN_SPLIT_PROOF, address(this),\n                                                                                 _proof2);\n    (bytes memory _proof2InputNotes, bytes memory _proof2OutputNotes, ,) = _proof2Outputs.get(0).extractProofOutput();\n\n    // require(_noteCoderToStruct(_proof2InputNotes.get(1)).noteHash ==\n    //         _noteCoderToStruct(_proof1OutputNotes.get(0)).noteHash, 'withdraw note in 2 is not the same as  1');\n\n    // require(_noteCoderToStruct(_proof2InputNotes.get(0)).noteHash == _loanVariables.notional, 'notional in 2 is not the same as 1');\n\n    require(_noteCoderToStruct(_proof2OutputNotes.get(0)).owner == _loanVariables.lender, 'output note is not owned by the lender');\n    require(_noteCoderToStruct(_proof2OutputNotes.get(1)).owner == _loanVariables.lender, 'output note is not owned by the lender');\n\n    _loanVariables.settlementToken.confidentialApprove(_noteCoderToStruct(_proof2InputNotes.get(0)).noteHash, address(this), true, '');\n    // the first note is the current interest note\n\n    _loanVariables.settlementToken.confidentialTransferFrom(JOIN_SPLIT_PROOF, _proof2Outputs.get(0));\n\n\n\n  }\n\n       \n}\n",
  "sourcePath": "/Users/patricio/workspace/research/privacy/aztec/loan-dapp/contracts/LoanUtilities.sol",
  "compiler": {
    "name": "solc",
    "version": "0.5.4+commit.9549d8ff.Emscripten.clang"
  },
  "schemaVersion": "3.0.9",
  "updatedAt": "2021-09-17T18:03:48.332Z",
  "devdoc": {
    "methods": {}
  },
  "userdoc": {
    "methods": {}
  }
}