{
  "contractName": "TestAdjustSupply",
  "abi": [
    {
      "constant": true,
      "inputs": [],
      "name": "EIP712_DOMAIN_HASH",
      "outputs": [
        {
          "name": "",
          "type": "bytes32"
        }
      ],
      "payable": false,
      "stateMutability": "view",
      "type": "function"
    },
    {
      "payable": true,
      "stateMutability": "payable",
      "type": "fallback"
    }
  ],
  "bytecode": "0x7f454950373132446f6d61696e280000000000000000000000000000000000000060a09081527f737472696e67206e616d652c000000000000000000000000000000000000000060ad527f737472696e672076657273696f6e2c000000000000000000000000000000000060b9527f6164647265737320766572696679696e67436f6e74726163740000000000000060c8527f290000000000000000000000000000000000000000000000000000000000000060e152604260808181529120601960e2527f415a5445435f43525950544f4752415048595f454e47494e4500000000000000610102526001610122527f3100000000000000000000000000000000000000000000000000000000000000610142526101829081527fc8066e2c715ce196630b273cd256d8959d5b9fefc55e9e6d999fb0f08bb7f75f6101a2527fc89efdaa54c0f20c7adf612882df0950f5a951637e0307cdcb4c672f298b8bc66101c252306101e25261016282905261020260405220600055610853806101876000396000f3fe60806040526004361061001e5760003560e01c8063e306f77914610564575b61002661002b565b61029e565b60443560805260643560a0526101443561010401600181357f30644e72e131a029b85045b68181585d2833e84879b9709143e1f593f00000018061012435068284111561007e5761019460005260206000fd5b828414156100925761019460005260206000fd5b60006024356102a05260006102c052846102e0526100b08487610523565b608084026103000160005b858110156102615760c0810260208901016000602082013586896001860114600181146100ed5780156100f5576100fa565b8793506100fa565b843593505b50610106828486610474565b8a60018601116001811461011f57801561014c57610153565b89848b038908975089600051068a81860994508a81850993508a818b099250602060002060005250610153565b8984890897505b5060406080850160e037604080850160203780890361012052826060528160c05260406101a0606060e060075afa60406101206060602060075afa1660406101606060608060075afa166040610160608061012060065afa16604087608061016060065afa16858c141561020157602051610260526040516102805260e0516101e052610100517f30644e72e131a029b85045b68181585d97816a916871ca8d3c208c16d87cfd4703610200525b8b86111561023a578160605260406102206060602060075afa166040610260608061022060065afa1660406101e060806101a060065afa165b80151561024d5761019060005260206000fd5b5050506040939093019250506001016100bb565b50848610156102745761027460846102a3565b61029f1981016102a0208490068381146102945761019460005260206000fd5b5050505050505050565b61046f565b7f30644e72e131a029b85045b68181585d97816a916871ca8d3c208c16d87cfd4781356020830135604084013560608501357f090689d0585ff075ec9e99ad690c3395bc4b313370b38ef355acdadcd122975b81147f12c85ea5db8c6deb4aab71808dcb408fe3d1e7690c43d37b4ce6cc0166fa7daa83147f198e9393920d483a7260bfb731fb5d25f1aa493335a9e71297e485b7aef312c285147f1800deef121f1e76426a00665e5c4479674322d4f75edadd46debd5cd992f6ed87148415861588158a1517171717171717156103815761019060005260206000fd5b6101e051602052610200516040527f1800deef121f1e76426a00665e5c4479674322d4f75edadd46debd5cd992f6ed6080527f198e9393920d483a7260bfb731fb5d25f1aa493335a9e71297e485b7aef312c26060527f12c85ea5db8c6deb4aab71808dcb408fe3d1e7690c43d37b4ce6cc0166fa7daa60c0527f090689d0585ff075ec9e99ad690c3395bc4b313370b38ef355acdadcd122975b60a0526102605160e05261028051610100528361014052826101205281610180528061016052602080610180602060085afa60205115811517156104665761019060005260206000fd5b50505050505050565b61051e565b7f30644e72e131a029b85045b68181585d2833e84879b9709143e1f593f00000017f30644e72e131a029b85045b68181585d97816a916871ca8d3c208c16d87cfd4760408301356060840135608085013560a086013584838409856003878789898a090908148582830986600388868a888909090814166001891189888b06141660018b118b898d061416161615156105135761019060005260206000fd5b505050505050505050565b61055a565b60005b8281101561054c57606060c0820283010160808160808402610300013750600101610526565b505060800261030020600052565b61056261058b565b005b34801561057057600080fd5b50610579610821565b60408051918252519081900360200190f35b61014435610104018035610164356101240161018435610124016101a4356101440160026101a05260806101c05260c061022052600061026052600061028052610124356102a05260016102e0526060610300528035604082038101356001600052608061012088016020378060c0016103205260016103405283356103605260a060002061038052806040016103a05260016040511660ff1b602051176103c05260016080511660ff1b606051176103e052806020840383016104003780610200016102405280610120016102c0526101208161040001526001816104200152606081610440015260806060880160203760c081610460015260018161048001528435816104a0015260a0600020816104c001526040816104e0015260016040511660ff1b6020511781610500015260016080511660ff1b6060511781610520015260608161044001528061054001816103200161020052816103c0016101e0528060c0602082015261010060408201526000606082015260006080820152610124356020526020802060a0820152602060c0820152600060e0820152610100810160028903602082015260028903602002610140830101915060025b898110156107f6576020600182030287013595508560408803013594506001600052608060c0820260608d01016020378460c00183526001602084015260206001820302880135604084015260a0600020606084015284604001608084015260016040511660ff1b6020511760a084015260016080511660ff1b6060511760c08401528460208803870160e085013781830360208202830152602083510183019250600181019050610749565b5060208183030381528282036020810384526101a08303610180526020610160526101608303610160f35b6000548156fea165627a7a72305820f551b9811676ace3357495fef7f4bda7d459740112f97b356dc37415281a12360029",
  "source": "\npragma solidity >= 0.5.0 <0.7.0;\n\n\nimport \"@aztec/protocol/contracts/ACE/validators/adjustSupply/AdjustSupply.sol\";\nimport \"@aztec/protocol/contracts/ACE/validators/bilateralSwap/BilateralSwap.sol\";\nimport \"@aztec/protocol/contracts/ACE/validators/joinSplit/JoinSplit.sol\";\nimport \"@aztec/protocol/contracts/ACE/validators/dividendComputation/DividendComputation.sol\";\nimport \"@aztec/protocol/contracts/ACE/validators/privateRange/PrivateRange.sol\";\n\ncontract TestPrivateRange is PrivateRange {\n\n}\n\ncontract TestAdjustSupply is AdjustSupply {\n\n}\ncontract TestBilateralSwap is BilateralSwap {\n\n}\ncontract TestJoinSplit is JoinSplit {\n\n}\n\ncontract TestDividendComputation is DividendComputation {\n\n}\n",
  "sourcePath": "/Users/patricio/workspace/research/privacy/aztec/loan-dapp/contracts/TestAdjustSupply.sol",
  "compiler": {
    "name": "solc",
    "version": "0.5.4+commit.9549d8ff.Emscripten.clang"
  },
  "schemaVersion": "3.0.9",
  "updatedAt": "2021-09-17T17:40:15.174Z",
  "devdoc": {
    "methods": {}
  },
  "userdoc": {
    "methods": {}
  }
}