{
  "contractName": "ZkAssetOwnable",
  "abi": [
    {
      "constant": true,
      "inputs": [],
      "name": "JOIN_SPLIT_PROOF",
      "outputs": [
        {
          "name": "",
          "type": "uint24"
        }
      ],
      "payable": false,
      "stateMutability": "view",
      "type": "function"
    },
    {
      "constant": true,
      "inputs": [],
      "name": "ZERO_VALUE_NOTE_HASH",
      "outputs": [
        {
          "name": "",
          "type": "bytes32"
        }
      ],
      "payable": false,
      "stateMutability": "view",
      "type": "function"
    },
    {
      "constant": true,
      "inputs": [
        {
          "name": "",
          "type": "bytes32"
        },
        {
          "name": "",
          "type": "address"
        }
      ],
      "name": "confidentialApproved",
      "outputs": [
        {
          "name": "",
          "type": "bool"
        }
      ],
      "payable": false,
      "stateMutability": "view",
      "type": "function"
    },
    {
      "constant": false,
      "inputs": [
        {
          "name": "_noteHash",
          "type": "bytes32"
        },
        {
          "name": "_spender",
          "type": "address"
        },
        {
          "name": "_status",
          "type": "bool"
        },
        {
          "name": "_signature",
          "type": "bytes"
        }
      ],
      "name": "confidentialApprove",
      "outputs": [],
      "payable": false,
      "stateMutability": "nonpayable",
      "type": "function"
    },
    {
      "constant": true,
      "inputs": [],
      "name": "PRIVATE_RANGE_PROOF",
      "outputs": [
        {
          "name": "",
          "type": "uint24"
        }
      ],
      "payable": false,
      "stateMutability": "view",
      "type": "function"
    },
    {
      "constant": true,
      "inputs": [],
      "name": "flags",
      "outputs": [
        {
          "name": "active",
          "type": "bool"
        },
        {
          "name": "canAdjustSupply",
          "type": "bool"
        },
        {
          "name": "canConvert",
          "type": "bool"
        }
      ],
      "payable": false,
      "stateMutability": "view",
      "type": "function"
    },
    {
      "constant": true,
      "inputs": [
        {
          "name": "",
          "type": "uint8"
        }
      ],
      "name": "proofs",
      "outputs": [
        {
          "name": "",
          "type": "uint256"
        }
      ],
      "payable": false,
      "stateMutability": "view",
      "type": "function"
    },
    {
      "constant": true,
      "inputs": [],
      "name": "DIVIDEND_PROOF",
      "outputs": [
        {
          "name": "",
          "type": "uint24"
        }
      ],
      "payable": false,
      "stateMutability": "view",
      "type": "function"
    },
    {
      "constant": true,
      "inputs": [],
      "name": "owner",
      "outputs": [
        {
          "name": "",
          "type": "address"
        }
      ],
      "payable": false,
      "stateMutability": "view",
      "type": "function"
    },
    {
      "constant": true,
      "inputs": [],
      "name": "MINT_PROOF",
      "outputs": [
        {
          "name": "",
          "type": "uint24"
        }
      ],
      "payable": false,
      "stateMutability": "view",
      "type": "function"
    },
    {
      "constant": false,
      "inputs": [
        {
          "name": "_proofData",
          "type": "bytes"
        },
        {
          "name": "_signatures",
          "type": "bytes"
        }
      ],
      "name": "confidentialTransfer",
      "outputs": [],
      "payable": false,
      "stateMutability": "nonpayable",
      "type": "function"
    },
    {
      "constant": true,
      "inputs": [],
      "name": "ace",
      "outputs": [
        {
          "name": "",
          "type": "address"
        }
      ],
      "payable": false,
      "stateMutability": "view",
      "type": "function"
    },
    {
      "constant": true,
      "inputs": [],
      "name": "BURN_PROOF",
      "outputs": [
        {
          "name": "",
          "type": "uint24"
        }
      ],
      "payable": false,
      "stateMutability": "view",
      "type": "function"
    },
    {
      "constant": true,
      "inputs": [],
      "name": "EIP712_DOMAIN_HASH",
      "outputs": [
        {
          "name": "",
          "type": "bytes32"
        }
      ],
      "payable": false,
      "stateMutability": "view",
      "type": "function"
    },
    {
      "constant": true,
      "inputs": [],
      "name": "linkedToken",
      "outputs": [
        {
          "name": "",
          "type": "address"
        }
      ],
      "payable": false,
      "stateMutability": "view",
      "type": "function"
    },
    {
      "constant": true,
      "inputs": [],
      "name": "scalingFactor",
      "outputs": [
        {
          "name": "",
          "type": "uint256"
        }
      ],
      "payable": false,
      "stateMutability": "view",
      "type": "function"
    },
    {
      "inputs": [
        {
          "name": "_aceAddress",
          "type": "address"
        },
        {
          "name": "_linkedTokenAddress",
          "type": "address"
        },
        {
          "name": "_scalingFactor",
          "type": "uint256"
        },
        {
          "name": "_canAdjustSupply",
          "type": "bool"
        },
        {
          "name": "_canConvert",
          "type": "bool"
        }
      ],
      "payable": false,
      "stateMutability": "nonpayable",
      "type": "constructor"
    },
    {
      "anonymous": false,
      "inputs": [
        {
          "indexed": true,
          "name": "aceAddress",
          "type": "address"
        },
        {
          "indexed": true,
          "name": "linkedTokenAddress",
          "type": "address"
        },
        {
          "indexed": false,
          "name": "scalingFactor",
          "type": "uint256"
        },
        {
          "indexed": true,
          "name": "_canAdjustSupply",
          "type": "bool"
        },
        {
          "indexed": false,
          "name": "_canConvert",
          "type": "bool"
        }
      ],
      "name": "CreateZkAsset",
      "type": "event"
    },
    {
      "anonymous": false,
      "inputs": [
        {
          "indexed": false,
          "name": "noteRegistryId",
          "type": "uint256"
        }
      ],
      "name": "CreateNoteRegistry",
      "type": "event"
    },
    {
      "anonymous": false,
      "inputs": [
        {
          "indexed": true,
          "name": "owner",
          "type": "address"
        },
        {
          "indexed": true,
          "name": "noteHash",
          "type": "bytes32"
        },
        {
          "indexed": false,
          "name": "metadata",
          "type": "bytes"
        }
      ],
      "name": "CreateNote",
      "type": "event"
    },
    {
      "anonymous": false,
      "inputs": [
        {
          "indexed": true,
          "name": "owner",
          "type": "address"
        },
        {
          "indexed": true,
          "name": "noteHash",
          "type": "bytes32"
        },
        {
          "indexed": false,
          "name": "metadata",
          "type": "bytes"
        }
      ],
      "name": "DestroyNote",
      "type": "event"
    },
    {
      "anonymous": false,
      "inputs": [
        {
          "indexed": true,
          "name": "owner",
          "type": "address"
        },
        {
          "indexed": false,
          "name": "value",
          "type": "uint256"
        }
      ],
      "name": "ConvertTokens",
      "type": "event"
    },
    {
      "anonymous": false,
      "inputs": [
        {
          "indexed": true,
          "name": "owner",
          "type": "address"
        },
        {
          "indexed": false,
          "name": "value",
          "type": "uint256"
        }
      ],
      "name": "RedeemTokens",
      "type": "event"
    },
    {
      "constant": false,
      "inputs": [
        {
          "name": "_epoch",
          "type": "uint8"
        },
        {
          "name": "_proofs",
          "type": "uint256"
        }
      ],
      "name": "setProofs",
      "outputs": [],
      "payable": false,
      "stateMutability": "nonpayable",
      "type": "function"
    },
    {
      "constant": false,
      "inputs": [
        {
          "name": "_proof",
          "type": "uint24"
        },
        {
          "name": "_proofOutput",
          "type": "bytes"
        }
      ],
      "name": "confidentialTransferFrom",
      "outputs": [],
      "payable": false,
      "stateMutability": "nonpayable",
      "type": "function"
    },
    {
      "constant": true,
      "inputs": [
        {
          "name": "_proof",
          "type": "uint24"
        }
      ],
      "name": "supportsProof",
      "outputs": [
        {
          "name": "",
          "type": "bool"
        }
      ],
      "payable": false,
      "stateMutability": "view",
      "type": "function"
    }
  ],
  "bytecode": "0x608060405234801561001057600080fd5b5060405160a080611dec833981018060405260a081101561003057600080fd5b810190808051906020019092919080519060200190929190805190602001909291908051906020019092919080519060200190929190505050848484848460405160200180807f454950373132446f6d61696e2800000000000000000000000000000000000000815250600d01807f737472696e67206e616d652c0000000000000000000000000000000000000000815250600c01807f737472696e672076657273696f6e2c0000000000000000000000000000000000815250600f01807f6164647265737320766572696679696e67436f6e747261637400000000000000815250601901807f29000000000000000000000000000000000000000000000000000000000000008152506001019050604051602081830303815290604052805190602001206040805190810160405280601981526020017f415a5445435f43525950544f4752415048595f454e47494e4500000000000000815250805190602001206040805190810160405280600181526020017f310000000000000000000000000000000000000000000000000000000000000081525080519060200120306040516020018085815260200184815260200183815260200182600160a060020a0316600160a060020a031681526020019450505050506040516020818303038152906040528051906020012060008190555060405160200180807f454950373132446f6d61696e2800000000000000000000000000000000000000815250600d01807f737472696e67206e616d652c0000000000000000000000000000000000000000815250600c01807f737472696e672076657273696f6e2c0000000000000000000000000000000000815250600f01807f6164647265737320766572696679696e67436f6e747261637400000000000000815250601901807f29000000000000000000000000000000000000000000000000000000000000008152506001019050604051602081830303815290604052805190602001206040805190810160405280600881526020017f5a4b5f4153534554000000000000000000000000000000000000000000000000815250805190602001206040805190810160405280600181526020017f31000000000000000000000000000000000000000000000000000000000000008152508051906020012030600160a060020a031660001b604051602001808581526020018481526020018381526020018281526020019450505050506040516020818303038152906040528051906020012060008190555060606040519081016040528060011515815260200160001515815260200160011515815250600360008201518160000160006101000a81548160ff02191690831515021790555060208201518160000160016101000a81548160ff02191690831515021790555060408201518160000160026101000a81548160ff02191690831515021790555090505084600160006101000a815481600160a060020a030219169083600160a060020a0316021790555083600260006101000a815481600160a060020a030219169083600160a060020a0316021790555082600481905550600160009054906101000a9004600160a060020a0316600160a060020a031663a5468ca2858585856040518563ffffffff1660e01b81526004018085600160a060020a0316600160a060020a031681526020018481526020018315151515815260200182151515158152602001945050505050600060405180830381600087803b15801561053e57600080fd5b505af1158015610552573d6000803e3d6000fd5b505060408051868152841515602082015281518615159450600160a060020a03808a1694508a16927fca576e79bcb5c4a0045d9d596a80c733c3997559f688f69e5c03bd737d885b86928290030190a4505060068054600160a060020a03191633179055505050505050505061181f806105cd6000396000f3fe608060405234801561001057600080fd5b50600436106101205760003560e01c80638500e1f8116100ad578063cdfea90e11610071578063cdfea90e14610468578063df9246251461051a578063e306f77914610522578063ea12489f1461052a578063ed3437f81461053257610120565b80638500e1f8146102ff5780638da5cb5b146103075780638e526d9b1461032b5780639698849814610333578063a5c8fa841461046057610120565b806349518b28116100f457806349518b281461026557806364cc4aa51461026d578063764481181461029757806376ae6bee146102b75780637f08dede146102dd57610120565b80625bf7321461012557806307616051146101455780630f4a80fe1461015f5780631f2ac16a1461019f575b600080fd5b61012d61053a565b6040805162ffffff9092168252519081900360200190f35b61014d610541565b60408051918252519081900360200190f35b61018b6004803603604081101561017557600080fd5b5080359060200135600160a060020a0316610565565b604080519115158252519081900360200190f35b610263600480360360808110156101b557600080fd5b813591600160a060020a03602082013516916040820135151591908101906080810160608201356401000000008111156101ee57600080fd5b82018360208201111561020057600080fd5b8035906020019184600183028401116401000000008311171561022257600080fd5b91908080601f016020809104026020016040519081016040528093929190818152602001838380828437600092019190915250929550610585945050505050565b005b61012d6107c6565b6102756107cd565b6040805193151584529115156020840152151582820152519081900360600190f35b61014d600480360360208110156102ad57600080fd5b503560ff166107e9565b610263600480360360408110156102cd57600080fd5b5060ff81351690602001356107fb565b61018b600480360360208110156102f357600080fd5b503562ffffff16610862565b61012d610906565b61030f61090d565b60408051600160a060020a039092168252519081900360200190f35b61012d61091c565b6102636004803603604081101561034957600080fd5b81019060208101813564010000000081111561036457600080fd5b82018360208201111561037657600080fd5b8035906020019184600183028401116401000000008311171561039857600080fd5b91908080601f01602080910402602001604051908101604052809392919081815260200183838082843760009201919091525092959493602081019350359150506401000000008111156103eb57600080fd5b8201836020820111156103fd57600080fd5b8035906020019184600183028401116401000000008311171561041f57600080fd5b91908080601f016020809104026020016040519081016040528093929190818152602001838380828437600092019190915250929550610923945050505050565b61030f610a9a565b6102636004803603604081101561047e57600080fd5b62ffffff82351691908101906040810160208201356401000000008111156104a557600080fd5b8201836020820111156104b757600080fd5b803590602001918460018302840111640100000000831117156104d957600080fd5b91908080601f016020809104026020016040519081016040528093929190818152602001838380828437600092019190915250929550610aa9945050505050565b61012d610b1f565b61014d610b26565b61030f610b2c565b61014d610b3b565b6201010181565b7fcbc417524e52b95c42a4c42d357938497e3d199eb9b4a0139c92551d4000bc3c81565b600560209081526000928352604080842090915290825290205460ff1681565b600154604080517ffedee266000000000000000000000000000000000000000000000000000000008152306004820152602481018790529051600092600160a060020a03169163fedee266916044808301926080929190829003018186803b1580156105f057600080fd5b505afa158015610604573d6000803e3d6000fd5b505050506040513d608081101561061a57600080fd5b50519050600160ff8216146106685760405160008051602061173583398151915281526004018080602001828103825260228152602001806116eb6022913960400191505060405180910390fd5b604080517f4e6f74655369676e6174757265280000000000000000000000000000000000006020808301919091527f62797465733332206e6f7465486173682c000000000000000000000000000000602e8301527f61646472657373207370656e6465722c00000000000000000000000000000000603f8301527f626f6f6c20737461747573000000000000000000000000000000000000000000604f8301527f2900000000000000000000000000000000000000000000000000000000000000605a8301528251603b818403018152605b83018452805190820120607b830152609b8201889052600160a060020a03871660bb83015260ff841660db808401919091528351808403909101815260fb909201909252805191012061078e818785610b41565b5050506000928352600560209081526040808520600160a060020a039490941685529290529120805460ff1916911515919091179055565b6201040281565b60035460ff808216916101008104821691620100009091041683565b60076020526000908152604090205481565b600654600160a060020a0316331461084c5760405160008051602061173583398151915281526004018080602001828103825260278152602001806117556027913960400191505060405180910390fd5b60ff909116600090815260076020526040902055565b6000806000806108768562ffffff16610c63565b9194509250905060ff82166001146108c75760405160008051602061173583398151915281526004018080602001828103825260288152602001806116c36028913960400191505060405180910390fd5b60006108dd60ff8316600163ffffffff610c7d16565b60ff94851660009081526007602052604090205494169390931c60019081161495945050505050565b6201040181565b600654600160a060020a031681565b6201020181565b6001546040517fa2866ea3000000000000000000000000000000000000000000000000000000008152620101016004820181815233602484018190526060604485018181528851606487015288519196600160a060020a03169563a2866ea395948a9390929160840190602085019080838360005b838110156109b0578181015183820152602001610998565b50505050905090810190601f1680156109dd5780820380516001836020036101000a031916815260200191505b50945050505050600060405180830381600087803b1580156109fe57600080fd5b505af1158015610a12573d6000803e3d6000fd5b505050506040513d6000823e601f3d908101601f191682016040526020811015610a3b57600080fd5b810190808051640100000000811115610a5357600080fd5b82016020810184811115610a6657600080fd5b8151640100000000811182820187101715610a8057600080fd5b50509291905050509050610a95818385610cd2565b505050565b600154600160a060020a031681565b6000610ab483610862565b9050600181151514610b155760408051600080516020611735833981519152815260206004820152601e60248201527f65787065637465642070726f6f6620746f20626520737570706f727465640000604482015290519081900360640190fd5b610a958383611070565b6201030181565b60005481565b600254600160a060020a031681565b60045481565b600154604080517ffedee266000000000000000000000000000000000000000000000000000000008152306004820152602481018590529051600092600160a060020a03169163fedee266916044808301926080929190829003018186803b158015610bac57600080fd5b505afa158015610bc0573d6000803e3d6000fd5b505050506040513d6080811015610bd657600080fd5b5060600151825190915060009015610c07576000610bf3866112d3565b9050610bff81856112f4565b915050610c0a565b50335b600160a060020a0381811690831614610c5c57604051600080516020611735833981519152815260040180806020018281038252602881526020018061170d6028913960400191505060405180910390fd5b5050505050565b60ff62010000820481169261010083048216929190911690565b600060ff8084169083161115610ccc5760405160008051602061173583398151915281526004018080602001828103825260258152602001806117ad6025913960400191505060405180910390fd5b50900390565b604081015160005b610ce385611418565b811015610c5c576060610cfc868363ffffffff61141f16565b6001546040517f977796d200000000000000000000000000000000000000000000000000000000815262010101600482018181523060448401819052606060248501908152865160648601528651969750600160a060020a039095169563977796d2959394889492939291608490910190602086019080838360005b83811015610d90578181015183820152602001610d78565b50505050905090810190601f168015610dbd5780820380516001836020036101000a031916815260200191505b50945050505050600060405180830381600087803b158015610dde57600080fd5b505af1158015610df2573d6000803e3d6000fd5b50505050606080600080610e0585611477565b93509350935093506000610e1885611418565b1115610fb75760005b610e2a85611418565b811015610fb5576060610e3d8b836114a1565b90506000610e59610e54888563ffffffff61141f16565b6114e0565b50604080517f4a6f696e53706c69745369676e617475726528000000000000000000000000006020808301919091527f75696e7432342070726f6f662c0000000000000000000000000000000000000060338301527f62797465733332206e6f7465486173682c000000000000000000000000000000828401527f75696e74323536206368616c6c656e67652c000000000000000000000000000060518301527f616464726573732073656e64657200000000000000000000000000000000000060638301527f290000000000000000000000000000000000000000000000000000000000000060718301528251605281840301815260728301845280519082012060928301526201010160b283015260d2820184905260f282018f905233610112808401919091528351808403909101815261013290920190925280519101209092509050610faa818385610b41565b505050600101610e21565b505b610fc0846114fe565b610fc9836115e2565b60008112156110175781600160a060020a03167ffed3b27b73d78d9d1f344bbbf25f7af35e0ac4d6cf8193604ce18082168e461a826000036040518082815260200191505060405180910390a25b600081131561106057604080518281529051600160a060020a038416917f60213c45c34d8b94e495fd5871fdea7a7511f659e884ea25a0c8843b7f98bfad919081900360200190a25b5050505050600181019050610cda565b60608060008061107f85611477565b9350935093509350600061109285611418565b905060005b818110156111285760006110b4610e54888463ffffffff61141f16565b50600081815260056020908152604080832033845290915290205490925060ff161515600114905061111f57604051600080516020611735833981519152815260040180806020018281038252603181526020018061177c6031913960400191505060405180910390fd5b50600101611097565b506001546040517f977796d200000000000000000000000000000000000000000000000000000000815262ffffff89166004820190815233604483018190526060602484019081528a5160648501528a51600160a060020a039095169463977796d2948d948d94939092909160840190602086019080838360005b838110156111bb5781810151838201526020016111a3565b50505050905090810190601f1680156111e85780820380516001836020036101000a031916815260200191505b50945050505050600060405180830381600087803b15801561120957600080fd5b505af115801561121d573d6000803e3d6000fd5b5050505061122a856114fe565b611233846115e2565b60008212156112815782600160a060020a03167ffed3b27b73d78d9d1f344bbbf25f7af35e0ac4d6cf8193604ce18082168e461a836000036040518082815260200191505060405180910390a25b60008213156112ca57604080518381529051600160a060020a038516917f60213c45c34d8b94e495fd5871fdea7a7511f659e884ea25a0c8843b7f98bfad919081900360200190a25b50505050505050565b60008054604080516119019093526020919091529182526042601e20915290565b6000808251848452602084015160208560808760015afa601c8214601b8314176060841416169250845186146000811461132d57611332565b855194505b5050835280801561134a5750600160a060020a038216155b151561141157600160a060020a03821615156113b55760408051600080516020611735833981519152815260206004820152601a60248201527f7369676e657220616464726573732063616e6e6f742062652030000000000000604482015290519081900360640190fd5b8015156114115760408051600080516020611735833981519152815260206004820152601960248201527f7369676e6174757265207265636f76657279206661696c656400000000000000604482015290519081900360640190fd5b5092915050565b6020015190565b6020828101519082028301604001518301908210806114115760405160008051602061173583398151915281526004018080602001828103825260228152602001806117d26022913960400191505060405180910390fd5b6020810151604082015160608301516080840151928401949190930192600160a060020a03169190565b60609081029190910160208181015160408084015193850151815193840192909252828101939093528184015281518082039093018352608001905290565b60408101516060820151600160a060020a0390911692909160800190565b60005b61150a82611418565b8110156115de576000806060611529610e54868663ffffffff61141f16565b9250925092508183600160a060020a03167febd4bb7b61198df63305dd538f077db9df9b14339d8a6221e301487770d79227836040518080602001828103825283818151815260200191508051906020019080838360005b83811015611599578181015183820152602001611581565b50505050905090810190601f1680156115c65780820380516001836020036101000a031916815260200191505b509250505060405180910390a3505050600101611501565b5050565b60005b6115ee82611418565b8110156115de57600080606061160d610e54868663ffffffff61141f16565b9250925092508183600160a060020a03167f5ffb3072e4515cf3bfae8b16be9dff6313cf7c313a0c26faafe6971d8c7585f1836040518080602001828103825283818151815260200191508051906020019080838360005b8381101561167d578181015183820152602001611665565b50505050905090810190601f1680156116aa5780820380516001836020036101000a031916815260200191505b509250505060405180910390a35050506001016115e556fe74686973206173736574206f6e6c7920737570706f7274732062616c616e6365642070726f6f66736f6e6c7920756e7370656e74206e6f7465732063616e20626520617070726f766564746865206e6f7465206f776e657220646964206e6f74207369676e2074686973206d65737361676508c379a0000000000000000000000000000000000000000000000000000000006f6e6c7920746865206f776e65722063616e20736574207468652065706f63682070726f6f667373656e64657220646f6573206e6f74206861766520617070726f76616c20746f207370656e6420696e707574206e6f746575696e7438207375622074726967676572656420696e746567657220756e646572666c6f77415a54454320617272617920696e646578206973206f7574206f6620626f756e6473a165627a7a72305820465b9839b5abbaac909e13c430a715a7fc2ea639ac578fbf29674d6d96cf8c6d0029",
  "source": "pragma solidity >=0.5.0 <0.6.0;\n\nimport \"./ZkAsset.sol\";\nimport \"../libs/ProofUtils.sol\";\nimport \"../libs/SafeMath8.sol\";\n\n/**\n * @title ZkAssetOwnable\n * @author AZTEC\n * @dev A contract which inherits from ZkAsset and includes the definition\n * of the contract owner\n * Copyright Spilbury Holdings Ltd 2019. All rights reserved.\n **/\n\ncontract ZkAssetOwnable is ZkAsset {\n    using ProofUtils for uint24;\n    using SafeMath8 for uint8;\n    \n    address public owner;\n    mapping(uint8 => uint256) public proofs;\n\n    constructor(\n        address _aceAddress,\n        address _linkedTokenAddress,\n        uint256 _scalingFactor,\n        bool _canAdjustSupply,\n        bool _canConvert\n    ) public ZkAsset(\n        _aceAddress,\n        _linkedTokenAddress,\n        _scalingFactor,\n        _canAdjustSupply,\n        _canConvert\n    ) {\n        owner = msg.sender;\n    }\n\n    function setProofs(\n        uint8 _epoch,\n        uint256 _proofs\n    ) external {\n        require(msg.sender == owner, \"only the owner can set the epoch proofs\");\n        proofs[_epoch] = _proofs;\n    }\n\n    function confidentialTransferFrom(uint24 _proof, bytes memory _proofOutput) public {\n        bool result = supportsProof(_proof);\n        require(result == true, \"expected proof to be supported\");\n        super.confidentialTransferFrom(_proof, _proofOutput);\n    }\n\n    // @dev Return whether the proof is supported or not by this asset. Note that we have\n    //      to subtract 1 from the proof id because the original representation is uint8,\n    //      but here that id is considered to be an exponent\n    function supportsProof(uint24 _proof) public view returns (bool) {\n        (uint8 epoch, uint8 category, uint8 id) = _proof.getProofComponents();\n        require(category == uint8(ProofCategory.BALANCED), \"this asset only supports balanced proofs\");\n        uint8 bit = uint8(proofs[epoch] >> (id.sub(1)) & 1);\n        return bit == 1;\n    }\n}\n",
  "sourcePath": "@aztec/protocol/contracts/ERC1724/ZkAssetOwnable.sol",
  "compiler": {
    "name": "solc",
    "version": "0.5.4+commit.9549d8ff.Emscripten.clang"
  },
  "schemaVersion": "3.0.9",
  "updatedAt": "2021-09-17T17:40:15.201Z",
  "devdoc": {
    "author": "AZTEC",
    "details": "A contract which inherits from ZkAsset and includes the definition of the contract owner Copyright Spilbury Holdings Ltd 2019. All rights reserved.*",
    "methods": {
      "confidentialApprove(bytes32,address,bool,bytes)": {
        "details": "Note owner approving a third party, another address, to spend the note on  owner's behalf. This is necessary to allow the confidentialTransferFrom() method to be called ",
        "params": {
          "_noteHash": "- keccak256 hash of the note coordinates (gamma and sigma)",
          "_signature": "- ECDSA signature from the note owner that validates the confidentialApprove() instruction   ",
          "_spender": "- address being approved to spend the note",
          "_status": "- defines whether the _spender address is being approved to spend the  note, or if permission is being revoked"
        }
      },
      "confidentialTransfer(bytes,bytes)": {
        "details": "Executes a basic unilateral, confidential transfer of AZTEC notes  Will submit _proofData to the validateProof() function of the Cryptography Engine.     * Upon successfull verification, it will update note registry state - creating output notes and  destroying input notes. ",
        "params": {
          "_proofData": "- bytes array outputted from a proof verification contract, representing  transfer instructions for the ACE ",
          "_signatures": "- array of the ECDSA signatures over all inputNotes "
        }
      }
    },
    "title": "ZkAssetOwnable"
  },
  "userdoc": {
    "methods": {}
  }
}