{
  "contractName": "ZkAssetMintable",
  "abi": [
    {
      "constant": true,
      "inputs": [],
      "name": "JOIN_SPLIT_PROOF",
      "outputs": [
        {
          "name": "",
          "type": "uint24"
        }
      ],
      "payable": false,
      "stateMutability": "view",
      "type": "function"
    },
    {
      "constant": true,
      "inputs": [],
      "name": "ZERO_VALUE_NOTE_HASH",
      "outputs": [
        {
          "name": "",
          "type": "bytes32"
        }
      ],
      "payable": false,
      "stateMutability": "view",
      "type": "function"
    },
    {
      "constant": true,
      "inputs": [
        {
          "name": "",
          "type": "bytes32"
        },
        {
          "name": "",
          "type": "address"
        }
      ],
      "name": "confidentialApproved",
      "outputs": [
        {
          "name": "",
          "type": "bool"
        }
      ],
      "payable": false,
      "stateMutability": "view",
      "type": "function"
    },
    {
      "constant": false,
      "inputs": [
        {
          "name": "_noteHash",
          "type": "bytes32"
        },
        {
          "name": "_spender",
          "type": "address"
        },
        {
          "name": "_status",
          "type": "bool"
        },
        {
          "name": "_signature",
          "type": "bytes"
        }
      ],
      "name": "confidentialApprove",
      "outputs": [],
      "payable": false,
      "stateMutability": "nonpayable",
      "type": "function"
    },
    {
      "constant": true,
      "inputs": [],
      "name": "PRIVATE_RANGE_PROOF",
      "outputs": [
        {
          "name": "",
          "type": "uint24"
        }
      ],
      "payable": false,
      "stateMutability": "view",
      "type": "function"
    },
    {
      "constant": true,
      "inputs": [],
      "name": "flags",
      "outputs": [
        {
          "name": "active",
          "type": "bool"
        },
        {
          "name": "canAdjustSupply",
          "type": "bool"
        },
        {
          "name": "canConvert",
          "type": "bool"
        }
      ],
      "payable": false,
      "stateMutability": "view",
      "type": "function"
    },
    {
      "constant": true,
      "inputs": [
        {
          "name": "",
          "type": "uint8"
        }
      ],
      "name": "proofs",
      "outputs": [
        {
          "name": "",
          "type": "uint256"
        }
      ],
      "payable": false,
      "stateMutability": "view",
      "type": "function"
    },
    {
      "constant": false,
      "inputs": [
        {
          "name": "_epoch",
          "type": "uint8"
        },
        {
          "name": "_proofs",
          "type": "uint256"
        }
      ],
      "name": "setProofs",
      "outputs": [],
      "payable": false,
      "stateMutability": "nonpayable",
      "type": "function"
    },
    {
      "constant": true,
      "inputs": [
        {
          "name": "_proof",
          "type": "uint24"
        }
      ],
      "name": "supportsProof",
      "outputs": [
        {
          "name": "",
          "type": "bool"
        }
      ],
      "payable": false,
      "stateMutability": "view",
      "type": "function"
    },
    {
      "constant": true,
      "inputs": [],
      "name": "DIVIDEND_PROOF",
      "outputs": [
        {
          "name": "",
          "type": "uint24"
        }
      ],
      "payable": false,
      "stateMutability": "view",
      "type": "function"
    },
    {
      "constant": true,
      "inputs": [],
      "name": "owner",
      "outputs": [
        {
          "name": "",
          "type": "address"
        }
      ],
      "payable": false,
      "stateMutability": "view",
      "type": "function"
    },
    {
      "constant": true,
      "inputs": [],
      "name": "MINT_PROOF",
      "outputs": [
        {
          "name": "",
          "type": "uint24"
        }
      ],
      "payable": false,
      "stateMutability": "view",
      "type": "function"
    },
    {
      "constant": true,
      "inputs": [],
      "name": "ace",
      "outputs": [
        {
          "name": "",
          "type": "address"
        }
      ],
      "payable": false,
      "stateMutability": "view",
      "type": "function"
    },
    {
      "constant": false,
      "inputs": [
        {
          "name": "_proof",
          "type": "uint24"
        },
        {
          "name": "_proofOutput",
          "type": "bytes"
        }
      ],
      "name": "confidentialTransferFrom",
      "outputs": [],
      "payable": false,
      "stateMutability": "nonpayable",
      "type": "function"
    },
    {
      "constant": true,
      "inputs": [],
      "name": "BURN_PROOF",
      "outputs": [
        {
          "name": "",
          "type": "uint24"
        }
      ],
      "payable": false,
      "stateMutability": "view",
      "type": "function"
    },
    {
      "constant": true,
      "inputs": [],
      "name": "EIP712_DOMAIN_HASH",
      "outputs": [
        {
          "name": "",
          "type": "bytes32"
        }
      ],
      "payable": false,
      "stateMutability": "view",
      "type": "function"
    },
    {
      "constant": true,
      "inputs": [],
      "name": "linkedToken",
      "outputs": [
        {
          "name": "",
          "type": "address"
        }
      ],
      "payable": false,
      "stateMutability": "view",
      "type": "function"
    },
    {
      "constant": true,
      "inputs": [],
      "name": "scalingFactor",
      "outputs": [
        {
          "name": "",
          "type": "uint256"
        }
      ],
      "payable": false,
      "stateMutability": "view",
      "type": "function"
    },
    {
      "inputs": [
        {
          "name": "_aceAddress",
          "type": "address"
        },
        {
          "name": "_linkedTokenAddress",
          "type": "address"
        },
        {
          "name": "_scalingFactor",
          "type": "uint256"
        },
        {
          "name": "_canAdjustSupply",
          "type": "bool"
        },
        {
          "name": "_canConvert",
          "type": "bool"
        }
      ],
      "payable": false,
      "stateMutability": "nonpayable",
      "type": "constructor"
    },
    {
      "anonymous": false,
      "inputs": [
        {
          "indexed": false,
          "name": "noteHash",
          "type": "bytes32"
        },
        {
          "indexed": false,
          "name": "noteData",
          "type": "bytes"
        }
      ],
      "name": "UpdateTotalMinted",
      "type": "event"
    },
    {
      "anonymous": false,
      "inputs": [
        {
          "indexed": true,
          "name": "aceAddress",
          "type": "address"
        },
        {
          "indexed": true,
          "name": "linkedTokenAddress",
          "type": "address"
        },
        {
          "indexed": false,
          "name": "scalingFactor",
          "type": "uint256"
        },
        {
          "indexed": true,
          "name": "_canAdjustSupply",
          "type": "bool"
        },
        {
          "indexed": false,
          "name": "_canConvert",
          "type": "bool"
        }
      ],
      "name": "CreateZkAsset",
      "type": "event"
    },
    {
      "anonymous": false,
      "inputs": [
        {
          "indexed": false,
          "name": "noteRegistryId",
          "type": "uint256"
        }
      ],
      "name": "CreateNoteRegistry",
      "type": "event"
    },
    {
      "anonymous": false,
      "inputs": [
        {
          "indexed": true,
          "name": "owner",
          "type": "address"
        },
        {
          "indexed": true,
          "name": "noteHash",
          "type": "bytes32"
        },
        {
          "indexed": false,
          "name": "metadata",
          "type": "bytes"
        }
      ],
      "name": "CreateNote",
      "type": "event"
    },
    {
      "anonymous": false,
      "inputs": [
        {
          "indexed": true,
          "name": "owner",
          "type": "address"
        },
        {
          "indexed": true,
          "name": "noteHash",
          "type": "bytes32"
        },
        {
          "indexed": false,
          "name": "metadata",
          "type": "bytes"
        }
      ],
      "name": "DestroyNote",
      "type": "event"
    },
    {
      "anonymous": false,
      "inputs": [
        {
          "indexed": true,
          "name": "owner",
          "type": "address"
        },
        {
          "indexed": false,
          "name": "value",
          "type": "uint256"
        }
      ],
      "name": "ConvertTokens",
      "type": "event"
    },
    {
      "anonymous": false,
      "inputs": [
        {
          "indexed": true,
          "name": "owner",
          "type": "address"
        },
        {
          "indexed": false,
          "name": "value",
          "type": "uint256"
        }
      ],
      "name": "RedeemTokens",
      "type": "event"
    },
    {
      "constant": false,
      "inputs": [
        {
          "name": "_proof",
          "type": "uint24"
        },
        {
          "name": "_proofData",
          "type": "bytes"
        }
      ],
      "name": "confidentialMint",
      "outputs": [],
      "payable": false,
      "stateMutability": "nonpayable",
      "type": "function"
    },
    {
      "constant": false,
      "inputs": [
        {
          "name": "_proofData",
          "type": "bytes"
        },
        {
          "name": "_signatures",
          "type": "bytes"
        }
      ],
      "name": "confidentialTransfer",
      "outputs": [],
      "payable": false,
      "stateMutability": "nonpayable",
      "type": "function"
    }
  ],
  "bytecode": "0x608060405234801561001057600080fd5b5060405160a080612515833981018060405260a081101561003057600080fd5b8101908080519060200190929190805190602001909291908051906020019092919080519060200190929190805190602001909291905050508484848484848484848460405160200180807f454950373132446f6d61696e2800000000000000000000000000000000000000815250600d01807f737472696e67206e616d652c0000000000000000000000000000000000000000815250600c01807f737472696e672076657273696f6e2c0000000000000000000000000000000000815250600f01807f6164647265737320766572696679696e67436f6e747261637400000000000000815250601901807f29000000000000000000000000000000000000000000000000000000000000008152506001019050604051602081830303815290604052805190602001206040805190810160405280601981526020017f415a5445435f43525950544f4752415048595f454e47494e4500000000000000815250805190602001206040805190810160405280600181526020017f310000000000000000000000000000000000000000000000000000000000000081525080519060200120306040516020018085815260200184815260200183815260200182600160a060020a0316600160a060020a031681526020019450505050506040516020818303038152906040528051906020012060008190555060405160200180807f454950373132446f6d61696e2800000000000000000000000000000000000000815250600d01807f737472696e67206e616d652c0000000000000000000000000000000000000000815250600c01807f737472696e672076657273696f6e2c0000000000000000000000000000000000815250600f01807f6164647265737320766572696679696e67436f6e747261637400000000000000815250601901807f29000000000000000000000000000000000000000000000000000000000000008152506001019050604051602081830303815290604052805190602001206040805190810160405280600881526020017f5a4b5f4153534554000000000000000000000000000000000000000000000000815250805190602001206040805190810160405280600181526020017f31000000000000000000000000000000000000000000000000000000000000008152508051906020012030600160a060020a031660001b604051602001808581526020018481526020018381526020018281526020019450505050506040516020818303038152906040528051906020012060008190555060606040519081016040528060011515815260200160001515815260200160011515815250600360008201518160000160006101000a81548160ff02191690831515021790555060208201518160000160016101000a81548160ff02191690831515021790555060408201518160000160026101000a81548160ff02191690831515021790555090505084600160006101000a815481600160a060020a030219169083600160a060020a0316021790555083600260006101000a815481600160a060020a030219169083600160a060020a0316021790555082600481905550600160009054906101000a9004600160a060020a0316600160a060020a031663a5468ca2858585856040518563ffffffff1660e01b81526004018085600160a060020a0316600160a060020a031681526020018481526020018315151515815260200182151515158152602001945050505050600060405180830381600087803b15801561054357600080fd5b505af1158015610557573d6000803e3d6000fd5b505060408051868152841515602082015281518615159450600160a060020a03808a1694508a16927fca576e79bcb5c4a0045d9d596a80c733c3997559f688f69e5c03bd737d885b86928290030190a4505060068054600160a060020a03199081163390811790925560088054909116909117905550505050505050505050505050611f2d806105e86000396000f3fe608060405234801561001057600080fd5b506004361061012b5760003560e01c80638500e1f8116100ad578063cdfea90e11610071578063cdfea90e146104ef578063df924625146105a1578063e306f779146105a9578063ea12489f146105b1578063ed3437f8146105b95761012b565b80638500e1f8146103865780638da5cb5b1461038e5780638e526d9b146103b257806396988498146103ba578063a5c8fa84146104e75761012b565b806349518b28116100f457806349518b28146102ec57806364cc4aa5146102f4578063764481181461031e57806376ae6bee1461033e5780637f08dede146103645761012b565b80625bf7321461013057806307616051146101505780630f4a80fe1461016a5780631b50a074146101aa5780631f2ac16a14610228575b600080fd5b6101386105c1565b6040805162ffffff9092168252519081900360200190f35b6101586105c8565b60408051918252519081900360200190f35b6101966004803603604081101561018057600080fd5b5080359060200135600160a060020a03166105ec565b604080519115158252519081900360200190f35b610226600480360360408110156101c057600080fd5b62ffffff82351691908101906040810160208201356401000000008111156101e757600080fd5b8201836020820111156101f957600080fd5b8035906020019184600183028401116401000000008311171561021b57600080fd5b50909250905061060c565b005b6102266004803603608081101561023e57600080fd5b813591600160a060020a036020820135169160408201351515919081019060808101606082013564010000000081111561027757600080fd5b82018360208201111561028957600080fd5b803590602001918460018302840111640100000000831117156102ab57600080fd5b91908080601f016020809104026020016040519081016040528093929190818152602001838380828437600092019190915250929550610908945050505050565b610138610b49565b6102fc610b50565b6040805193151584529115156020840152151582820152519081900360600190f35b6101586004803603602081101561033457600080fd5b503560ff16610b6c565b6102266004803603604081101561035457600080fd5b5060ff8135169060200135610b7e565b6101966004803603602081101561037a57600080fd5b503562ffffff16610be5565b610138610c89565b610396610c90565b60408051600160a060020a039092168252519081900360200190f35b610138610c9f565b610226600480360360408110156103d057600080fd5b8101906020810181356401000000008111156103eb57600080fd5b8201836020820111156103fd57600080fd5b8035906020019184600183028401116401000000008311171561041f57600080fd5b91908080601f016020809104026020016040519081016040528093929190818152602001838380828437600092019190915250929594936020810193503591505064010000000081111561047257600080fd5b82018360208201111561048457600080fd5b803590602001918460018302840111640100000000831117156104a657600080fd5b91908080601f016020809104026020016040519081016040528093929190818152602001838380828437600092019190915250929550610ca6945050505050565b61039661112e565b6102266004803603604081101561050557600080fd5b62ffffff823516919081019060408101602082013564010000000081111561052c57600080fd5b82018360208201111561053e57600080fd5b8035906020019184600183028401116401000000008311171561056057600080fd5b91908080601f01602080910402602001604051908101604052809392919081815260200183838082843760009201919091525092955061113d945050505050565b6101386111b8565b6101586111bf565b6103966111c5565b6101586111d4565b6201010181565b7fcbc417524e52b95c42a4c42d357938497e3d199eb9b4a0139c92551d4000bc3c81565b600560209081526000928352604080842090915290825290205460ff1681565b600854600160a060020a0316331461065d57604051600080516020611e0e8339815191528152600401808060200182810382526035815260200180611e556035913960400191505060405180910390fd5b8015156106b95760408051600080516020611e0e833981519152815260206004820152600d60248201527f70726f6f6620696e76616c696400000000000000000000000000000000000000604482015290519081900360640190fd5b6001546040517f80037eeb00000000000000000000000000000000000000000000000000000000815262ffffff8516600482019081523060448301819052606060248401818152606485018790529094600160a060020a0316936380037eeb93899389938993919291608401858580828437600081840152601f19601f82011690508083019250505095505050505050600060405180830381600087803b15801561076357600080fd5b505af1158015610777573d6000803e3d6000fd5b505050506040513d6000823e601f3d908101601f1916820160405260208110156107a057600080fd5b8101908080516401000000008111156107b857600080fd5b820160208101848111156107cb57600080fd5b81516401000000008111828201871017156107e557600080fd5b509094506060935061080c92506108079150849050600063ffffffff6111da16565b611239565b5050915050606061082a6108076001856111da90919063ffffffff16565b50509150506000606061084f61084a6000866111da90919063ffffffff16565b611263565b925092505061085d83611281565b7f6bc2dccbfc40ed5201f2896c7bc80fa4529202979a6c4195e7c95548b7bdedcb82826040518083815260200180602001828103825283818151815260200191508051906020019080838360005b838110156108c35781810151838201526020016108ab565b50505050905090810190601f1680156108f05780820380516001836020036101000a031916815260200191505b50935050505060405180910390a15050505050505050565b600154604080517ffedee266000000000000000000000000000000000000000000000000000000008152306004820152602481018790529051600092600160a060020a03169163fedee266916044808301926080929190829003018186803b15801561097357600080fd5b505afa158015610987573d6000803e3d6000fd5b505050506040513d608081101561099d57600080fd5b50519050600160ff8216146109eb57604051600080516020611e0e8339815191528152600401808060200182810382526022815260200180611dc46022913960400191505060405180910390fd5b604080517f4e6f74655369676e6174757265280000000000000000000000000000000000006020808301919091527f62797465733332206e6f7465486173682c000000000000000000000000000000602e8301527f61646472657373207370656e6465722c00000000000000000000000000000000603f8301527f626f6f6c20737461747573000000000000000000000000000000000000000000604f8301527f2900000000000000000000000000000000000000000000000000000000000000605a8301528251603b818403018152605b83018452805190820120607b830152609b8201889052600160a060020a03871660bb83015260ff841660db808401919091528351808403909101815260fb9092019092528051910120610b11818785611365565b5050506000928352600560209081526040808520600160a060020a039490941685529290529120805460ff1916911515919091179055565b6201040281565b60035460ff808216916101008104821691620100009091041683565b60076020526000908152604090205481565b600654600160a060020a03163314610bcf57604051600080516020611e0e8339815191528152600401808060200182810382526027815260200180611e2e6027913960400191505060405180910390fd5b60ff909116600090815260076020526040902055565b600080600080610bf98562ffffff16611487565b9194509250905060ff8216600114610c4a57604051600080516020611e0e8339815191528152600401808060200182810382526028815260200180611d9c6028913960400191505060405180910390fd5b6000610c6060ff8316600163ffffffff6114a116565b60ff94851660009081526007602052604090205494169390931c60019081161495945050505050565b6201040181565b600854600160a060020a031681565b6201020181565b6001546040517fa2866ea3000000000000000000000000000000000000000000000000000000008152620101016004820181815233602484018190526060604485018181528851606487015288519196600160a060020a03169563a2866ea395948a9390929160840190602085019080838360005b83811015610d33578181015183820152602001610d1b565b50505050905090810190601f168015610d605780820380516001836020036101000a031916815260200191505b50945050505050600060405180830381600087803b158015610d8157600080fd5b505af1158015610d95573d6000803e3d6000fd5b505050506040513d6000823e601f3d908101601f191682016040526020811015610dbe57600080fd5b810190808051640100000000811115610dd657600080fd5b82016020810184811115610de957600080fd5b8151640100000000811182820187101715610e0357600080fd5b5050805190945015159250610e6a9150505760408051600080516020611e0e833981519152815260206004820152600d60248201527f70726f6f6620696e76616c696400000000000000000000000000000000000000604482015290519081900360640190fd5b6060610e7d82600063ffffffff6111da16565b90506000610e8a82611239565b600154604080517ff971d77c000000000000000000000000000000000000000000000000000000008152306004820152905192965060009550859450600160a060020a03909116925063f971d77c9160248083019260e0929190829003018186803b158015610ef857600080fd5b505afa158015610f0c573d6000803e3d6000fd5b505050506040513d60e0811015610f2257600080fd5b5060208101516040909101519092509050600083131561111a578281101561111a576000610f56848363ffffffff6114fb16565b600254909150600160a060020a03166340c10f1930610f7b848763ffffffff61150a16565b6040518363ffffffff1660e01b81526004018083600160a060020a0316600160a060020a0316815260200182815260200192505050602060405180830381600087803b158015610fca57600080fd5b505af1158015610fde573d6000803e3d6000fd5b505050506040513d6020811015610ff457600080fd5b5050600254600154600160a060020a039182169163095ea7b3911661101f848763ffffffff61150a16565b6040518363ffffffff1660e01b81526004018083600160a060020a0316600160a060020a0316815260200182815260200192505050602060405180830381600087803b15801561106e57600080fd5b505af1158015611082573d6000803e3d6000fd5b505050506040513d602081101561109857600080fd5b5050600154604080517f43b54208000000000000000000000000000000000000000000000000000000008152600481018490529051600160a060020a03909216916343b542089160248082019260009290919082900301818387803b15801561110057600080fd5b505af1158015611114573d6000803e3d6000fd5b50505050505b61112585878961153c565b50505050505050565b600154600160a060020a031681565b600061114883610be5565b90506001811515146111a95760408051600080516020611e0e833981519152815260206004820152601e60248201527f65787065637465642070726f6f6620746f20626520737570706f727465640000604482015290519081900360640190fd5b6111b383836118d5565b505050565b6201030181565b60005481565b600254600160a060020a031681565b60045481565b60208281015190820283016040015183019082108061123257604051600080516020611e0e8339815191528152600401808060200182810382526022815260200180611ee06022913960400191505060405180910390fd5b5092915050565b6020810151604082015160608301516080840151928401949190930192600160a060020a03169190565b60408101516060820151600160a060020a0390911692909160800190565b60005b61128d82611b37565b8110156113615760008060606112ac61084a868663ffffffff6111da16565b9250925092508183600160a060020a03167f5ffb3072e4515cf3bfae8b16be9dff6313cf7c313a0c26faafe6971d8c7585f1836040518080602001828103825283818151815260200191508051906020019080838360005b8381101561131c578181015183820152602001611304565b50505050905090810190601f1680156113495780820380516001836020036101000a031916815260200191505b509250505060405180910390a3505050600101611284565b5050565b600154604080517ffedee266000000000000000000000000000000000000000000000000000000008152306004820152602481018590529051600092600160a060020a03169163fedee266916044808301926080929190829003018186803b1580156113d057600080fd5b505afa1580156113e4573d6000803e3d6000fd5b505050506040513d60808110156113fa57600080fd5b506060015182519091506000901561142b57600061141786611b3e565b90506114238185611b5f565b91505061142e565b50335b600160a060020a038181169083161461148057604051600080516020611e0e8339815191528152600401808060200182810382526028815260200180611de66028913960400191505060405180910390fd5b5050505050565b60ff62010000820481169261010083048216929190911690565b600060ff80841690831611156114f057604051600080516020611e0e8339815191528152600401808060200182810382526025815260200180611ebb6025913960400191505060405180910390fd5b508082035b92915050565b6000828211156114f057600080fd5b600082151561151b575060006114f5565b82820282848281151561152a57fe5b041461153557600080fd5b9392505050565b604081015160005b61154d85611b37565b811015611480576060611566868363ffffffff6111da16565b6001546040517f977796d200000000000000000000000000000000000000000000000000000000815262010101600482018181523060448401819052606060248501908152865160648601528651969750600160a060020a039095169563977796d2959394889492939291608490910190602086019080838360005b838110156115fa5781810151838201526020016115e2565b50505050905090810190601f1680156116275780820380516001836020036101000a031916815260200191505b50945050505050600060405180830381600087803b15801561164857600080fd5b505af115801561165c573d6000803e3d6000fd5b5050505060608060008061166f85611239565b9350935093509350600061168285611b37565b111561181c5760005b61169485611b37565b81101561181a5760606116a78b83611c7c565b905060006116be61084a888563ffffffff6111da16565b50604080517f4a6f696e53706c69745369676e617475726528000000000000000000000000006020808301919091527f75696e7432342070726f6f662c0000000000000000000000000000000000000060338301527f62797465733332206e6f7465486173682c000000000000000000000000000000828401527f75696e74323536206368616c6c656e67652c000000000000000000000000000060518301527f616464726573732073656e64657200000000000000000000000000000000000060638301527f290000000000000000000000000000000000000000000000000000000000000060718301528251605281840301815260728301845280519082012060928301526201010160b283015260d2820184905260f282018f90523361011280840191909152835180840390910181526101329092019092528051910120909250905061180f818385611365565b50505060010161168b565b505b61182584611cbb565b61182e83611281565b600081121561187c5781600160a060020a03167ffed3b27b73d78d9d1f344bbbf25f7af35e0ac4d6cf8193604ce18082168e461a826000036040518082815260200191505060405180910390a25b60008113156118c557604080518281529051600160a060020a038416917f60213c45c34d8b94e495fd5871fdea7a7511f659e884ea25a0c8843b7f98bfad919081900360200190a25b5050505050600181019050611544565b6060806000806118e485611239565b935093509350935060006118f785611b37565b905060005b8181101561198d57600061191961084a888463ffffffff6111da16565b50600081815260056020908152604080832033845290915290205490925060ff161515600114905061198457604051600080516020611e0e8339815191528152600401808060200182810382526031815260200180611e8a6031913960400191505060405180910390fd5b506001016118fc565b506001546040517f977796d200000000000000000000000000000000000000000000000000000000815262ffffff89166004820190815233604483018190526060602484019081528a5160648501528a51600160a060020a039095169463977796d2948d948d94939092909160840190602086019080838360005b83811015611a20578181015183820152602001611a08565b50505050905090810190601f168015611a4d5780820380516001836020036101000a031916815260200191505b50945050505050600060405180830381600087803b158015611a6e57600080fd5b505af1158015611a82573d6000803e3d6000fd5b50505050611a8f85611cbb565b611a9884611281565b6000821215611ae65782600160a060020a03167ffed3b27b73d78d9d1f344bbbf25f7af35e0ac4d6cf8193604ce18082168e461a836000036040518082815260200191505060405180910390a25b600082131561112557604080518381529051600160a060020a038516917f60213c45c34d8b94e495fd5871fdea7a7511f659e884ea25a0c8843b7f98bfad919081900360200190a250505050505050565b6020015190565b60008054604080516119019093526020919091529182526042601e20915290565b6000808251848452602084015160208560808760015afa601c8214601b83141760608414161692508451861460008114611b9857611b9d565b855194505b50508352808015611bb55750600160a060020a038216155b151561123257600160a060020a0382161515611c205760408051600080516020611e0e833981519152815260206004820152601a60248201527f7369676e657220616464726573732063616e6e6f742062652030000000000000604482015290519081900360640190fd5b8015156112325760408051600080516020611e0e833981519152815260206004820152601960248201527f7369676e6174757265207265636f76657279206661696c656400000000000000604482015290519081900360640190fd5b60609081029190910160208181015160408084015193850151815193840192909252828101939093528184015281518082039093018352608001905290565b60005b611cc782611b37565b811015611361576000806060611ce661084a868663ffffffff6111da16565b9250925092508183600160a060020a03167febd4bb7b61198df63305dd538f077db9df9b14339d8a6221e301487770d79227836040518080602001828103825283818151815260200191508051906020019080838360005b83811015611d56578181015183820152602001611d3e565b50505050905090810190601f168015611d835780820380516001836020036101000a031916815260200191505b509250505060405180910390a3505050600101611cbe56fe74686973206173736574206f6e6c7920737570706f7274732062616c616e6365642070726f6f66736f6e6c7920756e7370656e74206e6f7465732063616e20626520617070726f766564746865206e6f7465206f776e657220646964206e6f74207369676e2074686973206d65737361676508c379a0000000000000000000000000000000000000000000000000000000006f6e6c7920746865206f776e65722063616e20736574207468652065706f63682070726f6f66736f6e6c7920746865206f776e65722063616e2063616c6c2074686520636f6e666964656e7469616c4d696e742829206d6574686f6473656e64657220646f6573206e6f74206861766520617070726f76616c20746f207370656e6420696e707574206e6f746575696e7438207375622074726967676572656420696e746567657220756e646572666c6f77415a54454320617272617920696e646578206973206f7574206f6620626f756e6473a165627a7a723058205ff130803636ca594dd2b7b4fa7529ccf5cd20d967293d4e926d0ea50b41d9a00029",
  "source": "\n\npragma solidity >=0.5.0 <0.6.0;\n\nimport \"openzeppelin-solidity/contracts/math/SafeMath.sol\";\n\nimport \"./ZkAsset.sol\";\nimport \"../ACE/ACE.sol\";\nimport \"../ERC20/ERC20Mintable.sol\";\nimport \"../libs/LibEIP712.sol\";\nimport \"../libs/ProofUtils.sol\";\nimport \"./ZkAssetOwnable.sol\";\n\n/**\n * @title ZkAssetMintable\n * @author AZTEC\n * @dev A contract defining the standard interface and behaviours of a confidential mintable asset. \n * Copyright Spilbury Holdings Ltd 2019. All rights reserved.\n**/\n\ncontract ZkAssetMintable is ZkAssetOwnable {\n    event UpdateTotalMinted(bytes32 noteHash, bytes noteData);\n    address public owner;\n\n    constructor(\n        address _aceAddress,\n        address _linkedTokenAddress,\n        uint256 _scalingFactor,\n        bool _canAdjustSupply,\n        bool _canConvert\n    ) public ZkAssetOwnable(\n        _aceAddress,\n        _linkedTokenAddress,\n        _scalingFactor,\n        _canAdjustSupply,\n        _canConvert\n    ) {\n        owner = msg.sender;\n    }\n\n    /**\n    * @dev Executes a confidential minting procedure, dependent on the provided proofData\n    * being succesfully validated by the zero-knowledge validator\n    * \n    * @param _proof - uint24 variable which acts as a unique identifier for the proof which\n    * _proofOutput is being submitted. _proof contains three concatenated uint8 variables: \n    * 1) epoch number 2) category number 3) ID number for the proof\n    * @param _proofData - bytes array of proof data, outputted from a proof construction\n    */\n    function confidentialMint(uint24 _proof, bytes calldata _proofData) external {\n        require(msg.sender == owner, \"only the owner can call the confidentialMint() method\");\n        require(_proofData.length != 0, \"proof invalid\");\n\n        (bytes memory _proofOutputs) = ace.mint(_proof, _proofData, address(this));\n\n        (, bytes memory newTotal, ,) = _proofOutputs.get(0).extractProofOutput();\n\n        (, bytes memory mintedNotes, ,) = _proofOutputs.get(1).extractProofOutput();\n\n        (,\n        bytes32 noteHash,\n        bytes memory metadata) = newTotal.get(0).extractNote();\n\n        logOutputNotes(mintedNotes);\n        emit UpdateTotalMinted(noteHash, metadata);\n    }\n    /**\n    * @dev Executes a basic unilateral, confidential transfer of AZTEC notes adapted for use with \n    * a mintable ZkAsset.\n    *\n    * Will submit _proofData to the validateProof() function of the Cryptography Engine. \n    *\n    *\n    * If public value is being transferred out of the ACE, and the minted value is greater than \n    * ACE's token balance, then tokens will be minted from the linked ERC20 token using supplementTokens()\n    *\n    * Upon successfull verification, it will update note registry state - creating output notes and \n    * destroying input notes. \n    * \n    * @param _proofData - bytes variable outputted from proof construction\n    */\n    function confidentialTransfer(bytes memory _proofData, bytes memory _signatures) public {\n        bytes memory proofOutputs = ace.validateProof(JOIN_SPLIT_PROOF, msg.sender, _proofData);\n        require(proofOutputs.length != 0, \"proof invalid\");\n\n        bytes memory proofOutput = proofOutputs.get(0);\n\n        (,\n        ,\n        ,\n        int256 publicValue) = proofOutput.extractProofOutput();\n\n        (\n            ,\n            uint256 scalingFactor,\n            uint256 totalSupply,\n            ,\n            ,\n            ,\n        ) = ace.getRegistry(address(this));\n        if (publicValue > 0) {\n            if (totalSupply < uint256(publicValue)) {\n                uint256 supplementValue = uint256(publicValue).sub(totalSupply);\n                ERC20Mintable(address(linkedToken)).mint(address(this), supplementValue.mul(scalingFactor));\n                ERC20Mintable(address(linkedToken)).approve(address(ace), supplementValue.mul(scalingFactor));\n\n                ace.supplementTokens(supplementValue);\n            }\n        }\n\n        confidentialTransferInternal(proofOutputs, _signatures, _proofData);\n    }\n}\n\n",
  "sourcePath": "@aztec/protocol/contracts/ERC1724/ZkAssetMintable.sol",
  "compiler": {
    "name": "solc",
    "version": "0.5.4+commit.9549d8ff.Emscripten.clang"
  },
  "schemaVersion": "3.0.9",
  "updatedAt": "2021-09-17T17:40:15.199Z",
  "devdoc": {
    "author": "AZTEC",
    "details": "A contract defining the standard interface and behaviours of a confidential mintable asset.  Copyright Spilbury Holdings Ltd 2019. All rights reserved.*",
    "methods": {
      "confidentialApprove(bytes32,address,bool,bytes)": {
        "details": "Note owner approving a third party, another address, to spend the note on  owner's behalf. This is necessary to allow the confidentialTransferFrom() method to be called ",
        "params": {
          "_noteHash": "- keccak256 hash of the note coordinates (gamma and sigma)",
          "_signature": "- ECDSA signature from the note owner that validates the confidentialApprove() instruction   ",
          "_spender": "- address being approved to spend the note",
          "_status": "- defines whether the _spender address is being approved to spend the  note, or if permission is being revoked"
        }
      },
      "confidentialMint(uint24,bytes)": {
        "details": "Executes a confidential minting procedure, dependent on the provided proofData being succesfully validated by the zero-knowledge validator ",
        "params": {
          "_proof": "- uint24 variable which acts as a unique identifier for the proof which _proofOutput is being submitted. _proof contains three concatenated uint8 variables:  1) epoch number 2) category number 3) ID number for the proof",
          "_proofData": "- bytes array of proof data, outputted from a proof construction"
        }
      },
      "confidentialTransfer(bytes,bytes)": {
        "details": "Executes a basic unilateral, confidential transfer of AZTEC notes adapted for use with  a mintable ZkAsset.    * Will submit _proofData to the validateProof() function of the Cryptography Engine.     * If public value is being transferred out of the ACE, and the minted value is greater than  ACE's token balance, then tokens will be minted from the linked ERC20 token using supplementTokens()    * Upon successfull verification, it will update note registry state - creating output notes and  destroying input notes.  ",
        "params": {
          "_proofData": "- bytes variable outputted from proof construction"
        }
      }
    },
    "title": "ZkAssetMintable"
  },
  "userdoc": {
    "methods": {}
  }
}