{
  "contractName": "ZkAsset",
  "abi": [
    {
      "constant": true,
      "inputs": [],
      "name": "JOIN_SPLIT_PROOF",
      "outputs": [
        {
          "name": "",
          "type": "uint24"
        }
      ],
      "payable": false,
      "stateMutability": "view",
      "type": "function"
    },
    {
      "constant": true,
      "inputs": [],
      "name": "ZERO_VALUE_NOTE_HASH",
      "outputs": [
        {
          "name": "",
          "type": "bytes32"
        }
      ],
      "payable": false,
      "stateMutability": "view",
      "type": "function"
    },
    {
      "constant": true,
      "inputs": [
        {
          "name": "",
          "type": "bytes32"
        },
        {
          "name": "",
          "type": "address"
        }
      ],
      "name": "confidentialApproved",
      "outputs": [
        {
          "name": "",
          "type": "bool"
        }
      ],
      "payable": false,
      "stateMutability": "view",
      "type": "function"
    },
    {
      "constant": true,
      "inputs": [],
      "name": "PRIVATE_RANGE_PROOF",
      "outputs": [
        {
          "name": "",
          "type": "uint24"
        }
      ],
      "payable": false,
      "stateMutability": "view",
      "type": "function"
    },
    {
      "constant": true,
      "inputs": [],
      "name": "flags",
      "outputs": [
        {
          "name": "active",
          "type": "bool"
        },
        {
          "name": "canAdjustSupply",
          "type": "bool"
        },
        {
          "name": "canConvert",
          "type": "bool"
        }
      ],
      "payable": false,
      "stateMutability": "view",
      "type": "function"
    },
    {
      "constant": true,
      "inputs": [],
      "name": "DIVIDEND_PROOF",
      "outputs": [
        {
          "name": "",
          "type": "uint24"
        }
      ],
      "payable": false,
      "stateMutability": "view",
      "type": "function"
    },
    {
      "constant": true,
      "inputs": [],
      "name": "MINT_PROOF",
      "outputs": [
        {
          "name": "",
          "type": "uint24"
        }
      ],
      "payable": false,
      "stateMutability": "view",
      "type": "function"
    },
    {
      "constant": true,
      "inputs": [],
      "name": "ace",
      "outputs": [
        {
          "name": "",
          "type": "address"
        }
      ],
      "payable": false,
      "stateMutability": "view",
      "type": "function"
    },
    {
      "constant": true,
      "inputs": [],
      "name": "BURN_PROOF",
      "outputs": [
        {
          "name": "",
          "type": "uint24"
        }
      ],
      "payable": false,
      "stateMutability": "view",
      "type": "function"
    },
    {
      "constant": true,
      "inputs": [],
      "name": "EIP712_DOMAIN_HASH",
      "outputs": [
        {
          "name": "",
          "type": "bytes32"
        }
      ],
      "payable": false,
      "stateMutability": "view",
      "type": "function"
    },
    {
      "constant": true,
      "inputs": [],
      "name": "linkedToken",
      "outputs": [
        {
          "name": "",
          "type": "address"
        }
      ],
      "payable": false,
      "stateMutability": "view",
      "type": "function"
    },
    {
      "constant": true,
      "inputs": [],
      "name": "scalingFactor",
      "outputs": [
        {
          "name": "",
          "type": "uint256"
        }
      ],
      "payable": false,
      "stateMutability": "view",
      "type": "function"
    },
    {
      "inputs": [
        {
          "name": "_aceAddress",
          "type": "address"
        },
        {
          "name": "_linkedTokenAddress",
          "type": "address"
        },
        {
          "name": "_scalingFactor",
          "type": "uint256"
        },
        {
          "name": "_canAdjustSupply",
          "type": "bool"
        },
        {
          "name": "_canConvert",
          "type": "bool"
        }
      ],
      "payable": false,
      "stateMutability": "nonpayable",
      "type": "constructor"
    },
    {
      "anonymous": false,
      "inputs": [
        {
          "indexed": true,
          "name": "aceAddress",
          "type": "address"
        },
        {
          "indexed": true,
          "name": "linkedTokenAddress",
          "type": "address"
        },
        {
          "indexed": false,
          "name": "scalingFactor",
          "type": "uint256"
        },
        {
          "indexed": true,
          "name": "_canAdjustSupply",
          "type": "bool"
        },
        {
          "indexed": false,
          "name": "_canConvert",
          "type": "bool"
        }
      ],
      "name": "CreateZkAsset",
      "type": "event"
    },
    {
      "anonymous": false,
      "inputs": [
        {
          "indexed": false,
          "name": "noteRegistryId",
          "type": "uint256"
        }
      ],
      "name": "CreateNoteRegistry",
      "type": "event"
    },
    {
      "anonymous": false,
      "inputs": [
        {
          "indexed": true,
          "name": "owner",
          "type": "address"
        },
        {
          "indexed": true,
          "name": "noteHash",
          "type": "bytes32"
        },
        {
          "indexed": false,
          "name": "metadata",
          "type": "bytes"
        }
      ],
      "name": "CreateNote",
      "type": "event"
    },
    {
      "anonymous": false,
      "inputs": [
        {
          "indexed": true,
          "name": "owner",
          "type": "address"
        },
        {
          "indexed": true,
          "name": "noteHash",
          "type": "bytes32"
        },
        {
          "indexed": false,
          "name": "metadata",
          "type": "bytes"
        }
      ],
      "name": "DestroyNote",
      "type": "event"
    },
    {
      "anonymous": false,
      "inputs": [
        {
          "indexed": true,
          "name": "owner",
          "type": "address"
        },
        {
          "indexed": false,
          "name": "value",
          "type": "uint256"
        }
      ],
      "name": "ConvertTokens",
      "type": "event"
    },
    {
      "anonymous": false,
      "inputs": [
        {
          "indexed": true,
          "name": "owner",
          "type": "address"
        },
        {
          "indexed": false,
          "name": "value",
          "type": "uint256"
        }
      ],
      "name": "RedeemTokens",
      "type": "event"
    },
    {
      "constant": false,
      "inputs": [
        {
          "name": "_proofData",
          "type": "bytes"
        },
        {
          "name": "_signatures",
          "type": "bytes"
        }
      ],
      "name": "confidentialTransfer",
      "outputs": [],
      "payable": false,
      "stateMutability": "nonpayable",
      "type": "function"
    },
    {
      "constant": false,
      "inputs": [
        {
          "name": "_proof",
          "type": "uint24"
        },
        {
          "name": "_proofOutput",
          "type": "bytes"
        }
      ],
      "name": "confidentialTransferFrom",
      "outputs": [],
      "payable": false,
      "stateMutability": "nonpayable",
      "type": "function"
    },
    {
      "constant": false,
      "inputs": [
        {
          "name": "_noteHash",
          "type": "bytes32"
        },
        {
          "name": "_spender",
          "type": "address"
        },
        {
          "name": "_status",
          "type": "bool"
        },
        {
          "name": "_signature",
          "type": "bytes"
        }
      ],
      "name": "confidentialApprove",
      "outputs": [],
      "payable": false,
      "stateMutability": "nonpayable",
      "type": "function"
    }
  ],
  "bytecode": "0x608060405234801561001057600080fd5b5060405160a080611afb833981018060405260a081101561003057600080fd5b81019080805190602001909291908051906020019092919080519060200190929190805190602001909291908051906020019092919050505060405160200180807f454950373132446f6d61696e2800000000000000000000000000000000000000815250600d01807f737472696e67206e616d652c0000000000000000000000000000000000000000815250600c01807f737472696e672076657273696f6e2c0000000000000000000000000000000000815250600f01807f6164647265737320766572696679696e67436f6e747261637400000000000000815250601901807f29000000000000000000000000000000000000000000000000000000000000008152506001019050604051602081830303815290604052805190602001206040805190810160405280601981526020017f415a5445435f43525950544f4752415048595f454e47494e4500000000000000815250805190602001206040805190810160405280600181526020017f310000000000000000000000000000000000000000000000000000000000000081525080519060200120306040516020018085815260200184815260200183815260200182600160a060020a0316600160a060020a031681526020019450505050506040516020818303038152906040528051906020012060008190555060405160200180807f454950373132446f6d61696e2800000000000000000000000000000000000000815250600d01807f737472696e67206e616d652c0000000000000000000000000000000000000000815250600c01807f737472696e672076657273696f6e2c0000000000000000000000000000000000815250600f01807f6164647265737320766572696679696e67436f6e747261637400000000000000815250601901807f29000000000000000000000000000000000000000000000000000000000000008152506001019050604051602081830303815290604052805190602001206040805190810160405280600881526020017f5a4b5f4153534554000000000000000000000000000000000000000000000000815250805190602001206040805190810160405280600181526020017f31000000000000000000000000000000000000000000000000000000000000008152508051906020012030600160a060020a031660001b604051602001808581526020018481526020018381526020018281526020019450505050506040516020818303038152906040528051906020012060008190555060606040519081016040528060011515815260200160001515815260200160011515815250600360008201518160000160006101000a81548160ff02191690831515021790555060208201518160000160016101000a81548160ff02191690831515021790555060408201518160000160026101000a81548160ff02191690831515021790555090505084600160006101000a815481600160a060020a030219169083600160a060020a0316021790555083600260006101000a815481600160a060020a030219169083600160a060020a0316021790555082600481905550600160009054906101000a9004600160a060020a0316600160a060020a031663a5468ca2858585856040518563ffffffff1660e01b81526004018085600160a060020a0316600160a060020a031681526020018481526020018315151515815260200182151515158152602001945050505050600060405180830381600087803b15801561053957600080fd5b505af115801561054d573d6000803e3d6000fd5b505060408051868152841515602082015281518615159450600160a060020a03808a1694508a16927fca576e79bcb5c4a0045d9d596a80c733c3997559f688f69e5c03bd737d885b86928290030190a4505050505061154a806105b16000396000f3fe608060405234801561001057600080fd5b50600436106100f45760003560e01c80638e526d9b11610097578063df92462511610066578063df9246251461047e578063e306f77914610486578063ea12489f1461048e578063ed3437f814610496576100f4565b80638e526d9b14610273578063969884981461027b578063a5c8fa84146103a8578063cdfea90e146103cc576100f4565b80631f2ac16a116100d35780631f2ac16a1461017357806349518b281461023957806364cc4aa5146102415780638500e1f81461026b576100f4565b80625bf732146100f957806307616051146101195780630f4a80fe14610133575b600080fd5b61010161049e565b6040805162ffffff9092168252519081900360200190f35b6101216104a5565b60408051918252519081900360200190f35b61015f6004803603604081101561014957600080fd5b5080359060200135600160a060020a03166104c9565b604080519115158252519081900360200190f35b6102376004803603608081101561018957600080fd5b813591600160a060020a03602082013516916040820135151591908101906080810160608201356401000000008111156101c257600080fd5b8201836020820111156101d457600080fd5b803590602001918460018302840111640100000000831117156101f657600080fd5b91908080601f0160208091040260200160405190810160405280939291908181526020018383808284376000920191909152509295506104e9945050505050565b005b61010161073c565b610249610743565b6040805193151584529115156020840152151582820152519081900360600190f35b61010161075f565b610101610766565b6102376004803603604081101561029157600080fd5b8101906020810181356401000000008111156102ac57600080fd5b8201836020820111156102be57600080fd5b803590602001918460018302840111640100000000831117156102e057600080fd5b91908080601f016020809104026020016040519081016040528093929190818152602001838380828437600092019190915250929594936020810193503591505064010000000081111561033357600080fd5b82018360208201111561034557600080fd5b8035906020019184600183028401116401000000008311171561036757600080fd5b91908080601f01602080910402602001604051908101604052809392919081815260200183838082843760009201919091525092955061076d945050505050565b6103b06108e4565b60408051600160a060020a039092168252519081900360200190f35b610237600480360360408110156103e257600080fd5b62ffffff823516919081019060408101602082013564010000000081111561040957600080fd5b82018360208201111561041b57600080fd5b8035906020019184600183028401116401000000008311171561043d57600080fd5b91908080601f0160208091040260200160405190810160405280939291908181526020018383808284376000920191909152509295506108f3945050505050565b610101610b6d565b610121610b74565b6103b0610b7a565b610121610b89565b6201010181565b7fcbc417524e52b95c42a4c42d357938497e3d199eb9b4a0139c92551d4000bc3c81565b600560209081526000928352604080842090915290825290205460ff1681565b600154604080517ffedee266000000000000000000000000000000000000000000000000000000008152306004820152602481018790529051600092600160a060020a03169163fedee266916044808301926080929190829003018186803b15801561055457600080fd5b505afa158015610568573d6000803e3d6000fd5b505050506040513d608081101561057e57600080fd5b50519050600160ff8216146105de576040517f08c379a00000000000000000000000000000000000000000000000000000000081526004018080602001828103825260228152602001806114826022913960400191505060405180910390fd5b604080517f4e6f74655369676e6174757265280000000000000000000000000000000000006020808301919091527f62797465733332206e6f7465486173682c000000000000000000000000000000602e8301527f61646472657373207370656e6465722c00000000000000000000000000000000603f8301527f626f6f6c20737461747573000000000000000000000000000000000000000000604f8301527f2900000000000000000000000000000000000000000000000000000000000000605a8301528251603b818403018152605b83018452805190820120607b830152609b8201889052600160a060020a03871660bb83015260ff841660db808401919091528351808403909101815260fb9092019092528051910120610704818785610b8f565b5050506000928352600560209081526040808520600160a060020a039490941685529290529120805460ff1916911515919091179055565b6201040281565b60035460ff808216916101008104821691620100009091041683565b6201040181565b6201020181565b6001546040517fa2866ea3000000000000000000000000000000000000000000000000000000008152620101016004820181815233602484018190526060604485018181528851606487015288519196600160a060020a03169563a2866ea395948a9390929160840190602085019080838360005b838110156107fa5781810151838201526020016107e2565b50505050905090810190601f1680156108275780820380516001836020036101000a031916815260200191505b50945050505050600060405180830381600087803b15801561084857600080fd5b505af115801561085c573d6000803e3d6000fd5b505050506040513d6000823e601f3d908101601f19168201604052602081101561088557600080fd5b81019080805164010000000081111561089d57600080fd5b820160208101848111156108b057600080fd5b81516401000000008111828201871017156108ca57600080fd5b505092919050505090506108df818385610cc3565b505050565b600154600160a060020a031681565b6060806000806109028561105c565b9350935093509350600061091585611086565b905060005b818110156109c257600061093c610937888463ffffffff61108d16565b6110fe565b50600081815260056020908152604080832033845290915290205490925060ff16151560011490506109b9576040517f08c379a00000000000000000000000000000000000000000000000000000000081526004018080602001828103825260318152602001806114cc6031913960400191505060405180910390fd5b5060010161091a565b506001546040517f977796d200000000000000000000000000000000000000000000000000000000815262ffffff89166004820190815233604483018190526060602484019081528a5160648501528a51600160a060020a039095169463977796d2948d948d94939092909160840190602086019080838360005b83811015610a55578181015183820152602001610a3d565b50505050905090810190601f168015610a825780820380516001836020036101000a031916815260200191505b50945050505050600060405180830381600087803b158015610aa357600080fd5b505af1158015610ab7573d6000803e3d6000fd5b50505050610ac48561111c565b610acd84611200565b6000821215610b1b5782600160a060020a03167ffed3b27b73d78d9d1f344bbbf25f7af35e0ac4d6cf8193604ce18082168e461a836000036040518082815260200191505060405180910390a25b6000821315610b6457604080518381529051600160a060020a038516917f60213c45c34d8b94e495fd5871fdea7a7511f659e884ea25a0c8843b7f98bfad919081900360200190a25b50505050505050565b6201030181565b60005481565b600254600160a060020a031681565b60045481565b600154604080517ffedee266000000000000000000000000000000000000000000000000000000008152306004820152602481018590529051600092600160a060020a03169163fedee266916044808301926080929190829003018186803b158015610bfa57600080fd5b505afa158015610c0e573d6000803e3d6000fd5b505050506040513d6080811015610c2457600080fd5b5060600151825190915060009015610c55576000610c41866112e0565b9050610c4d8185611301565b915050610c58565b50335b600160a060020a0381811690831614610cbc576040517f08c379a00000000000000000000000000000000000000000000000000000000081526004018080602001828103825260288152602001806114a46028913960400191505060405180910390fd5b5050505050565b604081015160005b610cd485611086565b811015610cbc576060610ced868363ffffffff61108d16565b6001546040517f977796d200000000000000000000000000000000000000000000000000000000815262010101600482018181523060448401819052606060248501908152865160648601528651969750600160a060020a039095169563977796d2959394889492939291608490910190602086019080838360005b83811015610d81578181015183820152602001610d69565b50505050905090810190601f168015610dae5780820380516001836020036101000a031916815260200191505b50945050505050600060405180830381600087803b158015610dcf57600080fd5b505af1158015610de3573d6000803e3d6000fd5b50505050606080600080610df68561105c565b93509350935093506000610e0985611086565b1115610fa35760005b610e1b85611086565b811015610fa1576060610e2e8b83611442565b90506000610e45610937888563ffffffff61108d16565b50604080517f4a6f696e53706c69745369676e617475726528000000000000000000000000006020808301919091527f75696e7432342070726f6f662c0000000000000000000000000000000000000060338301527f62797465733332206e6f7465486173682c000000000000000000000000000000828401527f75696e74323536206368616c6c656e67652c000000000000000000000000000060518301527f616464726573732073656e64657200000000000000000000000000000000000060638301527f290000000000000000000000000000000000000000000000000000000000000060718301528251605281840301815260728301845280519082012060928301526201010160b283015260d2820184905260f282018f905233610112808401919091528351808403909101815261013290920190925280519101209092509050610f96818385610b8f565b505050600101610e12565b505b610fac8461111c565b610fb583611200565b60008112156110035781600160a060020a03167ffed3b27b73d78d9d1f344bbbf25f7af35e0ac4d6cf8193604ce18082168e461a826000036040518082815260200191505060405180910390a25b600081131561104c57604080518281529051600160a060020a038416917f60213c45c34d8b94e495fd5871fdea7a7511f659e884ea25a0c8843b7f98bfad919081900360200190a25b5050505050600181019050610ccb565b6020810151604082015160608301516080840151928401949190930192600160a060020a03169190565b6020015190565b6020828101519082028301604001518301908210806110f7576040517f08c379a00000000000000000000000000000000000000000000000000000000081526004018080602001828103825260228152602001806114fd6022913960400191505060405180910390fd5b5092915050565b60408101516060820151600160a060020a0390911692909160800190565b60005b61112882611086565b8110156111fc576000806060611147610937868663ffffffff61108d16565b9250925092508183600160a060020a03167febd4bb7b61198df63305dd538f077db9df9b14339d8a6221e301487770d79227836040518080602001828103825283818151815260200191508051906020019080838360005b838110156111b757818101518382015260200161119f565b50505050905090810190601f1680156111e45780820380516001836020036101000a031916815260200191505b509250505060405180910390a350505060010161111f565b5050565b60005b61120c82611086565b8110156111fc57600080606061122b610937868663ffffffff61108d16565b9250925092508183600160a060020a03167f5ffb3072e4515cf3bfae8b16be9dff6313cf7c313a0c26faafe6971d8c7585f1836040518080602001828103825283818151815260200191508051906020019080838360005b8381101561129b578181015183820152602001611283565b50505050905090810190601f1680156112c85780820380516001836020036101000a031916815260200191505b509250505060405180910390a3505050600101611203565b60008054604080516119019093526020919091529182526042601e20915290565b6000808251848452602084015160208560808760015afa601c8214601b8314176060841416169250845186146000811461133a5761133f565b855194505b505083528080156113575750600160a060020a038216155b15156110f757600160a060020a03821615156113d457604080517f08c379a000000000000000000000000000000000000000000000000000000000815260206004820152601a60248201527f7369676e657220616464726573732063616e6e6f742062652030000000000000604482015290519081900360640190fd5b8015156110f757604080517f08c379a000000000000000000000000000000000000000000000000000000000815260206004820152601960248201527f7369676e6174757265207265636f76657279206661696c656400000000000000604482015290519081900360640190fd5b6060908102919091016020818101516040808401519385015181519384019290925282810193909352818401528151808203909301835260800190529056fe6f6e6c7920756e7370656e74206e6f7465732063616e20626520617070726f766564746865206e6f7465206f776e657220646964206e6f74207369676e2074686973206d65737361676573656e64657220646f6573206e6f74206861766520617070726f76616c20746f207370656e6420696e707574206e6f7465415a54454320617272617920696e646578206973206f7574206f6620626f756e6473a165627a7a72305820e3f1f46719a409a182f12095ab5c63cd9be67c6a0279c075cc61821d9de242390029",
  "source": "pragma solidity >=0.5.0 <0.6.0;\n\nimport \"openzeppelin-solidity/contracts/math/SafeMath.sol\";\n\nimport \"../ACE/NoteRegistry.sol\";\nimport \"../ACE/ACE.sol\";\nimport \"../interfaces/IAZTEC.sol\";\nimport \"../interfaces/IZkAsset.sol\";\nimport \"../libs/LibEIP712.sol\";\nimport \"../libs/ProofUtils.sol\";\n\n/**\n * @title ZkAsset\n * @author AZTEC\n * @dev A contract defining the standard interface and behaviours of a confidential asset. \n * The ownership values and transfer values are encrypted. \n * Copyright Spilbury Holdings Ltd 2019. All rights reserved.\n **/\ncontract ZkAsset is IZkAsset, IAZTEC, LibEIP712 {\n    using NoteUtils for bytes;\n    using SafeMath for uint256;\n    \n\n    // EIP712 Domain Name value\n    string constant internal EIP712_DOMAIN_NAME = \"ZK_ASSET\";\n\n    // EIP712 Domain Version value\n    string constant internal EIP712_DOMAIN_VERSION = \"1\";\n\n    bytes32 constant internal NOTE_SIGNATURE_TYPEHASH = keccak256(abi.encodePacked(\n        \"NoteSignature(\",\n            \"bytes32 noteHash,\",\n            \"address spender,\",\n            \"bool status\",\n        \")\"\n    ));\n\n    bytes32 constant internal JOIN_SPLIT_SIGNATURE_TYPE_HASH = keccak256(abi.encodePacked(\n        \"JoinSplitSignature(\",\n            \"uint24 proof,\",\n            \"bytes32 noteHash,\",\n            \"uint256 challenge,\",\n            \"address sender\",\n        \")\"\n    ));\n\n    ACE public ace;\n    IERC20 public linkedToken;\n    NoteRegistry.Flags public flags;\n\n    uint256 public scalingFactor;\n    mapping(bytes32 => mapping(address => bool)) public confidentialApproved;\n\n    constructor(\n        address _aceAddress,\n        address _linkedTokenAddress,\n        uint256 _scalingFactor,\n        bool _canAdjustSupply,\n        bool _canConvert\n    ) public {\n        EIP712_DOMAIN_HASH = keccak256(abi.encodePacked(\n            EIP712_DOMAIN_SEPARATOR_SCHEMA_HASH,\n            keccak256(bytes(EIP712_DOMAIN_NAME)),\n            keccak256(bytes(EIP712_DOMAIN_VERSION)),\n            bytes32(uint256(address(this)))\n        ));\n        flags = NoteRegistry.Flags({\n            active: true,\n            canAdjustSupply: false,\n            canConvert: true\n        });\n        ace = ACE(_aceAddress);\n        linkedToken = IERC20(_linkedTokenAddress);\n        scalingFactor = _scalingFactor;\n        ace.createNoteRegistry(\n            _linkedTokenAddress,\n            _scalingFactor,\n            _canAdjustSupply, // false,\n            _canConvert // true\n        );\n        emit CreateZkAsset(\n            _aceAddress,\n            _linkedTokenAddress,\n            _scalingFactor,\n            _canAdjustSupply,\n            _canConvert\n        );\n    }\n    \n    /**\n    * @dev Executes a basic unilateral, confidential transfer of AZTEC notes \n    * Will submit _proofData to the validateProof() function of the Cryptography Engine. \n    *\n    * Upon successfull verification, it will update note registry state - creating output notes and \n    * destroying input notes.\n    * \n    * @param _proofData - bytes array outputted from a proof verification contract, representing \n    * transfer instructions for the ACE \n    * @param _signatures - array of the ECDSA signatures over all inputNotes \n    */\n    function confidentialTransfer(bytes memory _proofData, bytes memory _signatures) public {\n        bytes memory proofOutputs = ace.validateProof(JOIN_SPLIT_PROOF, msg.sender, _proofData);\n        confidentialTransferInternal(proofOutputs, _signatures, _proofData);\n    }\n\n        /**\n    * @dev Executes a value transfer mediated by smart contracts. The method is supplied with\n    * transfer instructions represented by a bytes _proofOutput argument that was outputted\n    * from a proof verification contract.\n    * \n    * @param _proof - uint24 variable which acts as a unique identifier for the proof which\n    * _proofOutput is being submitted. _proof contains three concatenated uint8 variables: \n    * 1) epoch number 2) category number 3) ID number for the proof\n    * @param _proofOutput - output of a zero-knowledge proof validation contract. Represents\n    * transfer instructions for the ACE\n    */\n    function confidentialTransferFrom(uint24 _proof, bytes memory _proofOutput) public {\n        (bytes memory inputNotes,\n        bytes memory outputNotes,\n        address publicOwner,\n        int256 publicValue) = _proofOutput.extractProofOutput();\n        \n        uint256 length = inputNotes.getLength();\n        for (uint i = 0; i < length; i += 1) {\n            (, bytes32 noteHash, ) = inputNotes.get(i).extractNote();\n            require(\n                confidentialApproved[noteHash][msg.sender] == true,\n                \"sender does not have approval to spend input note\"\n            );\n        }\n\n        ace.updateNoteRegistry(_proof, _proofOutput, msg.sender);\n\n        logInputNotes(inputNotes);\n        logOutputNotes(outputNotes);\n\n        if (publicValue < 0) {\n            emit ConvertTokens(publicOwner, uint256(-publicValue));\n        }\n        if (publicValue > 0) {\n            emit RedeemTokens(publicOwner, uint256(publicValue));\n        }\n    }\n\n    /**\n    * @dev Note owner approving a third party, another address, to spend the note on \n    * owner's behalf. This is necessary to allow the confidentialTransferFrom() method\n    * to be called\n    * \n    * @param _noteHash - keccak256 hash of the note coordinates (gamma and sigma)\n    * @param _spender - address being approved to spend the note\n    * @param _status - defines whether the _spender address is being approved to spend the \n    * note, or if permission is being revoked\n    * @param _signature - ECDSA signature from the note owner that validates the\n    * confidentialApprove() instruction   \n    */\n    function confidentialApprove(\n        bytes32 _noteHash,\n        address _spender,\n        bool _status,\n        bytes memory _signature\n    ) public {\n        ( uint8 status, , , ) = ace.getNote(address(this), _noteHash);\n        require(status == 1, \"only unspent notes can be approved\");\n\n        bytes32 _hashStruct = keccak256(abi.encode(\n                NOTE_SIGNATURE_TYPEHASH,\n                _noteHash,\n                _spender,\n                status\n        ));\n\n        validateSignature(_hashStruct, _noteHash, _signature);\n        confidentialApproved[_noteHash][_spender] = _status;\n    }\n\n    /**\n    * @dev Perform ECDSA signature validation for a signature over an input note\n    * \n    * @param _hashStruct - the data to sign in an EIP712 signature\n    * @param _noteHash - keccak256 hash of the note coordinates (gamma and sigma)\n    * @param _signature - ECDSA signature for a particular input note \n    */\n    function validateSignature(\n        bytes32 _hashStruct,\n        bytes32 _noteHash,\n        bytes memory _signature\n    ) internal view {\n        (, , , address noteOwner ) = ace.getNote(address(this), _noteHash);\n\n        address signer;\n        if (_signature.length != 0) {\n            // validate EIP712 signature\n            bytes32 msgHash = hashEIP712Message(_hashStruct);\n            signer = recoverSignature(\n                msgHash,\n                _signature\n            );\n        } else {\n            signer = msg.sender;\n        }\n        require(signer == noteOwner, \"the note owner did not sign this message\");\n    }\n\n    /**\n    * @dev Extract the appropriate ECDSA signature from an array of signatures,\n    * \n    * @param _signatures - array of ECDSA signatures over all inputNotes \n    * @param _i - index used to determine which signature element is desired\n    */\n    function extractSignature(bytes memory _signatures, uint _i) internal pure returns (\n        bytes memory _signature\n    ){\n        bytes32 v;\n        bytes32 r;\n        bytes32 s;\n        assembly {\n            // memory map of signatures\n            // 0x00 - 0x20 : length of signature array\n            // 0x20 - 0x40 : first sig, v \n            // 0x40 - 0x60 : first sig, r \n            // 0x60 - 0x80 : first sig, s\n            // 0x80 - 0xa0 : second sig, v\n            // and so on...\n            // Length of a signature = 0x60\n            \n            v := mload(add(add(_signatures, 0x20), mul(_i, 0x60)))\n            r := mload(add(add(_signatures, 0x40), mul(_i, 0x60)))\n            s := mload(add(add(_signatures, 0x60), mul(_i, 0x60)))\n        }\n        _signature = abi.encode(v, r, s);\n    }\n\n    /**\n    * @dev Internal method to act on transfer instructions from a successful proof validation. \n    * Specifically, it:\n    * - extracts the relevant objects from the proofOutput object\n    * - validates an EIP712 signature over each input note\n    * - updates note registry state\n    * - emits events for note creation/destruction\n    * - converts or redeems tokens, according to the publicValue\n    * \n    * @param proofOutputs - transfer instructions from a zero-knowledege proof validator \n    * contract\n    * @param _signatures - ECDSA signatures over a set of input notes\n    * @param _proofData - cryptographic proof data outputted from a proof construction \n    * operation\n    */\n    function confidentialTransferInternal(\n        bytes memory proofOutputs,\n        bytes memory _signatures,\n        bytes memory _proofData\n    ) internal {\n        bytes32 _challenge;\n        assembly {\n            _challenge := mload(add(_proofData, 0x40))\n        }\n\n        for (uint i = 0; i < proofOutputs.getLength(); i += 1) {\n            bytes memory proofOutput = proofOutputs.get(i);\n            ace.updateNoteRegistry(JOIN_SPLIT_PROOF, proofOutput, address(this));\n            \n            (bytes memory inputNotes,\n            bytes memory outputNotes,\n            address publicOwner,\n            int256 publicValue) = proofOutput.extractProofOutput();\n\n \n            if (inputNotes.getLength() > uint(0)) {\n                \n                for (uint j = 0; j < inputNotes.getLength(); j += 1) {\n                    bytes memory _signature = extractSignature(_signatures, j);\n\n                    (, bytes32 noteHash, ) = inputNotes.get(j).extractNote();\n\n                    bytes32 hashStruct = keccak256(abi.encode(\n                        JOIN_SPLIT_SIGNATURE_TYPE_HASH,\n                        JOIN_SPLIT_PROOF,\n                        noteHash,\n                        _challenge,\n                        msg.sender\n                    ));\n\n                    validateSignature(hashStruct, noteHash, _signature);\n                }\n            }\n\n            logInputNotes(inputNotes);\n            logOutputNotes(outputNotes);\n            if (publicValue < 0) {\n                emit ConvertTokens(publicOwner, uint256(-publicValue));\n            }\n            if (publicValue > 0) {\n                emit RedeemTokens(publicOwner, uint256(publicValue));\n            }\n\n        }\n    }\n\n    /**\n    * @dev Emit events for all input notes, which represent notes being destroyed\n    * and removed from the note registry\n    * \n    * @param inputNotes - input notes being destroyed and removed from note registry state\n    */\n    function logInputNotes(bytes memory inputNotes) internal {\n        for (uint i = 0; i < inputNotes.getLength(); i += 1) {\n            (address noteOwner, bytes32 noteHash, bytes memory metadata) = inputNotes.get(i).extractNote();\n            emit DestroyNote(noteOwner, noteHash, metadata);\n        }\n    }\n\n    /**\n    * @dev Emit events for all output notes, which represent notes being created and added\n    * to the note registry\n    * \n    * @param outputNotes - outputNotes being created and added to note registry state\n    */\n    function logOutputNotes(bytes memory outputNotes) internal {\n        for (uint i = 0; i < outputNotes.getLength(); i += 1) {\n            (address noteOwner, bytes32 noteHash, bytes memory metadata) = outputNotes.get(i).extractNote();\n            emit CreateNote(noteOwner, noteHash, metadata);\n        }\n    }\n}\n",
  "sourcePath": "@aztec/protocol/contracts/ERC1724/ZkAsset.sol",
  "compiler": {
    "name": "solc",
    "version": "0.5.4+commit.9549d8ff.Emscripten.clang"
  },
  "schemaVersion": "3.0.9",
  "updatedAt": "2021-09-17T17:40:15.193Z",
  "devdoc": {
    "author": "AZTEC",
    "details": "A contract defining the standard interface and behaviours of a confidential asset.  The ownership values and transfer values are encrypted.  Copyright Spilbury Holdings Ltd 2019. All rights reserved.*",
    "methods": {
      "confidentialApprove(bytes32,address,bool,bytes)": {
        "details": "Note owner approving a third party, another address, to spend the note on  owner's behalf. This is necessary to allow the confidentialTransferFrom() method to be called ",
        "params": {
          "_noteHash": "- keccak256 hash of the note coordinates (gamma and sigma)",
          "_signature": "- ECDSA signature from the note owner that validates the confidentialApprove() instruction   ",
          "_spender": "- address being approved to spend the note",
          "_status": "- defines whether the _spender address is being approved to spend the  note, or if permission is being revoked"
        }
      },
      "confidentialTransfer(bytes,bytes)": {
        "details": "Executes a basic unilateral, confidential transfer of AZTEC notes  Will submit _proofData to the validateProof() function of the Cryptography Engine.     * Upon successfull verification, it will update note registry state - creating output notes and  destroying input notes. ",
        "params": {
          "_proofData": "- bytes array outputted from a proof verification contract, representing  transfer instructions for the ACE ",
          "_signatures": "- array of the ECDSA signatures over all inputNotes "
        }
      },
      "confidentialTransferFrom(uint24,bytes)": {
        "details": "Executes a value transfer mediated by smart contracts. The method is supplied with transfer instructions represented by a bytes _proofOutput argument that was outputted from a proof verification contract. ",
        "params": {
          "_proof": "- uint24 variable which acts as a unique identifier for the proof which _proofOutput is being submitted. _proof contains three concatenated uint8 variables:  1) epoch number 2) category number 3) ID number for the proof",
          "_proofOutput": "- output of a zero-knowledge proof validation contract. Represents transfer instructions for the ACE"
        }
      }
    },
    "title": "ZkAsset"
  },
  "userdoc": {
    "methods": {}
  }
}