{
  "contractName": "ZKERC20",
  "abi": [
    {
      "constant": true,
      "inputs": [],
      "name": "JOIN_SPLIT_PROOF",
      "outputs": [
        {
          "name": "",
          "type": "uint24"
        }
      ],
      "payable": false,
      "stateMutability": "view",
      "type": "function"
    },
    {
      "constant": true,
      "inputs": [],
      "name": "ZERO_VALUE_NOTE_HASH",
      "outputs": [
        {
          "name": "",
          "type": "bytes32"
        }
      ],
      "payable": false,
      "stateMutability": "view",
      "type": "function"
    },
    {
      "constant": true,
      "inputs": [
        {
          "name": "",
          "type": "bytes32"
        },
        {
          "name": "",
          "type": "address"
        }
      ],
      "name": "confidentialApproved",
      "outputs": [
        {
          "name": "",
          "type": "bool"
        }
      ],
      "payable": false,
      "stateMutability": "view",
      "type": "function"
    },
    {
      "constant": false,
      "inputs": [
        {
          "name": "_noteHash",
          "type": "bytes32"
        },
        {
          "name": "_spender",
          "type": "address"
        },
        {
          "name": "_status",
          "type": "bool"
        },
        {
          "name": "_signature",
          "type": "bytes"
        }
      ],
      "name": "confidentialApprove",
      "outputs": [],
      "payable": false,
      "stateMutability": "nonpayable",
      "type": "function"
    },
    {
      "constant": true,
      "inputs": [],
      "name": "erc20Address",
      "outputs": [
        {
          "name": "",
          "type": "address"
        }
      ],
      "payable": false,
      "stateMutability": "view",
      "type": "function"
    },
    {
      "constant": true,
      "inputs": [],
      "name": "PRIVATE_RANGE_PROOF",
      "outputs": [
        {
          "name": "",
          "type": "uint24"
        }
      ],
      "payable": false,
      "stateMutability": "view",
      "type": "function"
    },
    {
      "constant": true,
      "inputs": [],
      "name": "flags",
      "outputs": [
        {
          "name": "active",
          "type": "bool"
        },
        {
          "name": "canAdjustSupply",
          "type": "bool"
        },
        {
          "name": "canConvert",
          "type": "bool"
        }
      ],
      "payable": false,
      "stateMutability": "view",
      "type": "function"
    },
    {
      "constant": true,
      "inputs": [],
      "name": "DIVIDEND_PROOF",
      "outputs": [
        {
          "name": "",
          "type": "uint24"
        }
      ],
      "payable": false,
      "stateMutability": "view",
      "type": "function"
    },
    {
      "constant": true,
      "inputs": [],
      "name": "MINT_PROOF",
      "outputs": [
        {
          "name": "",
          "type": "uint24"
        }
      ],
      "payable": false,
      "stateMutability": "view",
      "type": "function"
    },
    {
      "constant": false,
      "inputs": [
        {
          "name": "_proofData",
          "type": "bytes"
        },
        {
          "name": "_signatures",
          "type": "bytes"
        }
      ],
      "name": "confidentialTransfer",
      "outputs": [],
      "payable": false,
      "stateMutability": "nonpayable",
      "type": "function"
    },
    {
      "constant": true,
      "inputs": [],
      "name": "ace",
      "outputs": [
        {
          "name": "",
          "type": "address"
        }
      ],
      "payable": false,
      "stateMutability": "view",
      "type": "function"
    },
    {
      "constant": false,
      "inputs": [
        {
          "name": "_proof",
          "type": "uint24"
        },
        {
          "name": "_proofOutput",
          "type": "bytes"
        }
      ],
      "name": "confidentialTransferFrom",
      "outputs": [],
      "payable": false,
      "stateMutability": "nonpayable",
      "type": "function"
    },
    {
      "constant": true,
      "inputs": [],
      "name": "BURN_PROOF",
      "outputs": [
        {
          "name": "",
          "type": "uint24"
        }
      ],
      "payable": false,
      "stateMutability": "view",
      "type": "function"
    },
    {
      "constant": true,
      "inputs": [],
      "name": "EIP712_DOMAIN_HASH",
      "outputs": [
        {
          "name": "",
          "type": "bytes32"
        }
      ],
      "payable": false,
      "stateMutability": "view",
      "type": "function"
    },
    {
      "constant": true,
      "inputs": [],
      "name": "linkedToken",
      "outputs": [
        {
          "name": "",
          "type": "address"
        }
      ],
      "payable": false,
      "stateMutability": "view",
      "type": "function"
    },
    {
      "constant": true,
      "inputs": [],
      "name": "scalingFactor",
      "outputs": [
        {
          "name": "",
          "type": "uint256"
        }
      ],
      "payable": false,
      "stateMutability": "view",
      "type": "function"
    },
    {
      "inputs": [
        {
          "name": "_aceAddress",
          "type": "address"
        },
        {
          "name": "_erc20Address",
          "type": "address"
        }
      ],
      "payable": false,
      "stateMutability": "nonpayable",
      "type": "constructor"
    },
    {
      "anonymous": false,
      "inputs": [
        {
          "indexed": false,
          "name": "owner",
          "type": "address"
        },
        {
          "indexed": false,
          "name": "value",
          "type": "uint256"
        },
        {
          "indexed": false,
          "name": "noteHash",
          "type": "bytes32"
        }
      ],
      "name": "Log",
      "type": "event"
    },
    {
      "anonymous": false,
      "inputs": [
        {
          "indexed": false,
          "name": "value",
          "type": "string"
        }
      ],
      "name": "LogString",
      "type": "event"
    },
    {
      "anonymous": false,
      "inputs": [
        {
          "indexed": true,
          "name": "aceAddress",
          "type": "address"
        },
        {
          "indexed": true,
          "name": "linkedTokenAddress",
          "type": "address"
        },
        {
          "indexed": false,
          "name": "scalingFactor",
          "type": "uint256"
        },
        {
          "indexed": true,
          "name": "_canAdjustSupply",
          "type": "bool"
        },
        {
          "indexed": false,
          "name": "_canConvert",
          "type": "bool"
        }
      ],
      "name": "CreateZkAsset",
      "type": "event"
    },
    {
      "anonymous": false,
      "inputs": [
        {
          "indexed": false,
          "name": "noteRegistryId",
          "type": "uint256"
        }
      ],
      "name": "CreateNoteRegistry",
      "type": "event"
    },
    {
      "anonymous": false,
      "inputs": [
        {
          "indexed": true,
          "name": "owner",
          "type": "address"
        },
        {
          "indexed": true,
          "name": "noteHash",
          "type": "bytes32"
        },
        {
          "indexed": false,
          "name": "metadata",
          "type": "bytes"
        }
      ],
      "name": "CreateNote",
      "type": "event"
    },
    {
      "anonymous": false,
      "inputs": [
        {
          "indexed": true,
          "name": "owner",
          "type": "address"
        },
        {
          "indexed": true,
          "name": "noteHash",
          "type": "bytes32"
        },
        {
          "indexed": false,
          "name": "metadata",
          "type": "bytes"
        }
      ],
      "name": "DestroyNote",
      "type": "event"
    },
    {
      "anonymous": false,
      "inputs": [
        {
          "indexed": true,
          "name": "owner",
          "type": "address"
        },
        {
          "indexed": false,
          "name": "value",
          "type": "uint256"
        }
      ],
      "name": "ConvertTokens",
      "type": "event"
    },
    {
      "anonymous": false,
      "inputs": [
        {
          "indexed": true,
          "name": "owner",
          "type": "address"
        },
        {
          "indexed": false,
          "name": "value",
          "type": "uint256"
        }
      ],
      "name": "RedeemTokens",
      "type": "event"
    },
    {
      "constant": false,
      "inputs": [
        {
          "name": "_proofHash",
          "type": "bytes32"
        },
        {
          "name": "_value",
          "type": "uint256"
        }
      ],
      "name": "approveAceToSpendTokens",
      "outputs": [],
      "payable": false,
      "stateMutability": "nonpayable",
      "type": "function"
    }
  ],
  "bytecode": "0x608060405234801561001057600080fd5b50604051604080611ad48339810180604052604081101561003057600080fd5b508051602091820151604080517f454950373132446f6d61696e28000000000000000000000000000000000000008186018190527f737472696e67206e616d652c0000000000000000000000000000000000000000602d83018190527f737472696e672076657273696f6e2c0000000000000000000000000000000000603984018190527f6164647265737320766572696679696e67436f6e747261637400000000000000604885018190527f29000000000000000000000000000000000000000000000000000000000000006061860181905286516042818803018152606287018089528151918c019190912060a28801895260199091527f415a5445435f43525950544f4752415048595f454e47494e45000000000000006082909701969096528651808801885260018082527f3100000000000000000000000000000000000000000000000000000000000000918c018290528851808d01989098527fc8066e2c715ce196630b273cd256d8959d5b9fefc55e9e6d999fb0f08bb7f75f888a01527fc89efdaa54c0f20c7adf612882df0950f5a951637e0307cdcb4c672f298b8bc66060808a01829052306080808c018290528c51808d038201905260a0808d018e5260c0808e019c909c5260cd8d019a909a5260d98c019890985260e88b01969096526101018a0194909452895160e2818b030181526101028a01808c528151918f01919091206101428b018c5260089091527f5a4b5f4153534554000000000000000000000000000000000000000000000000610122909a01999099528951808b018b528281528d01929092528851808d01989098527f34a1782c7b6da6ed013d1c63b38e9a7204574db51f6df9ff13aa1786590013fd888a015291870152600091821b8684015286518087039093018352928501808752825192909901919091208155610100840185529681905290820186905260e09091018190526003805462ffff001960ff19909116831716620100001790558054600160a060020a03808616600160a060020a03199283161780845560028054838816941684179055600484815585517fa5468ca2000000000000000000000000000000000000000000000000000000008152908101939093526024830184905260448301889052606483018490529351959694958795879590938593919091169163a5468ca291608480820192879290919082900301818387803b1580156103b457600080fd5b505af11580156103c8573d6000803e3d6000fd5b505060408051868152841515602082015281518615159450600160a060020a03808a1694508a16927fca576e79bcb5c4a0045d9d596a80c733c3997559f688f69e5c03bd737d885b86928290030190a4505060068054600160a060020a03968716600160a060020a03199182161790915560078054959096169416939093179093555050506116788061045c6000396000f3fe608060405234801561001057600080fd5b506004361061010a5760003560e01c80638500e1f8116100a2578063cdfea90e11610071578063cdfea90e1461040d578063df924625146104bf578063e306f779146104c7578063ea12489f146104cf578063ed3437f8146104d75761010a565b80638500e1f8146102c85780638e526d9b146102d057806396988498146102d8578063a5c8fa84146104055761010a565b8063276184ae116100de578063276184ae1461024f5780633de59d4c1461027357806349518b281461029657806364cc4aa51461029e5761010a565b80625bf7321461010f578063076160511461012f5780630f4a80fe146101495780631f2ac16a14610189575b600080fd5b6101176104df565b6040805162ffffff9092168252519081900360200190f35b6101376104e6565b60408051918252519081900360200190f35b6101756004803603604081101561015f57600080fd5b5080359060200135600160a060020a031661050a565b604080519115158252519081900360200190f35b61024d6004803603608081101561019f57600080fd5b813591600160a060020a03602082013516916040820135151591908101906080810160608201356401000000008111156101d857600080fd5b8201836020820111156101ea57600080fd5b8035906020019184600183028401116401000000008311171561020c57600080fd5b91908080601f01602080910402602001604051908101604052809392919081815260200183838082843760009201919091525092955061052a945050505050565b005b61025761077d565b60408051600160a060020a039092168252519081900360200190f35b61024d6004803603604081101561028957600080fd5b508035906020013561078c565b61011761086a565b6102a6610871565b6040805193151584529115156020840152151582820152519081900360600190f35b61011761088d565b610117610894565b61024d600480360360408110156102ee57600080fd5b81019060208101813564010000000081111561030957600080fd5b82018360208201111561031b57600080fd5b8035906020019184600183028401116401000000008311171561033d57600080fd5b91908080601f016020809104026020016040519081016040528093929190818152602001838380828437600092019190915250929594936020810193503591505064010000000081111561039057600080fd5b8201836020820111156103a257600080fd5b803590602001918460018302840111640100000000831117156103c457600080fd5b91908080601f01602080910402602001604051908101604052809392919081815260200183838082843760009201919091525092955061089b945050505050565b610257610a12565b61024d6004803603604081101561042357600080fd5b62ffffff823516919081019060408101602082013564010000000081111561044a57600080fd5b82018360208201111561045c57600080fd5b8035906020019184600183028401116401000000008311171561047e57600080fd5b91908080601f016020809104026020016040519081016040528093929190818152602001838380828437600092019190915250929550610a21945050505050565b610117610c9b565b610137610ca2565b610257610ca8565b610137610cb7565b6201010181565b7fcbc417524e52b95c42a4c42d357938497e3d199eb9b4a0139c92551d4000bc3c81565b600560209081526000928352604080842090915290825290205460ff1681565b600154604080517ffedee266000000000000000000000000000000000000000000000000000000008152306004820152602481018790529051600092600160a060020a03169163fedee266916044808301926080929190829003018186803b15801561059557600080fd5b505afa1580156105a9573d6000803e3d6000fd5b505050506040513d60808110156105bf57600080fd5b50519050600160ff82161461061f576040517f08c379a00000000000000000000000000000000000000000000000000000000081526004018080602001828103825260228152602001806115b06022913960400191505060405180910390fd5b604080517f4e6f74655369676e6174757265280000000000000000000000000000000000006020808301919091527f62797465733332206e6f7465486173682c000000000000000000000000000000602e8301527f61646472657373207370656e6465722c00000000000000000000000000000000603f8301527f626f6f6c20737461747573000000000000000000000000000000000000000000604f8301527f2900000000000000000000000000000000000000000000000000000000000000605a8301528251603b818403018152605b83018452805190820120607b830152609b8201889052600160a060020a03871660bb83015260ff841660db808401919091528351808403909101815260fb9092019092528051910120610745818785610cbd565b5050506000928352600560209081526040808520600160a060020a039490941685529290529120805460ff1916911515919091179055565b600754600160a060020a031681565b600654604080517fe308d6ff00000000000000000000000000000000000000000000000000000000815230600482015260248101859052604481018490529051600160a060020a0390921691829163e308d6ff91606480830192600092919082900301818387803b15801561080057600080fd5b505af1158015610814573d6000803e3d6000fd5b505060065460408051600160a060020a03909216825260208201869052818101879052517fbad55d907da885e51d8382278186c32b8bf91c769ca0a40d28ddfd02580cd7d19350908190036060019150a1505050565b6201040281565b60035460ff808216916101008104821691620100009091041683565b6201040181565b6201020181565b6001546040517fa2866ea3000000000000000000000000000000000000000000000000000000008152620101016004820181815233602484018190526060604485018181528851606487015288519196600160a060020a03169563a2866ea395948a9390929160840190602085019080838360005b83811015610928578181015183820152602001610910565b50505050905090810190601f1680156109555780820380516001836020036101000a031916815260200191505b50945050505050600060405180830381600087803b15801561097657600080fd5b505af115801561098a573d6000803e3d6000fd5b505050506040513d6000823e601f3d908101601f1916820160405260208110156109b357600080fd5b8101908080516401000000008111156109cb57600080fd5b820160208101848111156109de57600080fd5b81516401000000008111828201871017156109f857600080fd5b50509291905050509050610a0d818385610df1565b505050565b600154600160a060020a031681565b606080600080610a308561118a565b93509350935093506000610a43856111b4565b905060005b81811015610af0576000610a6a610a65888463ffffffff6111bb16565b61122c565b50600081815260056020908152604080832033845290915290205490925060ff1615156001149050610ae7576040517f08c379a00000000000000000000000000000000000000000000000000000000081526004018080602001828103825260318152602001806115fa6031913960400191505060405180910390fd5b50600101610a48565b506001546040517f977796d200000000000000000000000000000000000000000000000000000000815262ffffff89166004820190815233604483018190526060602484019081528a5160648501528a51600160a060020a039095169463977796d2948d948d94939092909160840190602086019080838360005b83811015610b83578181015183820152602001610b6b565b50505050905090810190601f168015610bb05780820380516001836020036101000a031916815260200191505b50945050505050600060405180830381600087803b158015610bd157600080fd5b505af1158015610be5573d6000803e3d6000fd5b50505050610bf28561124a565b610bfb8461132e565b6000821215610c495782600160a060020a03167ffed3b27b73d78d9d1f344bbbf25f7af35e0ac4d6cf8193604ce18082168e461a836000036040518082815260200191505060405180910390a25b6000821315610c9257604080518381529051600160a060020a038516917f60213c45c34d8b94e495fd5871fdea7a7511f659e884ea25a0c8843b7f98bfad919081900360200190a25b50505050505050565b6201030181565b60005481565b600254600160a060020a031681565b60045481565b600154604080517ffedee266000000000000000000000000000000000000000000000000000000008152306004820152602481018590529051600092600160a060020a03169163fedee266916044808301926080929190829003018186803b158015610d2857600080fd5b505afa158015610d3c573d6000803e3d6000fd5b505050506040513d6080811015610d5257600080fd5b5060600151825190915060009015610d83576000610d6f8661140e565b9050610d7b818561142f565b915050610d86565b50335b600160a060020a0381811690831614610dea576040517f08c379a00000000000000000000000000000000000000000000000000000000081526004018080602001828103825260288152602001806115d26028913960400191505060405180910390fd5b5050505050565b604081015160005b610e02856111b4565b811015610dea576060610e1b868363ffffffff6111bb16565b6001546040517f977796d200000000000000000000000000000000000000000000000000000000815262010101600482018181523060448401819052606060248501908152865160648601528651969750600160a060020a039095169563977796d2959394889492939291608490910190602086019080838360005b83811015610eaf578181015183820152602001610e97565b50505050905090810190601f168015610edc5780820380516001836020036101000a031916815260200191505b50945050505050600060405180830381600087803b158015610efd57600080fd5b505af1158015610f11573d6000803e3d6000fd5b50505050606080600080610f248561118a565b93509350935093506000610f37856111b4565b11156110d15760005b610f49856111b4565b8110156110cf576060610f5c8b83611570565b90506000610f73610a65888563ffffffff6111bb16565b50604080517f4a6f696e53706c69745369676e617475726528000000000000000000000000006020808301919091527f75696e7432342070726f6f662c0000000000000000000000000000000000000060338301527f62797465733332206e6f7465486173682c000000000000000000000000000000828401527f75696e74323536206368616c6c656e67652c000000000000000000000000000060518301527f616464726573732073656e64657200000000000000000000000000000000000060638301527f290000000000000000000000000000000000000000000000000000000000000060718301528251605281840301815260728301845280519082012060928301526201010160b283015260d2820184905260f282018f9052336101128084019190915283518084039091018152610132909201909252805191012090925090506110c4818385610cbd565b505050600101610f40565b505b6110da8461124a565b6110e38361132e565b60008112156111315781600160a060020a03167ffed3b27b73d78d9d1f344bbbf25f7af35e0ac4d6cf8193604ce18082168e461a826000036040518082815260200191505060405180910390a25b600081131561117a57604080518281529051600160a060020a038416917f60213c45c34d8b94e495fd5871fdea7a7511f659e884ea25a0c8843b7f98bfad919081900360200190a25b5050505050600181019050610df9565b6020810151604082015160608301516080840151928401949190930192600160a060020a03169190565b6020015190565b602082810151908202830160400151830190821080611225576040517f08c379a000000000000000000000000000000000000000000000000000000000815260040180806020018281038252602281526020018061162b6022913960400191505060405180910390fd5b5092915050565b60408101516060820151600160a060020a0390911692909160800190565b60005b611256826111b4565b81101561132a576000806060611275610a65868663ffffffff6111bb16565b9250925092508183600160a060020a03167febd4bb7b61198df63305dd538f077db9df9b14339d8a6221e301487770d79227836040518080602001828103825283818151815260200191508051906020019080838360005b838110156112e55781810151838201526020016112cd565b50505050905090810190601f1680156113125780820380516001836020036101000a031916815260200191505b509250505060405180910390a350505060010161124d565b5050565b60005b61133a826111b4565b81101561132a576000806060611359610a65868663ffffffff6111bb16565b9250925092508183600160a060020a03167f5ffb3072e4515cf3bfae8b16be9dff6313cf7c313a0c26faafe6971d8c7585f1836040518080602001828103825283818151815260200191508051906020019080838360005b838110156113c95781810151838201526020016113b1565b50505050905090810190601f1680156113f65780820380516001836020036101000a031916815260200191505b509250505060405180910390a3505050600101611331565b60008054604080516119019093526020919091529182526042601e20915290565b6000808251848452602084015160208560808760015afa601c8214601b831417606084141616925084518614600081146114685761146d565b855194505b505083528080156114855750600160a060020a038216155b151561122557600160a060020a038216151561150257604080517f08c379a000000000000000000000000000000000000000000000000000000000815260206004820152601a60248201527f7369676e657220616464726573732063616e6e6f742062652030000000000000604482015290519081900360640190fd5b80151561122557604080517f08c379a000000000000000000000000000000000000000000000000000000000815260206004820152601960248201527f7369676e6174757265207265636f76657279206661696c656400000000000000604482015290519081900360640190fd5b6060908102919091016020818101516040808401519385015181519384019290925282810193909352818401528151808203909301835260800190529056fe6f6e6c7920756e7370656e74206e6f7465732063616e20626520617070726f766564746865206e6f7465206f776e657220646964206e6f74207369676e2074686973206d65737361676573656e64657220646f6573206e6f74206861766520617070726f76616c20746f207370656e6420696e707574206e6f7465415a54454320617272617920696e646578206973206f7574206f6620626f756e6473a165627a7a72305820c115554a2ba5e38917488417fcb96a0b22dd6cb8a0c5c4e2abfb3b1df2f0c0130029",
  "source": "pragma solidity >= 0.5.0 <0.7.0;\n\nimport \"@aztec/protocol/contracts/ERC1724/ZkAsset.sol\";\n\ncontract ZKERC20 is ZkAsset {\n\n  event Log(address owner, uint256 value, bytes32 noteHash);\n  event LogString(string value);\n  address aceAddress;\n  address public erc20Address;\n\n  constructor(\n    address _aceAddress,\n    address _erc20Address\n   ) public ZkAsset(_aceAddress, address(_erc20Address), 1, false, true) {\n     aceAddress = _aceAddress;\n     erc20Address = _erc20Address;\n  }\n\n  function approveAceToSpendTokens(bytes32 _proofHash, uint256 _value) public {\n\n    ACE aceContract = ACE(aceAddress);\n    aceContract.publicApprove(address(this), _proofHash, _value);\n    emit Log(aceAddress, _value, _proofHash);\n  }\n\n\n}\n",
  "sourcePath": "/Users/patricio/workspace/research/privacy/aztec/loan-dapp/contracts/ZKERC20/ZKERC20.sol",
  "compiler": {
    "name": "solc",
    "version": "0.5.4+commit.9549d8ff.Emscripten.clang"
  },
  "schemaVersion": "3.0.9",
  "updatedAt": "2021-09-17T18:03:48.247Z",
  "devdoc": {
    "methods": {
      "confidentialApprove(bytes32,address,bool,bytes)": {
        "details": "Note owner approving a third party, another address, to spend the note on  owner's behalf. This is necessary to allow the confidentialTransferFrom() method to be called ",
        "params": {
          "_noteHash": "- keccak256 hash of the note coordinates (gamma and sigma)",
          "_signature": "- ECDSA signature from the note owner that validates the confidentialApprove() instruction   ",
          "_spender": "- address being approved to spend the note",
          "_status": "- defines whether the _spender address is being approved to spend the  note, or if permission is being revoked"
        }
      },
      "confidentialTransfer(bytes,bytes)": {
        "details": "Executes a basic unilateral, confidential transfer of AZTEC notes  Will submit _proofData to the validateProof() function of the Cryptography Engine.     * Upon successfull verification, it will update note registry state - creating output notes and  destroying input notes. ",
        "params": {
          "_proofData": "- bytes array outputted from a proof verification contract, representing  transfer instructions for the ACE ",
          "_signatures": "- array of the ECDSA signatures over all inputNotes "
        }
      },
      "confidentialTransferFrom(uint24,bytes)": {
        "details": "Executes a value transfer mediated by smart contracts. The method is supplied with transfer instructions represented by a bytes _proofOutput argument that was outputted from a proof verification contract. ",
        "params": {
          "_proof": "- uint24 variable which acts as a unique identifier for the proof which _proofOutput is being submitted. _proof contains three concatenated uint8 variables:  1) epoch number 2) category number 3) ID number for the proof",
          "_proofOutput": "- output of a zero-knowledge proof validation contract. Represents transfer instructions for the ACE"
        }
      }
    }
  },
  "userdoc": {
    "methods": {}
  }
}